{
  "address": "0xa513E6E4b8f2a923D98304ec87F64353C4D5C853",
  "abi": [
    {
      "inputs": [
        {
          "internalType": "address",
          "name": "_SvgWigets",
          "type": "address"
        },
        {
          "internalType": "address",
          "name": "_sTools",
          "type": "address"
        }
      ],
      "stateMutability": "nonpayable",
      "type": "constructor"
    },
    {
      "anonymous": false,
      "inputs": [
        {
          "indexed": true,
          "internalType": "address",
          "name": "owner",
          "type": "address"
        },
        {
          "indexed": true,
          "internalType": "address",
          "name": "approved",
          "type": "address"
        },
        {
          "indexed": true,
          "internalType": "uint256",
          "name": "tokenId",
          "type": "uint256"
        }
      ],
      "name": "Approval",
      "type": "event"
    },
    {
      "anonymous": false,
      "inputs": [
        {
          "indexed": true,
          "internalType": "address",
          "name": "owner",
          "type": "address"
        },
        {
          "indexed": true,
          "internalType": "address",
          "name": "operator",
          "type": "address"
        },
        {
          "indexed": false,
          "internalType": "bool",
          "name": "approved",
          "type": "bool"
        }
      ],
      "name": "ApprovalForAll",
      "type": "event"
    },
    {
      "anonymous": false,
      "inputs": [
        {
          "indexed": false,
          "internalType": "uint256",
          "name": "tokenId",
          "type": "uint256"
        }
      ],
      "name": "NewIndicator",
      "type": "event"
    },
    {
      "anonymous": false,
      "inputs": [
        {
          "indexed": true,
          "internalType": "address",
          "name": "previousOwner",
          "type": "address"
        },
        {
          "indexed": true,
          "internalType": "address",
          "name": "newOwner",
          "type": "address"
        }
      ],
      "name": "OwnershipTransferred",
      "type": "event"
    },
    {
      "anonymous": false,
      "inputs": [
        {
          "indexed": true,
          "internalType": "address",
          "name": "from",
          "type": "address"
        },
        {
          "indexed": true,
          "internalType": "address",
          "name": "to",
          "type": "address"
        },
        {
          "indexed": true,
          "internalType": "uint256",
          "name": "tokenId",
          "type": "uint256"
        }
      ],
      "name": "Transfer",
      "type": "event"
    },
    {
      "inputs": [
        {
          "internalType": "address",
          "name": "to",
          "type": "address"
        },
        {
          "internalType": "uint256",
          "name": "tokenId",
          "type": "uint256"
        }
      ],
      "name": "approve",
      "outputs": [],
      "stateMutability": "nonpayable",
      "type": "function"
    },
    {
      "inputs": [
        {
          "internalType": "address",
          "name": "owner",
          "type": "address"
        }
      ],
      "name": "balanceOf",
      "outputs": [
        {
          "internalType": "uint256",
          "name": "",
          "type": "uint256"
        }
      ],
      "stateMutability": "view",
      "type": "function"
    },
    {
      "inputs": [
        {
          "internalType": "uint256",
          "name": "_qty",
          "type": "uint256"
        },
        {
          "internalType": "uint256",
          "name": "_buildType",
          "type": "uint256"
        }
      ],
      "name": "createToken",
      "outputs": [],
      "stateMutability": "payable",
      "type": "function"
    },
    {
      "inputs": [
        {
          "internalType": "uint256",
          "name": "tokenId",
          "type": "uint256"
        }
      ],
      "name": "getApproved",
      "outputs": [
        {
          "internalType": "address",
          "name": "",
          "type": "address"
        }
      ],
      "stateMutability": "view",
      "type": "function"
    },
    {
      "inputs": [
        {
          "internalType": "address",
          "name": "owner",
          "type": "address"
        },
        {
          "internalType": "address",
          "name": "operator",
          "type": "address"
        }
      ],
      "name": "isApprovedForAll",
      "outputs": [
        {
          "internalType": "bool",
          "name": "",
          "type": "bool"
        }
      ],
      "stateMutability": "view",
      "type": "function"
    },
    {
      "inputs": [],
      "name": "name",
      "outputs": [
        {
          "internalType": "string",
          "name": "",
          "type": "string"
        }
      ],
      "stateMutability": "view",
      "type": "function"
    },
    {
      "inputs": [],
      "name": "owner",
      "outputs": [
        {
          "internalType": "address",
          "name": "",
          "type": "address"
        }
      ],
      "stateMutability": "view",
      "type": "function"
    },
    {
      "inputs": [
        {
          "internalType": "uint256",
          "name": "tokenId",
          "type": "uint256"
        }
      ],
      "name": "ownerOf",
      "outputs": [
        {
          "internalType": "address",
          "name": "",
          "type": "address"
        }
      ],
      "stateMutability": "view",
      "type": "function"
    },
    {
      "inputs": [],
      "name": "renounceOwnership",
      "outputs": [],
      "stateMutability": "nonpayable",
      "type": "function"
    },
    {
      "inputs": [
        {
          "internalType": "address",
          "name": "from",
          "type": "address"
        },
        {
          "internalType": "address",
          "name": "to",
          "type": "address"
        },
        {
          "internalType": "uint256",
          "name": "tokenId",
          "type": "uint256"
        }
      ],
      "name": "safeTransferFrom",
      "outputs": [],
      "stateMutability": "nonpayable",
      "type": "function"
    },
    {
      "inputs": [
        {
          "internalType": "address",
          "name": "from",
          "type": "address"
        },
        {
          "internalType": "address",
          "name": "to",
          "type": "address"
        },
        {
          "internalType": "uint256",
          "name": "tokenId",
          "type": "uint256"
        },
        {
          "internalType": "bytes",
          "name": "_data",
          "type": "bytes"
        }
      ],
      "name": "safeTransferFrom",
      "outputs": [],
      "stateMutability": "nonpayable",
      "type": "function"
    },
    {
      "inputs": [
        {
          "internalType": "address",
          "name": "operator",
          "type": "address"
        },
        {
          "internalType": "bool",
          "name": "approved",
          "type": "bool"
        }
      ],
      "name": "setApprovalForAll",
      "outputs": [],
      "stateMutability": "nonpayable",
      "type": "function"
    },
    {
      "inputs": [
        {
          "internalType": "bytes4",
          "name": "interfaceId",
          "type": "bytes4"
        }
      ],
      "name": "supportsInterface",
      "outputs": [
        {
          "internalType": "bool",
          "name": "",
          "type": "bool"
        }
      ],
      "stateMutability": "view",
      "type": "function"
    },
    {
      "inputs": [
        {
          "internalType": "uint256",
          "name": "_tokenId",
          "type": "uint256"
        }
      ],
      "name": "svgBase64",
      "outputs": [
        {
          "internalType": "string",
          "name": "",
          "type": "string"
        }
      ],
      "stateMutability": "view",
      "type": "function"
    },
    {
      "inputs": [
        {
          "internalType": "uint256",
          "name": "_tokenId",
          "type": "uint256"
        }
      ],
      "name": "svgRaw",
      "outputs": [
        {
          "internalType": "bytes",
          "name": "",
          "type": "bytes"
        }
      ],
      "stateMutability": "view",
      "type": "function"
    },
    {
      "inputs": [],
      "name": "symbol",
      "outputs": [
        {
          "internalType": "string",
          "name": "",
          "type": "string"
        }
      ],
      "stateMutability": "view",
      "type": "function"
    },
    {
      "inputs": [
        {
          "internalType": "uint256",
          "name": "index",
          "type": "uint256"
        }
      ],
      "name": "tokenByIndex",
      "outputs": [
        {
          "internalType": "uint256",
          "name": "",
          "type": "uint256"
        }
      ],
      "stateMutability": "view",
      "type": "function"
    },
    {
      "inputs": [
        {
          "internalType": "address",
          "name": "owner",
          "type": "address"
        },
        {
          "internalType": "uint256",
          "name": "index",
          "type": "uint256"
        }
      ],
      "name": "tokenOfOwnerByIndex",
      "outputs": [
        {
          "internalType": "uint256",
          "name": "",
          "type": "uint256"
        }
      ],
      "stateMutability": "view",
      "type": "function"
    },
    {
      "inputs": [
        {
          "internalType": "uint256",
          "name": "_tokenId",
          "type": "uint256"
        }
      ],
      "name": "tokenURI",
      "outputs": [
        {
          "internalType": "string",
          "name": "",
          "type": "string"
        }
      ],
      "stateMutability": "view",
      "type": "function"
    },
    {
      "inputs": [],
      "name": "totalSupply",
      "outputs": [
        {
          "internalType": "uint256",
          "name": "",
          "type": "uint256"
        }
      ],
      "stateMutability": "view",
      "type": "function"
    },
    {
      "inputs": [
        {
          "internalType": "address",
          "name": "from",
          "type": "address"
        },
        {
          "internalType": "address",
          "name": "to",
          "type": "address"
        },
        {
          "internalType": "uint256",
          "name": "tokenId",
          "type": "uint256"
        }
      ],
      "name": "transferFrom",
      "outputs": [],
      "stateMutability": "nonpayable",
      "type": "function"
    },
    {
      "inputs": [
        {
          "internalType": "address",
          "name": "newOwner",
          "type": "address"
        }
      ],
      "name": "transferOwnership",
      "outputs": [],
      "stateMutability": "nonpayable",
      "type": "function"
    },
    {
      "inputs": [],
      "name": "withdraw",
      "outputs": [],
      "stateMutability": "nonpayable",
      "type": "function"
    },
    {
      "stateMutability": "payable",
      "type": "receive"
    }
  ],
  "transactionHash": "0x35be87e1d5f8cd20a66c8405c8f560e69c2e9ea0c349aa337191de305b8da4b1",
  "args": [
    "0x0165878A594ca255338adfa4d48449f69242Eb8F",
    "0x5FC8d32690cc91D4c39d9d3abcBD16989F875707"
  ],
  "numDeployments": 1,
  "solcInputHash": "1d5a56a1078f935190c56fe6e8e932bb",
  "bytecode": "0x60806040523480156200001157600080fd5b5060405162002f0e38038062002f0e83398101604081905262000034916200056d565b604080518082018252600a815269496e64696361746f727360b01b60208083019182528351808501909452600384526249444360e81b9084015281519192916200008191600091620004aa565b50805162000097906001906020840190620004aa565b505050620000b4620000ae6200045460201b60201c565b62000458565b600c80546001600160a01b038085166001600160a01b031992831617909255600d805492841692821692909217909155600e8054909116736eee6060f715257b970700bc2656de21dedf074c1790556040805160808101825260069181019182526509a82a89286f60d31b6060820152908152733ad736904e9e65189c3000c7dd2c8ac8bb7cd4e36020808301919091526011805460018101825560009190915282518051600290920260008051602062002eee83398151915201926200018192849290910190620004aa565b50602091820151600191820180546001600160a01b039092166001600160a01b03199092169190911790556040805160808101825260049181019182526308aa890f60e31b60608201529081527327e1e4e6bc79d93032abef01025811b7e4727e8581840152601180549283018155600052805180519193600290930260008051602062002eee83398151915201926200022192849290910190620004aa565b50602091820151600191820180546001600160a01b039092166001600160a01b0319909216919091179055604080516080810182526005918101918252640aaa68886f60db1b606082015290815273caa7349cea390f89641fe306d93591f87595dc1f81840152601180549283018155600052805180519193600290930260008051602062002eee8339815191520192620002c292849290910190620004aa565b50602091820151600191820180546001600160a01b039092166001600160a01b0319909216919091179055604080516080810182526004918101918252630888292f60e31b6060820152908152731305f6b6df9dc47159d12eb7ac2804d4a33173c281840152601180549283018155600052805180519193600290930260008051602062002eee83398151915201926200036292849290910190620004aa565b50602091820151600191820180546001600160a01b039092166001600160a01b0319909216919091179055604080516080810182526005918101918252640ae84a886f60db1b6060820152908152734086ebf75233e8492f1bcda41c7f2a8288c2fb9281840152601180549283018155600052805180519193600290930260008051602062002eee83398151915201926200040392849290910190620004aa565b5060209190910151600190910180546001600160a01b039092166001600160a01b0319928316179055600f8054909116738dff5e27ea6b7ac08ebfdf9eb090f32ee9a30fcf17905550620005e19050565b3390565b600b80546001600160a01b038381166001600160a01b0319831681179093556040519116919082907f8be0079c531659141344cd1fd0a4f28419497f9722a3daafe3b4186f6b6457e090600090a35050565b828054620004b890620005a5565b90600052602060002090601f016020900481019282620004dc576000855562000527565b82601f10620004f757805160ff191683800117855562000527565b8280016001018555821562000527579182015b82811115620005275782518255916020019190600101906200050a565b506200053592915062000539565b5090565b5b808211156200053557600081556001016200053a565b80516001600160a01b03811681146200056857600080fd5b919050565b600080604083850312156200058157600080fd5b6200058c8362000550565b91506200059c6020840162000550565b90509250929050565b600181811c90821680620005ba57607f821691505b602082108103620005db57634e487b7160e01b600052602260045260246000fd5b50919050565b6128fd80620005f16000396000f3fe6080604052600436106101445760003560e01c80636352211e116100b6578063a22cb4651161006f578063a22cb46514610370578063b88d4fde14610390578063c0e89254146103b0578063c87b56dd146103d0578063e985e9c5146103f0578063f2fde38b1461043957600080fd5b80636352211e146102c857806367ae5d98146102e857806370a0823114610308578063715018a6146103285780638da5cb5b1461033d57806395d89b411461035b57600080fd5b806323b872dd1161010857806323b872dd146102205780632a805069146102405780632f745c59146102535780633ccfd60b1461027357806342842e0e146102885780634f6ccce7146102a857600080fd5b806301ffc9a71461015057806306fdde0314610185578063081812fc146101a7578063095ea7b3146101df57806318160ddd1461020157600080fd5b3661014b57005b600080fd5b34801561015c57600080fd5b5061017061016b366004611ffc565b610459565b60405190151581526020015b60405180910390f35b34801561019157600080fd5b5061019a61046a565b60405161017c9190612078565b3480156101b357600080fd5b506101c76101c236600461208b565b6104fc565b6040516001600160a01b03909116815260200161017c565b3480156101eb57600080fd5b506101ff6101fa3660046120c0565b610596565b005b34801561020d57600080fd5b506009545b60405190815260200161017c565b34801561022c57600080fd5b506101ff61023b3660046120ea565b6106ab565b6101ff61024e366004612126565b6106dc565b34801561025f57600080fd5b5061021261026e3660046120c0565b610868565b34801561027f57600080fd5b506101ff6108fe565b34801561029457600080fd5b506101ff6102a33660046120ea565b6109b7565b3480156102b457600080fd5b506102126102c336600461208b565b6109d2565b3480156102d457600080fd5b506101c76102e336600461208b565b610a65565b3480156102f457600080fd5b5061019a61030336600461208b565b610adc565b34801561031457600080fd5b50610212610323366004612148565b610de6565b34801561033457600080fd5b506101ff610e6d565b34801561034957600080fd5b50600b546001600160a01b03166101c7565b34801561036757600080fd5b5061019a610ea3565b34801561037c57600080fd5b506101ff61038b366004612163565b610eb2565b34801561039c57600080fd5b506101ff6103ab36600461220e565b610ec1565b3480156103bc57600080fd5b5061019a6103cb36600461208b565b610ef9565b3480156103dc57600080fd5b5061019a6103eb36600461208b565b610f32565b3480156103fc57600080fd5b5061017061040b3660046122b9565b6001600160a01b03918216600090815260056020908152604080832093909416825291909152205460ff1690565b34801561044557600080fd5b506101ff610454366004612148565b611048565b6000610464826110e0565b92915050565b606060008054610479906122ec565b80601f01602080910402602001604051908101604052809291908181526020018280546104a5906122ec565b80156104f25780601f106104c7576101008083540402835291602001916104f2565b820191906000526020600020905b8154815290600101906020018083116104d557829003601f168201915b5050505050905090565b6000818152600260205260408120546001600160a01b031661057a5760405162461bcd60e51b815260206004820152602c60248201527f4552433732313a20617070726f76656420717565727920666f72206e6f6e657860448201526b34b9ba32b73a103a37b5b2b760a11b60648201526084015b60405180910390fd5b506000908152600460205260409020546001600160a01b031690565b60006105a182610a65565b9050806001600160a01b0316836001600160a01b03160361060e5760405162461bcd60e51b815260206004820152602160248201527f4552433732313a20617070726f76616c20746f2063757272656e74206f776e656044820152603960f91b6064820152608401610571565b336001600160a01b038216148061062a575061062a813361040b565b61069c5760405162461bcd60e51b815260206004820152603860248201527f4552433732313a20617070726f76652063616c6c6572206973206e6f74206f7760448201527f6e6572206e6f7220617070726f76656420666f7220616c6c00000000000000006064820152608401610571565b6106a68383611105565b505050565b6106b53382611173565b6106d15760405162461bcd60e51b815260040161057190612326565b6106a683838361126a565b816106e660125490565b6106f0919061238d565b61c350116107345760405162461bcd60e51b8152602060048201526011602482015270457863656564206d617820737570706c7960781b6044820152606401610571565b6002811061077a5760405162461bcd60e51b815260206004820152601360248201527274797065206d7573742062652030206f72203160681b6044820152606401610571565b3461078d678ac7230489e80000846123a5565b146107da5760405162461bcd60e51b815260206004820152601b60248201527f457468657220616d6f756e74206973206e6f7420636f727265637400000000006044820152606401610571565b60005b828110156106a65760006107f060125490565b90506107fc3382611411565b60008181526010602052604090819020849055517f6de139b9d7795964579b56debad708bb40c5588bdd00381459787f834a156eec9061083f9083815260200190565b60405180910390a1610855601280546001019055565b5080610860816123c4565b9150506107dd565b600061087383610de6565b82106108d55760405162461bcd60e51b815260206004820152602b60248201527f455243373231456e756d657261626c653a206f776e657220696e646578206f7560448201526a74206f6620626f756e647360a81b6064820152608401610571565b506001600160a01b03919091166000908152600760209081526040808320938352929052205490565b600b546001600160a01b031633146109285760405162461bcd60e51b8152600401610571906123dd565b604051600090339047908381818185875af1925050503d806000811461096a576040519150601f19603f3d011682016040523d82523d6000602084013e61096f565b606091505b50509050806109b45760405162461bcd60e51b815260206004820152601160248201527015da5d1a191c985dd85b0819985a5b1959607a1b6044820152606401610571565b50565b6106a683838360405180602001604052806000815250610ec1565b60006109dd60095490565b8210610a405760405162461bcd60e51b815260206004820152602c60248201527f455243373231456e756d657261626c653a20676c6f62616c20696e646578206f60448201526b7574206f6620626f756e647360a01b6064820152608401610571565b60098281548110610a5357610a53612412565b90600052602060002001549050919050565b6000818152600260205260408120546001600160a01b0316806104645760405162461bcd60e51b815260206004820152602960248201527f4552433732313a206f776e657220717565727920666f72206e6f6e657869737460448201526832b73a103a37b5b2b760b91b6064820152608401610571565b6040805160a081018252600080825260056020808401919091528351808501855260078152662372656374426760c81b8183015283850152600d549351630b01875760e41b81526004810191909152600a60248201526947686f7374576869746560b01b6044820152606093849391848301916001600160a01b03169063b018757090606401600060405180830381865afa158015610b7f573d6000803e3d6000fd5b505050506040513d6000823e601f3d908101601f19168201604052610ba79190810190612428565b8152600d54604051630b01875760e41b8152602060048083018290526024830152634e61767960e01b6044830152909201916001600160a01b039091169063b018757090606401600060405180830381865afa158015610c0b573d6000803e3d6000fd5b505050506040513d6000823e601f3d908101601f19168201604052610c339190810190612428565b90529050610c408461142b565b600d546040805180820182526004808252610dd160e31b60208301529151620135df60e81b81529395506001600160a01b0390921692630135df0092610c889290910161249f565b600060405180830381865afa158015610ca5573d6000803e3d6000fd5b505050506040513d6000823e601f3d908101601f19168201604052610ccd9190810190612428565b60405163f43d49a360e01b815273Dc64a140Aa3E981100a9becA4E685f962f0cF6C99063f43d49a390610d04908590600401612553565b600060405180830381865af4158015610d21573d6000803e3d6000fd5b505050506040513d6000823e601f3d908101601f19168201604052610d499190810190612428565b8373Dc64a140Aa3E981100a9becA4E685f962f0cF6C963bba7e70c6040518163ffffffff1660e01b8152600401600060405180830381865af4158015610d93573d6000803e3d6000fd5b505050506040513d6000823e601f3d908101601f19168201604052610dbb9190810190612428565b604051602001610dce94939291906125c5565b60405160208183030381529060405292505050919050565b60006001600160a01b038216610e515760405162461bcd60e51b815260206004820152602a60248201527f4552433732313a2062616c616e636520717565727920666f7220746865207a65604482015269726f206164647265737360b01b6064820152608401610571565b506001600160a01b031660009081526003602052604090205490565b600b546001600160a01b03163314610e975760405162461bcd60e51b8152600401610571906123dd565b610ea16000611706565b565b606060018054610479906122ec565b610ebd338383611758565b5050565b610ecb3383611173565b610ee75760405162461bcd60e51b815260040161057190612326565b610ef384848484611826565b50505050565b6060610f0c610f0783610adc565b611859565b604051602001610f1c919061261c565b6040516020818303038152906040529050919050565b6000818152600260205260409020546060906001600160a01b0316610f8b5760405162461bcd60e51b815260206004820152600f60248201526e155b9adb9bdddb881d1bdad95b9259608a1b6044820152606401610571565b60008281526010602052604081205460609103610fc9575060408051808201909152600a81526914dd5c195c919b1d5a5960b21b6020820152610fe6565b506040805180820190915260048152634161766560e01b60208201525b611021610ff161046a565b82610ffb86610ef9565b60405160200161100d93929190612661565b604051602081830303815290604052611859565b60405160200161103191906126fe565b604051602081830303815290604052915050919050565b600b546001600160a01b031633146110725760405162461bcd60e51b8152600401610571906123dd565b6001600160a01b0381166110d75760405162461bcd60e51b815260206004820152602660248201527f4f776e61626c653a206e6577206f776e657220697320746865207a65726f206160448201526564647265737360d01b6064820152608401610571565b6109b481611706565b60006001600160e01b0319821663780e9d6360e01b14806104645750610464826119c0565b600081815260046020526040902080546001600160a01b0319166001600160a01b038416908117909155819061113a82610a65565b6001600160a01b03167f8c5be1e5ebec7d5bd14f71427d1e84f3dd0314c0f7b2291e5b200ac8c7c3b92560405160405180910390a45050565b6000818152600260205260408120546001600160a01b03166111ec5760405162461bcd60e51b815260206004820152602c60248201527f4552433732313a206f70657261746f7220717565727920666f72206e6f6e657860448201526b34b9ba32b73a103a37b5b2b760a11b6064820152608401610571565b60006111f783610a65565b9050806001600160a01b0316846001600160a01b0316148061123e57506001600160a01b0380821660009081526005602090815260408083209388168352929052205460ff165b806112625750836001600160a01b0316611257846104fc565b6001600160a01b0316145b949350505050565b826001600160a01b031661127d82610a65565b6001600160a01b0316146112e15760405162461bcd60e51b815260206004820152602560248201527f4552433732313a207472616e736665722066726f6d20696e636f72726563742060448201526437bbb732b960d91b6064820152608401610571565b6001600160a01b0382166113435760405162461bcd60e51b8152602060048201526024808201527f4552433732313a207472616e7366657220746f20746865207a65726f206164646044820152637265737360e01b6064820152608401610571565b61134e838383611a10565b611359600082611105565b6001600160a01b0383166000908152600360205260408120805460019290611382908490612743565b90915550506001600160a01b03821660009081526003602052604081208054600192906113b090849061238d565b909155505060008181526002602052604080822080546001600160a01b0319166001600160a01b0386811691821790925591518493918716917fddf252ad1be2c89b69c2b068fc378daa952ba7f163c4a11628f55a4df523b3ef91a4505050565b610ebd828260405180602001604052806000815250611a1b565b6060600061143883611a4e565b604051602001611448919061275a565b60408051808303601f1901815290829052600c54631c76f9bd60e01b83526020600484015260036024840152621cd99b60ea1b60448401529092506000916001600160a01b0390911690631c76f9bd90606401600060405180830381865afa1580156114b8573d6000803e3d6000fd5b505050506040513d6000823e601f3d908101601f191682016040526114e09190810190612428565b604051630e49f2cd60e41b815273Dc64a140Aa3E981100a9becA4E685f962f0cF6C99063e49f2cd09061156d90600401604080825260049082015261042560e31b60608201526080602082018190526023908201527f77696474683d22313022206865696768743d2231302220783d2239342220793d60a082015262111a9160e91b60c082015260e00190565b600060405180830381865af415801561158a573d6000803e3d6000fd5b505050506040513d6000823e601f3d908101601f191682016040526115b29190810190612428565b60405163482eac7d60e01b815273Dc64a140Aa3E981100a9becA4E685f962f0cF6C99063482eac7d9061162590600401606080825260039082015260006080820181905260a0602083018190526004908301526308dcd99b60e21b60c083015260e0604083018190528201526101000190565b600060405180830381865af4158015611642573d6000803e3d6000fd5b505050506040513d6000823e601f3d908101601f1916820160405261166a9190810190612428565b73Dc64a140Aa3E981100a9becA4E685f962f0cF6C963bba7e70c6040518163ffffffff1660e01b8152600401600060405180830381865af41580156116b3573d6000803e3d6000fd5b505050506040513d6000823e601f3d908101601f191682016040526116db9190810190612428565b6040516020016116ee94939291906125c5565b60408051601f19818403018152919052949350505050565b600b80546001600160a01b038381166001600160a01b0319831681179093556040519116919082907f8be0079c531659141344cd1fd0a4f28419497f9722a3daafe3b4186f6b6457e090600090a35050565b816001600160a01b0316836001600160a01b0316036117b95760405162461bcd60e51b815260206004820152601960248201527f4552433732313a20617070726f766520746f2063616c6c6572000000000000006044820152606401610571565b6001600160a01b03838116600081815260056020908152604080832094871680845294825291829020805460ff191686151590811790915591519182527f17307eab39ab6107e8899845ad3d59bd9653f200f220920489ca2b5937696c31910160405180910390a3505050565b61183184848461126a565b61183d84848484611b4f565b610ef35760405162461bcd60e51b815260040161057190612787565b6060815160000361187857505060408051602081019091526000815290565b600060405180606001604052806040815260200161288860409139905060006003845160026118a7919061238d565b6118b191906127ef565b6118bc9060046123a5565b905060006118cb82602061238d565b67ffffffffffffffff8111156118e3576118e361219f565b6040519080825280601f01601f19166020018201604052801561190d576020820181803683370190505b509050818152600183018586518101602084015b8183101561197b5760039283018051603f601282901c811687015160f890811b8552600c83901c8216880151811b6001860152600683901c8216880151811b60028601529116860151901b93820193909352600401611921565b60038951066001811461199557600281146119a6576119b2565b613d3d60f01b6001198301526119b2565b603d60f81b6000198301525b509398975050505050505050565b60006001600160e01b031982166380ac58cd60e01b14806119f157506001600160e01b03198216635b5e139f60e01b145b8061046457506301ffc9a760e01b6001600160e01b0319831614610464565b6106a6838383611c50565b611a258383611d08565b611a326000848484611b4f565b6106a65760405162461bcd60e51b815260040161057190612787565b606081600003611a755750506040805180820190915260018152600360fc1b602082015290565b8160005b8115611a9f5780611a89816123c4565b9150611a989050600a836127ef565b9150611a79565b60008167ffffffffffffffff811115611aba57611aba61219f565b6040519080825280601f01601f191660200182016040528015611ae4576020820181803683370190505b5090505b841561126257611af9600183612743565b9150611b06600a86612803565b611b1190603061238d565b60f81b818381518110611b2657611b26612412565b60200101906001600160f81b031916908160001a905350611b48600a866127ef565b9450611ae8565b60006001600160a01b0384163b15611c4557604051630a85bd0160e11b81526001600160a01b0385169063150b7a0290611b93903390899088908890600401612817565b6020604051808303816000875af1925050508015611bce575060408051601f3d908101601f19168201909252611bcb91810190612854565b60015b611c2b573d808015611bfc576040519150601f19603f3d011682016040523d82523d6000602084013e611c01565b606091505b508051600003611c235760405162461bcd60e51b815260040161057190612787565b805181602001fd5b6001600160e01b031916630a85bd0160e11b149050611262565b506001949350505050565b6001600160a01b038316611cab57611ca681600980546000838152600a60205260408120829055600182018355919091527f6e1540171b6c0c960b71a7020d9f60077f6af931a8bbf590da0223dacf75c7af0155565b611cce565b816001600160a01b0316836001600160a01b031614611cce57611cce8382611e56565b6001600160a01b038216611ce5576106a681611ef3565b826001600160a01b0316826001600160a01b0316146106a6576106a68282611fa2565b6001600160a01b038216611d5e5760405162461bcd60e51b815260206004820181905260248201527f4552433732313a206d696e7420746f20746865207a65726f20616464726573736044820152606401610571565b6000818152600260205260409020546001600160a01b031615611dc35760405162461bcd60e51b815260206004820152601c60248201527f4552433732313a20746f6b656e20616c7265616479206d696e746564000000006044820152606401610571565b611dcf60008383611a10565b6001600160a01b0382166000908152600360205260408120805460019290611df890849061238d565b909155505060008181526002602052604080822080546001600160a01b0319166001600160a01b03861690811790915590518392907fddf252ad1be2c89b69c2b068fc378daa952ba7f163c4a11628f55a4df523b3ef908290a45050565b60006001611e6384610de6565b611e6d9190612743565b600083815260086020526040902054909150808214611ec0576001600160a01b03841660009081526007602090815260408083208584528252808320548484528184208190558352600890915290208190555b5060009182526008602090815260408084208490556001600160a01b039094168352600781528383209183525290812055565b600954600090611f0590600190612743565b6000838152600a602052604081205460098054939450909284908110611f2d57611f2d612412565b906000526020600020015490508060098381548110611f4e57611f4e612412565b6000918252602080832090910192909255828152600a90915260408082208490558582528120556009805480611f8657611f86612871565b6001900381819060005260206000200160009055905550505050565b6000611fad83610de6565b6001600160a01b039093166000908152600760209081526040808320868452825280832085905593825260089052919091209190915550565b6001600160e01b0319811681146109b457600080fd5b60006020828403121561200e57600080fd5b813561201981611fe6565b9392505050565b60005b8381101561203b578181015183820152602001612023565b83811115610ef35750506000910152565b60008151808452612064816020860160208601612020565b601f01601f19169290920160200192915050565b602081526000612019602083018461204c565b60006020828403121561209d57600080fd5b5035919050565b80356001600160a01b03811681146120bb57600080fd5b919050565b600080604083850312156120d357600080fd5b6120dc836120a4565b946020939093013593505050565b6000806000606084860312156120ff57600080fd5b612108846120a4565b9250612116602085016120a4565b9150604084013590509250925092565b6000806040838503121561213957600080fd5b50508035926020909101359150565b60006020828403121561215a57600080fd5b612019826120a4565b6000806040838503121561217657600080fd5b61217f836120a4565b91506020830135801515811461219457600080fd5b809150509250929050565b634e487b7160e01b600052604160045260246000fd5b604051601f8201601f1916810167ffffffffffffffff811182821017156121de576121de61219f565b604052919050565b600067ffffffffffffffff8211156122005761220061219f565b50601f01601f191660200190565b6000806000806080858703121561222457600080fd5b61222d856120a4565b935061223b602086016120a4565b925060408501359150606085013567ffffffffffffffff81111561225e57600080fd5b8501601f8101871361226f57600080fd5b803561228261227d826121e6565b6121b5565b81815288602083850101111561229757600080fd5b8160208401602083013760006020838301015280935050505092959194509250565b600080604083850312156122cc57600080fd5b6122d5836120a4565b91506122e3602084016120a4565b90509250929050565b600181811c9082168061230057607f821691505b60208210810361232057634e487b7160e01b600052602260045260246000fd5b50919050565b60208082526031908201527f4552433732313a207472616e736665722063616c6c6572206973206e6f74206f6040820152701ddb995c881b9bdc88185c1c1c9bdd9959607a1b606082015260800190565b634e487b7160e01b600052601160045260246000fd5b600082198211156123a0576123a0612377565b500190565b60008160001904831182151516156123bf576123bf612377565b500290565b6000600182016123d6576123d6612377565b5060010190565b6020808252818101527f4f776e61626c653a2063616c6c6572206973206e6f7420746865206f776e6572604082015260600190565b634e487b7160e01b600052603260045260246000fd5b60006020828403121561243a57600080fd5b815167ffffffffffffffff81111561245157600080fd5b8201601f8101841361246257600080fd5b805161247061227d826121e6565b81815285602083850101111561248557600080fd5b612496826020830160208601612020565b95945050505050565b6060815260006124b2606083018461204c565b828103806020850152604682527f6865696768743d2234303022207374796c653d22666f6e742d66616d696c793a60208301527f73616e733b666f6e742d73697a653a3470783b746578742d616e63686f723a6d60408301526534b23236329160d11b606083015260808101604085015250601260808201527134b21e913932b1ba21339110393c1e91199160711b60a082015260c0810191505092915050565b6020815260ff825116602082015260ff60208301511660408201526000604083015160a0606084015261258960c084018261204c565b90506060840151601f19808584030160808601526125a7838361204c565b925060808601519150808584030160a086015250612496828261204c565b600085516125d7818460208a01612020565b8551908301906125eb818360208a01612020565b85519101906125fe818360208901612020565b8451910190612611818360208801612020565b019695505050505050565b7f646174613a696d6167652f7376672b786d6c3b6261736536342c00000000000081526000825161265481601a850160208701612020565b91909101601a0192915050565b683d913730b6b2911d1160b91b81528351600090612686816009850160208901612020565b6d1116101139b2b93b34b1b2911d1160911b60099184019182015284516126b4816017840160208901612020565b6c1116101134b6b0b3b2911d101160991b6017929091019182015283516126e2816024840160208801612020565b61227d60f01b6024929091019182015260260195945050505050565b7f646174613a6170706c69636174696f6e2f6a736f6e3b6261736536342c00000081526000825161273681601d850160208701612020565b91909101601d0192915050565b60008282101561275557612755612377565b500390565b64706f6f6c7960d81b81526000825161277a816005850160208701612020565b9190910160050192915050565b60208082526032908201527f4552433732313a207472616e7366657220746f206e6f6e20455243373231526560408201527131b2b4bb32b91034b6b83632b6b2b73a32b960711b606082015260800190565b634e487b7160e01b600052601260045260246000fd5b6000826127fe576127fe6127d9565b500490565b600082612812576128126127d9565b500690565b6001600160a01b038581168252841660208201526040810183905260806060820181905260009061284a9083018461204c565b9695505050505050565b60006020828403121561286657600080fd5b815161201981611fe6565b634e487b7160e01b600052603160045260246000fdfe4142434445464748494a4b4c4d4e4f505152535455565758595a6162636465666768696a6b6c6d6e6f707172737475767778797a303132333435363738392b2fa264697066735822122059a0d8111d403608bb8456b585cadb9865eaaf7e1195b394f778afd1debea00664736f6c634300080d003331ecc21a745e3968a04e9570e4425bc18fa8019c68028196b546d1669c200c68",
  "deployedBytecode": "0x6080604052600436106101445760003560e01c80636352211e116100b6578063a22cb4651161006f578063a22cb46514610370578063b88d4fde14610390578063c0e89254146103b0578063c87b56dd146103d0578063e985e9c5146103f0578063f2fde38b1461043957600080fd5b80636352211e146102c857806367ae5d98146102e857806370a0823114610308578063715018a6146103285780638da5cb5b1461033d57806395d89b411461035b57600080fd5b806323b872dd1161010857806323b872dd146102205780632a805069146102405780632f745c59146102535780633ccfd60b1461027357806342842e0e146102885780634f6ccce7146102a857600080fd5b806301ffc9a71461015057806306fdde0314610185578063081812fc146101a7578063095ea7b3146101df57806318160ddd1461020157600080fd5b3661014b57005b600080fd5b34801561015c57600080fd5b5061017061016b366004611ffc565b610459565b60405190151581526020015b60405180910390f35b34801561019157600080fd5b5061019a61046a565b60405161017c9190612078565b3480156101b357600080fd5b506101c76101c236600461208b565b6104fc565b6040516001600160a01b03909116815260200161017c565b3480156101eb57600080fd5b506101ff6101fa3660046120c0565b610596565b005b34801561020d57600080fd5b506009545b60405190815260200161017c565b34801561022c57600080fd5b506101ff61023b3660046120ea565b6106ab565b6101ff61024e366004612126565b6106dc565b34801561025f57600080fd5b5061021261026e3660046120c0565b610868565b34801561027f57600080fd5b506101ff6108fe565b34801561029457600080fd5b506101ff6102a33660046120ea565b6109b7565b3480156102b457600080fd5b506102126102c336600461208b565b6109d2565b3480156102d457600080fd5b506101c76102e336600461208b565b610a65565b3480156102f457600080fd5b5061019a61030336600461208b565b610adc565b34801561031457600080fd5b50610212610323366004612148565b610de6565b34801561033457600080fd5b506101ff610e6d565b34801561034957600080fd5b50600b546001600160a01b03166101c7565b34801561036757600080fd5b5061019a610ea3565b34801561037c57600080fd5b506101ff61038b366004612163565b610eb2565b34801561039c57600080fd5b506101ff6103ab36600461220e565b610ec1565b3480156103bc57600080fd5b5061019a6103cb36600461208b565b610ef9565b3480156103dc57600080fd5b5061019a6103eb36600461208b565b610f32565b3480156103fc57600080fd5b5061017061040b3660046122b9565b6001600160a01b03918216600090815260056020908152604080832093909416825291909152205460ff1690565b34801561044557600080fd5b506101ff610454366004612148565b611048565b6000610464826110e0565b92915050565b606060008054610479906122ec565b80601f01602080910402602001604051908101604052809291908181526020018280546104a5906122ec565b80156104f25780601f106104c7576101008083540402835291602001916104f2565b820191906000526020600020905b8154815290600101906020018083116104d557829003601f168201915b5050505050905090565b6000818152600260205260408120546001600160a01b031661057a5760405162461bcd60e51b815260206004820152602c60248201527f4552433732313a20617070726f76656420717565727920666f72206e6f6e657860448201526b34b9ba32b73a103a37b5b2b760a11b60648201526084015b60405180910390fd5b506000908152600460205260409020546001600160a01b031690565b60006105a182610a65565b9050806001600160a01b0316836001600160a01b03160361060e5760405162461bcd60e51b815260206004820152602160248201527f4552433732313a20617070726f76616c20746f2063757272656e74206f776e656044820152603960f91b6064820152608401610571565b336001600160a01b038216148061062a575061062a813361040b565b61069c5760405162461bcd60e51b815260206004820152603860248201527f4552433732313a20617070726f76652063616c6c6572206973206e6f74206f7760448201527f6e6572206e6f7220617070726f76656420666f7220616c6c00000000000000006064820152608401610571565b6106a68383611105565b505050565b6106b53382611173565b6106d15760405162461bcd60e51b815260040161057190612326565b6106a683838361126a565b816106e660125490565b6106f0919061238d565b61c350116107345760405162461bcd60e51b8152602060048201526011602482015270457863656564206d617820737570706c7960781b6044820152606401610571565b6002811061077a5760405162461bcd60e51b815260206004820152601360248201527274797065206d7573742062652030206f72203160681b6044820152606401610571565b3461078d678ac7230489e80000846123a5565b146107da5760405162461bcd60e51b815260206004820152601b60248201527f457468657220616d6f756e74206973206e6f7420636f727265637400000000006044820152606401610571565b60005b828110156106a65760006107f060125490565b90506107fc3382611411565b60008181526010602052604090819020849055517f6de139b9d7795964579b56debad708bb40c5588bdd00381459787f834a156eec9061083f9083815260200190565b60405180910390a1610855601280546001019055565b5080610860816123c4565b9150506107dd565b600061087383610de6565b82106108d55760405162461bcd60e51b815260206004820152602b60248201527f455243373231456e756d657261626c653a206f776e657220696e646578206f7560448201526a74206f6620626f756e647360a81b6064820152608401610571565b506001600160a01b03919091166000908152600760209081526040808320938352929052205490565b600b546001600160a01b031633146109285760405162461bcd60e51b8152600401610571906123dd565b604051600090339047908381818185875af1925050503d806000811461096a576040519150601f19603f3d011682016040523d82523d6000602084013e61096f565b606091505b50509050806109b45760405162461bcd60e51b815260206004820152601160248201527015da5d1a191c985dd85b0819985a5b1959607a1b6044820152606401610571565b50565b6106a683838360405180602001604052806000815250610ec1565b60006109dd60095490565b8210610a405760405162461bcd60e51b815260206004820152602c60248201527f455243373231456e756d657261626c653a20676c6f62616c20696e646578206f60448201526b7574206f6620626f756e647360a01b6064820152608401610571565b60098281548110610a5357610a53612412565b90600052602060002001549050919050565b6000818152600260205260408120546001600160a01b0316806104645760405162461bcd60e51b815260206004820152602960248201527f4552433732313a206f776e657220717565727920666f72206e6f6e657869737460448201526832b73a103a37b5b2b760b91b6064820152608401610571565b6040805160a081018252600080825260056020808401919091528351808501855260078152662372656374426760c81b8183015283850152600d549351630b01875760e41b81526004810191909152600a60248201526947686f7374576869746560b01b6044820152606093849391848301916001600160a01b03169063b018757090606401600060405180830381865afa158015610b7f573d6000803e3d6000fd5b505050506040513d6000823e601f3d908101601f19168201604052610ba79190810190612428565b8152600d54604051630b01875760e41b8152602060048083018290526024830152634e61767960e01b6044830152909201916001600160a01b039091169063b018757090606401600060405180830381865afa158015610c0b573d6000803e3d6000fd5b505050506040513d6000823e601f3d908101601f19168201604052610c339190810190612428565b90529050610c408461142b565b600d546040805180820182526004808252610dd160e31b60208301529151620135df60e81b81529395506001600160a01b0390921692630135df0092610c889290910161249f565b600060405180830381865afa158015610ca5573d6000803e3d6000fd5b505050506040513d6000823e601f3d908101601f19168201604052610ccd9190810190612428565b60405163f43d49a360e01b815273__$72447f1b2f145aca09ac0141c77e8da5f9$__9063f43d49a390610d04908590600401612553565b600060405180830381865af4158015610d21573d6000803e3d6000fd5b505050506040513d6000823e601f3d908101601f19168201604052610d499190810190612428565b8373__$72447f1b2f145aca09ac0141c77e8da5f9$__63bba7e70c6040518163ffffffff1660e01b8152600401600060405180830381865af4158015610d93573d6000803e3d6000fd5b505050506040513d6000823e601f3d908101601f19168201604052610dbb9190810190612428565b604051602001610dce94939291906125c5565b60405160208183030381529060405292505050919050565b60006001600160a01b038216610e515760405162461bcd60e51b815260206004820152602a60248201527f4552433732313a2062616c616e636520717565727920666f7220746865207a65604482015269726f206164647265737360b01b6064820152608401610571565b506001600160a01b031660009081526003602052604090205490565b600b546001600160a01b03163314610e975760405162461bcd60e51b8152600401610571906123dd565b610ea16000611706565b565b606060018054610479906122ec565b610ebd338383611758565b5050565b610ecb3383611173565b610ee75760405162461bcd60e51b815260040161057190612326565b610ef384848484611826565b50505050565b6060610f0c610f0783610adc565b611859565b604051602001610f1c919061261c565b6040516020818303038152906040529050919050565b6000818152600260205260409020546060906001600160a01b0316610f8b5760405162461bcd60e51b815260206004820152600f60248201526e155b9adb9bdddb881d1bdad95b9259608a1b6044820152606401610571565b60008281526010602052604081205460609103610fc9575060408051808201909152600a81526914dd5c195c919b1d5a5960b21b6020820152610fe6565b506040805180820190915260048152634161766560e01b60208201525b611021610ff161046a565b82610ffb86610ef9565b60405160200161100d93929190612661565b604051602081830303815290604052611859565b60405160200161103191906126fe565b604051602081830303815290604052915050919050565b600b546001600160a01b031633146110725760405162461bcd60e51b8152600401610571906123dd565b6001600160a01b0381166110d75760405162461bcd60e51b815260206004820152602660248201527f4f776e61626c653a206e6577206f776e657220697320746865207a65726f206160448201526564647265737360d01b6064820152608401610571565b6109b481611706565b60006001600160e01b0319821663780e9d6360e01b14806104645750610464826119c0565b600081815260046020526040902080546001600160a01b0319166001600160a01b038416908117909155819061113a82610a65565b6001600160a01b03167f8c5be1e5ebec7d5bd14f71427d1e84f3dd0314c0f7b2291e5b200ac8c7c3b92560405160405180910390a45050565b6000818152600260205260408120546001600160a01b03166111ec5760405162461bcd60e51b815260206004820152602c60248201527f4552433732313a206f70657261746f7220717565727920666f72206e6f6e657860448201526b34b9ba32b73a103a37b5b2b760a11b6064820152608401610571565b60006111f783610a65565b9050806001600160a01b0316846001600160a01b0316148061123e57506001600160a01b0380821660009081526005602090815260408083209388168352929052205460ff165b806112625750836001600160a01b0316611257846104fc565b6001600160a01b0316145b949350505050565b826001600160a01b031661127d82610a65565b6001600160a01b0316146112e15760405162461bcd60e51b815260206004820152602560248201527f4552433732313a207472616e736665722066726f6d20696e636f72726563742060448201526437bbb732b960d91b6064820152608401610571565b6001600160a01b0382166113435760405162461bcd60e51b8152602060048201526024808201527f4552433732313a207472616e7366657220746f20746865207a65726f206164646044820152637265737360e01b6064820152608401610571565b61134e838383611a10565b611359600082611105565b6001600160a01b0383166000908152600360205260408120805460019290611382908490612743565b90915550506001600160a01b03821660009081526003602052604081208054600192906113b090849061238d565b909155505060008181526002602052604080822080546001600160a01b0319166001600160a01b0386811691821790925591518493918716917fddf252ad1be2c89b69c2b068fc378daa952ba7f163c4a11628f55a4df523b3ef91a4505050565b610ebd828260405180602001604052806000815250611a1b565b6060600061143883611a4e565b604051602001611448919061275a565b60408051808303601f1901815290829052600c54631c76f9bd60e01b83526020600484015260036024840152621cd99b60ea1b60448401529092506000916001600160a01b0390911690631c76f9bd90606401600060405180830381865afa1580156114b8573d6000803e3d6000fd5b505050506040513d6000823e601f3d908101601f191682016040526114e09190810190612428565b604051630e49f2cd60e41b815273__$72447f1b2f145aca09ac0141c77e8da5f9$__9063e49f2cd09061156d90600401604080825260049082015261042560e31b60608201526080602082018190526023908201527f77696474683d22313022206865696768743d2231302220783d2239342220793d60a082015262111a9160e91b60c082015260e00190565b600060405180830381865af415801561158a573d6000803e3d6000fd5b505050506040513d6000823e601f3d908101601f191682016040526115b29190810190612428565b60405163482eac7d60e01b815273__$72447f1b2f145aca09ac0141c77e8da5f9$__9063482eac7d9061162590600401606080825260039082015260006080820181905260a0602083018190526004908301526308dcd99b60e21b60c083015260e0604083018190528201526101000190565b600060405180830381865af4158015611642573d6000803e3d6000fd5b505050506040513d6000823e601f3d908101601f1916820160405261166a9190810190612428565b73__$72447f1b2f145aca09ac0141c77e8da5f9$__63bba7e70c6040518163ffffffff1660e01b8152600401600060405180830381865af41580156116b3573d6000803e3d6000fd5b505050506040513d6000823e601f3d908101601f191682016040526116db9190810190612428565b6040516020016116ee94939291906125c5565b60408051601f19818403018152919052949350505050565b600b80546001600160a01b038381166001600160a01b0319831681179093556040519116919082907f8be0079c531659141344cd1fd0a4f28419497f9722a3daafe3b4186f6b6457e090600090a35050565b816001600160a01b0316836001600160a01b0316036117b95760405162461bcd60e51b815260206004820152601960248201527f4552433732313a20617070726f766520746f2063616c6c6572000000000000006044820152606401610571565b6001600160a01b03838116600081815260056020908152604080832094871680845294825291829020805460ff191686151590811790915591519182527f17307eab39ab6107e8899845ad3d59bd9653f200f220920489ca2b5937696c31910160405180910390a3505050565b61183184848461126a565b61183d84848484611b4f565b610ef35760405162461bcd60e51b815260040161057190612787565b6060815160000361187857505060408051602081019091526000815290565b600060405180606001604052806040815260200161288860409139905060006003845160026118a7919061238d565b6118b191906127ef565b6118bc9060046123a5565b905060006118cb82602061238d565b67ffffffffffffffff8111156118e3576118e361219f565b6040519080825280601f01601f19166020018201604052801561190d576020820181803683370190505b509050818152600183018586518101602084015b8183101561197b5760039283018051603f601282901c811687015160f890811b8552600c83901c8216880151811b6001860152600683901c8216880151811b60028601529116860151901b93820193909352600401611921565b60038951066001811461199557600281146119a6576119b2565b613d3d60f01b6001198301526119b2565b603d60f81b6000198301525b509398975050505050505050565b60006001600160e01b031982166380ac58cd60e01b14806119f157506001600160e01b03198216635b5e139f60e01b145b8061046457506301ffc9a760e01b6001600160e01b0319831614610464565b6106a6838383611c50565b611a258383611d08565b611a326000848484611b4f565b6106a65760405162461bcd60e51b815260040161057190612787565b606081600003611a755750506040805180820190915260018152600360fc1b602082015290565b8160005b8115611a9f5780611a89816123c4565b9150611a989050600a836127ef565b9150611a79565b60008167ffffffffffffffff811115611aba57611aba61219f565b6040519080825280601f01601f191660200182016040528015611ae4576020820181803683370190505b5090505b841561126257611af9600183612743565b9150611b06600a86612803565b611b1190603061238d565b60f81b818381518110611b2657611b26612412565b60200101906001600160f81b031916908160001a905350611b48600a866127ef565b9450611ae8565b60006001600160a01b0384163b15611c4557604051630a85bd0160e11b81526001600160a01b0385169063150b7a0290611b93903390899088908890600401612817565b6020604051808303816000875af1925050508015611bce575060408051601f3d908101601f19168201909252611bcb91810190612854565b60015b611c2b573d808015611bfc576040519150601f19603f3d011682016040523d82523d6000602084013e611c01565b606091505b508051600003611c235760405162461bcd60e51b815260040161057190612787565b805181602001fd5b6001600160e01b031916630a85bd0160e11b149050611262565b506001949350505050565b6001600160a01b038316611cab57611ca681600980546000838152600a60205260408120829055600182018355919091527f6e1540171b6c0c960b71a7020d9f60077f6af931a8bbf590da0223dacf75c7af0155565b611cce565b816001600160a01b0316836001600160a01b031614611cce57611cce8382611e56565b6001600160a01b038216611ce5576106a681611ef3565b826001600160a01b0316826001600160a01b0316146106a6576106a68282611fa2565b6001600160a01b038216611d5e5760405162461bcd60e51b815260206004820181905260248201527f4552433732313a206d696e7420746f20746865207a65726f20616464726573736044820152606401610571565b6000818152600260205260409020546001600160a01b031615611dc35760405162461bcd60e51b815260206004820152601c60248201527f4552433732313a20746f6b656e20616c7265616479206d696e746564000000006044820152606401610571565b611dcf60008383611a10565b6001600160a01b0382166000908152600360205260408120805460019290611df890849061238d565b909155505060008181526002602052604080822080546001600160a01b0319166001600160a01b03861690811790915590518392907fddf252ad1be2c89b69c2b068fc378daa952ba7f163c4a11628f55a4df523b3ef908290a45050565b60006001611e6384610de6565b611e6d9190612743565b600083815260086020526040902054909150808214611ec0576001600160a01b03841660009081526007602090815260408083208584528252808320548484528184208190558352600890915290208190555b5060009182526008602090815260408084208490556001600160a01b039094168352600781528383209183525290812055565b600954600090611f0590600190612743565b6000838152600a602052604081205460098054939450909284908110611f2d57611f2d612412565b906000526020600020015490508060098381548110611f4e57611f4e612412565b6000918252602080832090910192909255828152600a90915260408082208490558582528120556009805480611f8657611f86612871565b6001900381819060005260206000200160009055905550505050565b6000611fad83610de6565b6001600160a01b039093166000908152600760209081526040808320868452825280832085905593825260089052919091209190915550565b6001600160e01b0319811681146109b457600080fd5b60006020828403121561200e57600080fd5b813561201981611fe6565b9392505050565b60005b8381101561203b578181015183820152602001612023565b83811115610ef35750506000910152565b60008151808452612064816020860160208601612020565b601f01601f19169290920160200192915050565b602081526000612019602083018461204c565b60006020828403121561209d57600080fd5b5035919050565b80356001600160a01b03811681146120bb57600080fd5b919050565b600080604083850312156120d357600080fd5b6120dc836120a4565b946020939093013593505050565b6000806000606084860312156120ff57600080fd5b612108846120a4565b9250612116602085016120a4565b9150604084013590509250925092565b6000806040838503121561213957600080fd5b50508035926020909101359150565b60006020828403121561215a57600080fd5b612019826120a4565b6000806040838503121561217657600080fd5b61217f836120a4565b91506020830135801515811461219457600080fd5b809150509250929050565b634e487b7160e01b600052604160045260246000fd5b604051601f8201601f1916810167ffffffffffffffff811182821017156121de576121de61219f565b604052919050565b600067ffffffffffffffff8211156122005761220061219f565b50601f01601f191660200190565b6000806000806080858703121561222457600080fd5b61222d856120a4565b935061223b602086016120a4565b925060408501359150606085013567ffffffffffffffff81111561225e57600080fd5b8501601f8101871361226f57600080fd5b803561228261227d826121e6565b6121b5565b81815288602083850101111561229757600080fd5b8160208401602083013760006020838301015280935050505092959194509250565b600080604083850312156122cc57600080fd5b6122d5836120a4565b91506122e3602084016120a4565b90509250929050565b600181811c9082168061230057607f821691505b60208210810361232057634e487b7160e01b600052602260045260246000fd5b50919050565b60208082526031908201527f4552433732313a207472616e736665722063616c6c6572206973206e6f74206f6040820152701ddb995c881b9bdc88185c1c1c9bdd9959607a1b606082015260800190565b634e487b7160e01b600052601160045260246000fd5b600082198211156123a0576123a0612377565b500190565b60008160001904831182151516156123bf576123bf612377565b500290565b6000600182016123d6576123d6612377565b5060010190565b6020808252818101527f4f776e61626c653a2063616c6c6572206973206e6f7420746865206f776e6572604082015260600190565b634e487b7160e01b600052603260045260246000fd5b60006020828403121561243a57600080fd5b815167ffffffffffffffff81111561245157600080fd5b8201601f8101841361246257600080fd5b805161247061227d826121e6565b81815285602083850101111561248557600080fd5b612496826020830160208601612020565b95945050505050565b6060815260006124b2606083018461204c565b828103806020850152604682527f6865696768743d2234303022207374796c653d22666f6e742d66616d696c793a60208301527f73616e733b666f6e742d73697a653a3470783b746578742d616e63686f723a6d60408301526534b23236329160d11b606083015260808101604085015250601260808201527134b21e913932b1ba21339110393c1e91199160711b60a082015260c0810191505092915050565b6020815260ff825116602082015260ff60208301511660408201526000604083015160a0606084015261258960c084018261204c565b90506060840151601f19808584030160808601526125a7838361204c565b925060808601519150808584030160a086015250612496828261204c565b600085516125d7818460208a01612020565b8551908301906125eb818360208a01612020565b85519101906125fe818360208901612020565b8451910190612611818360208801612020565b019695505050505050565b7f646174613a696d6167652f7376672b786d6c3b6261736536342c00000000000081526000825161265481601a850160208701612020565b91909101601a0192915050565b683d913730b6b2911d1160b91b81528351600090612686816009850160208901612020565b6d1116101139b2b93b34b1b2911d1160911b60099184019182015284516126b4816017840160208901612020565b6c1116101134b6b0b3b2911d101160991b6017929091019182015283516126e2816024840160208801612020565b61227d60f01b6024929091019182015260260195945050505050565b7f646174613a6170706c69636174696f6e2f6a736f6e3b6261736536342c00000081526000825161273681601d850160208701612020565b91909101601d0192915050565b60008282101561275557612755612377565b500390565b64706f6f6c7960d81b81526000825161277a816005850160208701612020565b9190910160050192915050565b60208082526032908201527f4552433732313a207472616e7366657220746f206e6f6e20455243373231526560408201527131b2b4bb32b91034b6b83632b6b2b73a32b960711b606082015260800190565b634e487b7160e01b600052601260045260246000fd5b6000826127fe576127fe6127d9565b500490565b600082612812576128126127d9565b500690565b6001600160a01b038581168252841660208201526040810183905260806060820181905260009061284a9083018461204c565b9695505050505050565b60006020828403121561286657600080fd5b815161201981611fe6565b634e487b7160e01b600052603160045260246000fdfe4142434445464748494a4b4c4d4e4f505152535455565758595a6162636465666768696a6b6c6d6e6f707172737475767778797a303132333435363738392b2fa264697066735822122059a0d8111d403608bb8456b585cadb9865eaaf7e1195b394f778afd1debea00664736f6c634300080d0033",
  "libraries": {
    "SvgCore": "0xDc64a140Aa3E981100a9becA4E685f962f0cF6C9"
  },
  "devdoc": {
    "kind": "dev",
    "methods": {
      "approve(address,uint256)": {
        "details": "See {IERC721-approve}."
      },
      "balanceOf(address)": {
        "details": "See {IERC721-balanceOf}."
      },
      "getApproved(uint256)": {
        "details": "See {IERC721-getApproved}."
      },
      "isApprovedForAll(address,address)": {
        "details": "See {IERC721-isApprovedForAll}."
      },
      "name()": {
        "details": "See {IERC721Metadata-name}."
      },
      "owner()": {
        "details": "Returns the address of the current owner."
      },
      "ownerOf(uint256)": {
        "details": "See {IERC721-ownerOf}."
      },
      "renounceOwnership()": {
        "details": "Leaves the contract without owner. It will not be possible to call `onlyOwner` functions anymore. Can only be called by the current owner. NOTE: Renouncing ownership will leave the contract without an owner, thereby removing any functionality that is only available to the owner."
      },
      "safeTransferFrom(address,address,uint256)": {
        "details": "See {IERC721-safeTransferFrom}."
      },
      "safeTransferFrom(address,address,uint256,bytes)": {
        "details": "See {IERC721-safeTransferFrom}."
      },
      "setApprovalForAll(address,bool)": {
        "details": "See {IERC721-setApprovalForAll}."
      },
      "symbol()": {
        "details": "See {IERC721Metadata-symbol}."
      },
      "tokenByIndex(uint256)": {
        "details": "See {IERC721Enumerable-tokenByIndex}."
      },
      "tokenOfOwnerByIndex(address,uint256)": {
        "details": "See {IERC721Enumerable-tokenOfOwnerByIndex}."
      },
      "totalSupply()": {
        "details": "See {IERC721Enumerable-totalSupply}."
      },
      "transferFrom(address,address,uint256)": {
        "details": "See {IERC721-transferFrom}."
      },
      "transferOwnership(address)": {
        "details": "Transfers ownership of the contract to a new account (`newOwner`). Can only be called by the current owner."
      }
    },
    "version": 1
  },
  "userdoc": {
    "kind": "user",
    "methods": {},
    "version": 1
  },
  "storageLayout": {
    "storage": [
      {
        "astId": 838,
        "contract": "contracts/Indicators.sol:Indicators",
        "label": "_name",
        "offset": 0,
        "slot": "0",
        "type": "t_string_storage"
      },
      {
        "astId": 840,
        "contract": "contracts/Indicators.sol:Indicators",
        "label": "_symbol",
        "offset": 0,
        "slot": "1",
        "type": "t_string_storage"
      },
      {
        "astId": 844,
        "contract": "contracts/Indicators.sol:Indicators",
        "label": "_owners",
        "offset": 0,
        "slot": "2",
        "type": "t_mapping(t_uint256,t_address)"
      },
      {
        "astId": 848,
        "contract": "contracts/Indicators.sol:Indicators",
        "label": "_balances",
        "offset": 0,
        "slot": "3",
        "type": "t_mapping(t_address,t_uint256)"
      },
      {
        "astId": 852,
        "contract": "contracts/Indicators.sol:Indicators",
        "label": "_tokenApprovals",
        "offset": 0,
        "slot": "4",
        "type": "t_mapping(t_uint256,t_address)"
      },
      {
        "astId": 858,
        "contract": "contracts/Indicators.sol:Indicators",
        "label": "_operatorApprovals",
        "offset": 0,
        "slot": "5",
        "type": "t_mapping(t_address,t_mapping(t_address,t_bool))"
      },
      {
        "astId": 2209,
        "contract": "contracts/Indicators.sol:Indicators",
        "label": "_tokenURIs",
        "offset": 0,
        "slot": "6",
        "type": "t_mapping(t_uint256,t_string_storage)"
      },
      {
        "astId": 1827,
        "contract": "contracts/Indicators.sol:Indicators",
        "label": "_ownedTokens",
        "offset": 0,
        "slot": "7",
        "type": "t_mapping(t_address,t_mapping(t_uint256,t_uint256))"
      },
      {
        "astId": 1831,
        "contract": "contracts/Indicators.sol:Indicators",
        "label": "_ownedTokensIndex",
        "offset": 0,
        "slot": "8",
        "type": "t_mapping(t_uint256,t_uint256)"
      },
      {
        "astId": 1834,
        "contract": "contracts/Indicators.sol:Indicators",
        "label": "_allTokens",
        "offset": 0,
        "slot": "9",
        "type": "t_array(t_uint256)dyn_storage"
      },
      {
        "astId": 1838,
        "contract": "contracts/Indicators.sol:Indicators",
        "label": "_allTokensIndex",
        "offset": 0,
        "slot": "10",
        "type": "t_mapping(t_uint256,t_uint256)"
      },
      {
        "astId": 7,
        "contract": "contracts/Indicators.sol:Indicators",
        "label": "_owner",
        "offset": 0,
        "slot": "11",
        "type": "t_address"
      },
      {
        "astId": 7265,
        "contract": "contracts/Indicators.sol:Indicators",
        "label": "svgWidgets",
        "offset": 0,
        "slot": "12",
        "type": "t_contract(ISvgWidgets)4804"
      },
      {
        "astId": 7268,
        "contract": "contracts/Indicators.sol:Indicators",
        "label": "sTools",
        "offset": 0,
        "slot": "13",
        "type": "t_contract(ISvgTools)4716"
      },
      {
        "astId": 7271,
        "contract": "contracts/Indicators.sol:Indicators",
        "label": "sCFA",
        "offset": 0,
        "slot": "14",
        "type": "t_contract(ISCFA)7224"
      },
      {
        "astId": 7274,
        "contract": "contracts/Indicators.sol:Indicators",
        "label": "sALP",
        "offset": 0,
        "slot": "15",
        "type": "t_contract(IAaveLP)7250"
      },
      {
        "astId": 7278,
        "contract": "contracts/Indicators.sol:Indicators",
        "label": "idToService",
        "offset": 0,
        "slot": "16",
        "type": "t_mapping(t_uint256,t_uint256)"
      },
      {
        "astId": 7287,
        "contract": "contracts/Indicators.sol:Indicators",
        "label": "stAddress",
        "offset": 0,
        "slot": "17",
        "type": "t_array(t_struct(STAddresss)7283_storage)dyn_storage"
      },
      {
        "astId": 7312,
        "contract": "contracts/Indicators.sol:Indicators",
        "label": "_tokenIdCounter",
        "offset": 0,
        "slot": "18",
        "type": "t_struct(Counter)2903_storage"
      }
    ],
    "types": {
      "t_address": {
        "encoding": "inplace",
        "label": "address",
        "numberOfBytes": "20"
      },
      "t_array(t_struct(STAddresss)7283_storage)dyn_storage": {
        "base": "t_struct(STAddresss)7283_storage",
        "encoding": "dynamic_array",
        "label": "struct Indicators.STAddresss[]",
        "numberOfBytes": "32"
      },
      "t_array(t_uint256)dyn_storage": {
        "base": "t_uint256",
        "encoding": "dynamic_array",
        "label": "uint256[]",
        "numberOfBytes": "32"
      },
      "t_bool": {
        "encoding": "inplace",
        "label": "bool",
        "numberOfBytes": "1"
      },
      "t_bytes_storage": {
        "encoding": "bytes",
        "label": "bytes",
        "numberOfBytes": "32"
      },
      "t_contract(IAaveLP)7250": {
        "encoding": "inplace",
        "label": "contract IAaveLP",
        "numberOfBytes": "20"
      },
      "t_contract(ISCFA)7224": {
        "encoding": "inplace",
        "label": "contract ISCFA",
        "numberOfBytes": "20"
      },
      "t_contract(ISvgTools)4716": {
        "encoding": "inplace",
        "label": "contract ISvgTools",
        "numberOfBytes": "20"
      },
      "t_contract(ISvgWidgets)4804": {
        "encoding": "inplace",
        "label": "contract ISvgWidgets",
        "numberOfBytes": "20"
      },
      "t_mapping(t_address,t_bool)": {
        "encoding": "mapping",
        "key": "t_address",
        "label": "mapping(address => bool)",
        "numberOfBytes": "32",
        "value": "t_bool"
      },
      "t_mapping(t_address,t_mapping(t_address,t_bool))": {
        "encoding": "mapping",
        "key": "t_address",
        "label": "mapping(address => mapping(address => bool))",
        "numberOfBytes": "32",
        "value": "t_mapping(t_address,t_bool)"
      },
      "t_mapping(t_address,t_mapping(t_uint256,t_uint256))": {
        "encoding": "mapping",
        "key": "t_address",
        "label": "mapping(address => mapping(uint256 => uint256))",
        "numberOfBytes": "32",
        "value": "t_mapping(t_uint256,t_uint256)"
      },
      "t_mapping(t_address,t_uint256)": {
        "encoding": "mapping",
        "key": "t_address",
        "label": "mapping(address => uint256)",
        "numberOfBytes": "32",
        "value": "t_uint256"
      },
      "t_mapping(t_uint256,t_address)": {
        "encoding": "mapping",
        "key": "t_uint256",
        "label": "mapping(uint256 => address)",
        "numberOfBytes": "32",
        "value": "t_address"
      },
      "t_mapping(t_uint256,t_string_storage)": {
        "encoding": "mapping",
        "key": "t_uint256",
        "label": "mapping(uint256 => string)",
        "numberOfBytes": "32",
        "value": "t_string_storage"
      },
      "t_mapping(t_uint256,t_uint256)": {
        "encoding": "mapping",
        "key": "t_uint256",
        "label": "mapping(uint256 => uint256)",
        "numberOfBytes": "32",
        "value": "t_uint256"
      },
      "t_string_storage": {
        "encoding": "bytes",
        "label": "string",
        "numberOfBytes": "32"
      },
      "t_struct(Counter)2903_storage": {
        "encoding": "inplace",
        "label": "struct Counters.Counter",
        "members": [
          {
            "astId": 2902,
            "contract": "contracts/Indicators.sol:Indicators",
            "label": "_value",
            "offset": 0,
            "slot": "0",
            "type": "t_uint256"
          }
        ],
        "numberOfBytes": "32"
      },
      "t_struct(STAddresss)7283_storage": {
        "encoding": "inplace",
        "label": "struct Indicators.STAddresss",
        "members": [
          {
            "astId": 7280,
            "contract": "contracts/Indicators.sol:Indicators",
            "label": "stName",
            "offset": 0,
            "slot": "0",
            "type": "t_bytes_storage"
          },
          {
            "astId": 7282,
            "contract": "contracts/Indicators.sol:Indicators",
            "label": "addr",
            "offset": 0,
            "slot": "1",
            "type": "t_address"
          }
        ],
        "numberOfBytes": "64"
      },
      "t_uint256": {
        "encoding": "inplace",
        "label": "uint256",
        "numberOfBytes": "32"
      }
    }
  }
}