{
  "address": "0x9fE46736679d2D9a65F0992F2272dE9f3c7fa6e0",
  "abi": [
    {
      "inputs": [
        {
          "internalType": "contract ERC20",
          "name": "_token",
          "type": "address"
        },
        {
          "internalType": "contract SVGColor",
          "name": "_svgColor",
          "type": "address"
        }
      ],
      "stateMutability": "nonpayable",
      "type": "constructor"
    },
    {
      "inputs": [],
      "name": "example",
      "outputs": [
        {
          "internalType": "string",
          "name": "",
          "type": "string"
        }
      ],
      "stateMutability": "view",
      "type": "function"
    },
    {
      "inputs": [
        {
          "internalType": "uint256",
          "name": "id",
          "type": "uint256"
        }
      ],
      "name": "generate",
      "outputs": [
        {
          "internalType": "string",
          "name": "",
          "type": "string"
        }
      ],
      "stateMutability": "pure",
      "type": "function"
    },
    {
      "inputs": [
        {
          "internalType": "uint256",
          "name": "",
          "type": "uint256"
        }
      ],
      "name": "owners",
      "outputs": [
        {
          "internalType": "address",
          "name": "",
          "type": "address"
        }
      ],
      "stateMutability": "view",
      "type": "function"
    },
    {
      "inputs": [
        {
          "internalType": "uint256",
          "name": "_tokenId",
          "type": "uint256"
        }
      ],
      "name": "render",
      "outputs": [
        {
          "internalType": "string",
          "name": "",
          "type": "string"
        }
      ],
      "stateMutability": "view",
      "type": "function"
    },
    {
      "inputs": [],
      "name": "svgColor",
      "outputs": [
        {
          "internalType": "contract SVGColor",
          "name": "",
          "type": "address"
        }
      ],
      "stateMutability": "view",
      "type": "function"
    },
    {
      "inputs": [],
      "name": "token",
      "outputs": [
        {
          "internalType": "contract ERC20",
          "name": "",
          "type": "address"
        }
      ],
      "stateMutability": "view",
      "type": "function"
    }
  ],
  "transactionHash": "0xf192437a820176ddf33f46ace8effcae5b050d222eca6dda528a9f641b45f480",
  "args": [
    "0x5FbDB2315678afecb367f032d93F642f64180aa3",
    "0xe7f1725E7734CE288F8367e1Bb143E90bb3F0512"
  ],
  "numDeployments": 1,
  "solcInputHash": "1d5a56a1078f935190c56fe6e8e932bb",
  "bytecode": "0x60806040523480156200001157600080fd5b506040516200194b3803806200194b8339810160408190526200003491620000e0565b600080546001600160a01b03199081166001600160a01b039485161782556001805482169390941692909217835560026020527fac33ff75c19e70fe83507db0d683fd3465c996598dc972688b7ace676c89077b80543390841681179091559290527fe90b7bceb6e7df5418fb78d8ee546e97c83a08bbccc01a0644d599ccd2a7c2e0805490911690911790556200011f565b6001600160a01b0381168114620000dd57600080fd5b50565b60008060408385031215620000f457600080fd5b82516200010181620000c7565b60208401519092506200011481620000c7565b809150509250929050565b61181c806200012f6000396000f3fe608060405234801561001057600080fd5b50600436106100625760003560e01c8063025e7c27146100675780634a7dd523146100ad57806354353f2f146100e75780635942fda9146100ef578063c321118c14610102578063fc0c546a14610115575b600080fd5b6100906100753660046110c5565b6002602052600090815260409020546001600160a01b031681565b6040516001600160a01b0390911681526020015b60405180910390f35b6100da6100bb3660046110c5565b506040805180820190915260048152631d195cdd60e21b602082015290565b6040516100a4919061110e565b6100da610128565b600154610090906001600160a01b031681565b6100da6101103660046110c5565b610139565b600054610090906001600160a01b031681565b60606101346001610139565b905090565b60008181526002602052604080822054825482516395d89b4160e01b815292516060946001600160a01b03938416949093909216916395d89b4191600480830192869291908290030181865afa158015610197573d6000803e3d6000fd5b505050506040513d6000823e601f3d908101601f191682016040526101bf9190810190611157565b905060008060009054906101000a90046001600160a01b03166001600160a01b03166306fdde036040518163ffffffff1660e01b8152600401600060405180830381865afa158015610215573d6000803e3d6000fd5b505050506040513d6000823e601f3d908101601f1916820160405261023d9190810190611157565b905060008060009054906101000a90046001600160a01b03166001600160a01b031663313ce5676040518163ffffffff1660e01b8152600401602060405180830381865afa158015610293573d6000803e3d6000fd5b505050506040513d601f19601f820116820180604052508101906102b79190611204565b600080546040516370a0823160e01b81526001600160a01b03888116600483015260ff949094169450919216906370a0823190602401602060405180830381865afa15801561030a573d6000803e3d6000fd5b505050506040513d601f19601f8201168201806040525081019061032e9190611227565b9050600061033d83600a61133c565b6103479083611348565b9050610351610cdd565b61060a61060561039d604051806040016040528060028152602001611a5960f21b8152506040518060400160405280600a8152602001691b5e51dc98591a595b9d60b21b815250610da6565b6103f3604051806040016040528060118152602001706772616469656e745472616e73666f726d60781b8152506040518060400160405280600b81526020016a726f74617465283134302960a81b815250610da6565b60405160200161040492919061136a565b604051602081830303815290604052610530610458604051806040016040528060068152602001651bd9999cd95d60d21b81525060405180604001604052806002815260200161302560f01b815250610da6565b604080518082018252600a81526939ba37b816b1b7b637b960b11b60208201526001549151630cde589160e41b815261050b926001600160a01b03169063cde58910906104c190600401602080825260059082015264416176653160d81b604082015260600190565b600060405180830381865afa1580156104de573d6000803e3d6000fd5b505050506040513d6000823e601f3d908101601f191682016040526105069190810190611157565b610da6565b60405160200161051c92919061136a565b604051602081830303815290604052610dd3565b6105e0610577604051806040016040528060068152602001651bd9999cd95d60d21b815250604051806040016040528060048152602001633130302560e01b815250610da6565b604080518082018252600a81526939ba37b816b1b7b637b960b11b60208201526001549151630cde589160e41b815261050b926001600160a01b03169063cde58910906104c19060040160208082526005908201526420b0bb329960d91b604082015260600190565b6040516020016105f192919061136a565b604051602081830303815290604052610dfb565b610e35565b61078e61065d60405180604001604052806004815260200163199a5b1b60e21b8152506040518060400160405280601281526020017175726c2827236d794772616469656e74272960701b815250610da6565b610699604051806040016040528060018152602001600f60fb1b815250604051806040016040528060018152602001600360fc1b815250610da6565b6106d5604051806040016040528060018152602001607960f81b815250604051806040016040528060018152602001600360fc1b815250610da6565b610718604051806040016040528060058152602001640eed2c8e8d60db1b815250604051806040016040528060048152602001633130302560e01b815250610da6565b61075c604051806040016040528060068152602001651a195a59da1d60d21b815250604051806040016040528060048152602001633130302560e01b815250610da6565b604051602001610770959493929190611399565b60408051601f19818403018152602083019091526000825290610e6d565b6109096107ce604051806040016040528060018152602001600f60fb1b81525060405180604001604052806002815260200161032360f41b815250610da6565b61080b604051806040016040528060018152602001607960f81b81525060405180604001604052806002815260200161034360f41b815250610da6565b61085060405180604001604052806009815260200168666f6e742d73697a6560b81b81525060405180604001604052806002815260200161191960f11b815250610da6565b61089360405180604001604052806004815260200163199a5b1b60e21b81525060405180604001604052806005815260200164776869746560d81b815250610da6565b6040516020016108a69493929190611404565b60408051601f19818403018152828201909152600b82526a506f6f6c7920504650202360a81b6020830152906108db90610e96565b6108e48e610ebf565b6040516020016108f592919061136a565b604051602081830303815290604052610feb565b610a4c60405180608001604052806055815260200161179260559139610962604051806040016040528060018152602001600f60fb1b81525060405180604001604052806002815260200161352560f01b815250610da6565b6109a0604051806040016040528060018152602001607960f81b8152506040518060400160405280600381526020016232352560e81b815250610da6565b6109e2604051806040016040528060058152602001640eed2c8e8d60db1b8152506040518060400160405280600381526020016235302560e81b815250610da6565b610a25604051806040016040528060068152602001651a195a59da1d60d21b8152506040518060400160405280600381526020016235302560e81b815250610da6565b604051602001610a389493929190611404565b604051602081830303815290604052611014565b610b7e610a8c604051806040016040528060018152602001600f60fb1b81525060405180604001604052806002815260200161352560f01b815250610da6565b610aca604051806040016040528060018152602001607960f81b8152506040518060400160405280600381526020016239302560e81b815250610da6565b610b0d60405180604001604052806004815260200163199a5b1b60e21b81525060405180604001604052806005815260200164776869746560d81b815250610da6565b610b566040518060400160405280600b81526020016a199bdb9d0b5dd95a59da1d60aa1b81525060405180604001604052806004815260200163189bdb1960e21b815250610da6565b604051602001610b699493929190611404565b6040516020818303038152906040528b610feb565b610c8d610bbf604051806040016040528060018152602001600f60fb1b8152506040518060400160405280600381526020016235302560e81b815250610da6565b610bfd604051806040016040528060018152602001607960f81b8152506040518060400160405280600381526020016239302560e81b815250610da6565b610c4060405180604001604052806004815260200163199a5b1b60e21b81525060405180604001604052806005815260200164776869746560d81b815250610da6565b604051602001610c529392919061145b565b60408051601f1981840301815282820190915260088252673130b630b731b29d60c11b602083015290610c8490610e96565b6108e48a610ebf565b6040805180820190915260068152651e17b9bb339f60d11b6020820152604051602001610cc198979695949392919061149e565b6040516020818303038152906040529650505050505050919050565b6060604051602001610d92907f3c7376672077696474683d2234303022206865696768743d223430302220737481527f796c653d226261636b67726f756e643a233534313536332220000000000000006020820152743b34b2bba137bc1e91181018101a1818101a18181160591b60398201527f786d6c6e733d22687474703a2f2f7777772e77332e6f72672f323030302f7376604e8201526203391160ed1b606e820152601f60f91b607182015260720190565b604051602081830303815290604052905090565b60608282604051602001610dbb929190611543565b60405160208183030381529060405290505b92915050565b6060610dcd60405180604001604052806004815260200163073746f760e41b8152508361107f565b6060610e2e6040518060400160405280600e81526020016d1b1a5b99585c91dc98591a595b9d60921b8152508484611094565b9392505050565b6060610dcd604051806040016040528060048152602001636465667360e01b8152506040518060200160405280600081525084611094565b6060610e2e604051806040016040528060048152602001631c9958dd60e21b8152508484611094565b606081604051602001610ea99190611598565b6040516020818303038152906040529050919050565b606081600003610ee65750506040805180820190915260018152600360fc1b602082015290565b8160005b8115610f105780610efa816115d6565b9150610f099050600a83611348565b9150610eea565b60008167ffffffffffffffff811115610f2b57610f2b611141565b6040519080825280601f01601f191660200182016040528015610f55576020820181803683370190505b509050815b8515610fe257610f6b6001826115ef565b90506000610f7a600a88611348565b610f8590600a611606565b610f8f90886115ef565b610f9a906030611625565b905060008160f81b905080848481518110610fb757610fb761164a565b60200101906001600160f81b031916908160001a905350610fd9600a89611348565b97505050610f5a565b50949350505050565b6060610e2e604051806040016040528060048152602001631d195e1d60e21b8152508484611094565b6060610e2e60405180604001604052806005815260200164696d61676560d81b81525061105d60405180604001604052806004815260200163343932b360e11b81525086610da6565b8460405160200161106f929190611660565b6040516020818303038152906040525b60608282604051602001610dbb92919061169c565b6060838383866040516020016110ad94939291906116f4565b60405160208183030381529060405290509392505050565b6000602082840312156110d757600080fd5b5035919050565b60005b838110156110f95781810151838201526020016110e1565b83811115611108576000848401525b50505050565b602081526000825180602084015261112d8160408501602087016110de565b601f01601f19169190910160400192915050565b634e487b7160e01b600052604160045260246000fd5b60006020828403121561116957600080fd5b815167ffffffffffffffff8082111561118157600080fd5b818401915084601f83011261119557600080fd5b8151818111156111a7576111a7611141565b604051601f8201601f19908116603f011681019083821181831017156111cf576111cf611141565b816040528281528760208487010111156111e857600080fd5b6111f98360208301602088016110de565b979650505050505050565b60006020828403121561121657600080fd5b815160ff81168114610e2e57600080fd5b60006020828403121561123957600080fd5b5051919050565b634e487b7160e01b600052601160045260246000fd5b600181600019825b808611156112925782820483111561127857611278611240565b8086161561128557928202925b94851c949180029161125e565b50509250929050565b6000826112aa57506001610dcd565b816112b757506000610dcd565b81600181146112cd57600281146112d7576112f3565b6001915050610dcd565b60ff8411156112e8576112e8611240565b50506001821b610dcd565b5060208310610133831016604e8410600b8410161715611316575081810a610dcd565b6113208383611256565b806000190482111561133457611334611240565b029392505050565b6000610e2e838361129b565b60008261136557634e487b7160e01b600052601260045260246000fd5b500490565b6000835161137c8184602088016110de565b8351908301906113908183602088016110de565b01949350505050565b600086516113ab818460208b016110de565b8651908301906113bf818360208b016110de565b86519101906113d2818360208a016110de565b85519101906113e58183602089016110de565b84519101906113f88183602088016110de565b01979650505050505050565b60008551611416818460208a016110de565b85519083019061142a818360208a016110de565b855191019061143d8183602089016110de565b84519101906114508183602088016110de565b019695505050505050565b6000845161146d8184602089016110de565b8451908301906114818183602089016110de565b84519101906114948183602088016110de565b0195945050505050565b6000895160206114b18285838f016110de565b8a51918401916114c48184848f016110de565b8a519201916114d68184848e016110de565b89519201916114e88184848d016110de565b88519201916114fa8184848c016110de565b875192019161150c8184848b016110de565b865192019161151e8184848a016110de565b855192019161153081848489016110de565b919091019b9a5050505050505050505050565b600083516115558184602088016110de565b603d60f81b908301908152601160f91b6001820152835161157d8160028401602088016110de565b61011160f51b60029290910191820152600401949350505050565b683c215b43444154415b60b81b8152600082516115bc8160098501602087016110de565b622eae9f60e91b6009939091019283015250600c01919050565b6000600182016115e8576115e8611240565b5060010190565b60008282101561160157611601611240565b500390565b600081600019048311821515161561162057611620611240565b500290565b600060ff821660ff84168060ff0382111561164257611642611240565b019392505050565b634e487b7160e01b600052603260045260246000fd5b600083516116728184602088016110de565b600160fd1b90830190815283516116908160018401602088016110de565b01600101949350505050565b600f60fa1b8152600083516116b88160018501602088016110de565b600160fd1b60019184019182015283516116d98160028401602088016110de565b61179f60f11b60029290910191820152600401949350505050565b600f60fa1b815260008551611710816001850160208a016110de565b600160fd1b6001918401918201528551611731816002840160208a016110de565b808201915050601f60f91b8060028301528551611755816003850160208a016110de565b600181840101925050613c2f60f01b6002830152845161177c8160048501602089016110de565b6004920191820152600501969550505050505056fe68747470733a2f2f6769746875622e636f6d2f667269656e64732d6f662d706f6f6c792f706f6f6c792d6173736574732f626c6f622f6d61696e2f67656e6572616c2f636f6f6c792e706e673f7261773d74727565a2646970667358221220242cddd7a2d776a6d74d18c8bbc0d00281f1e26b49230bfb50c3763e239250c064736f6c634300080d0033",
  "devdoc": {
    "kind": "dev",
    "methods": {},
    "version": 1
  },
  "userdoc": {
    "kind": "user",
    "methods": {},
    "version": 1
  },
  "storageLayout": {
    "storage": [
      {
        "astId": 7795,
        "contract": "contracts/PoolyPFPRenderer.sol:PoolyPFPRenderer",
        "label": "token",
        "offset": 0,
        "slot": "0",
        "type": "t_contract(ERC20)709"
      },
      {
        "astId": 7798,
        "contract": "contracts/PoolyPFPRenderer.sol:PoolyPFPRenderer",
        "label": "svgColor",
        "offset": 0,
        "slot": "1",
        "type": "t_contract(SVGColor)4285"
      },
      {
        "astId": 7802,
        "contract": "contracts/PoolyPFPRenderer.sol:PoolyPFPRenderer",
        "label": "owners",
        "offset": 0,
        "slot": "2",
        "type": "t_mapping(t_uint256,t_address)"
      }
    ],
    "types": {
      "t_address": {
        "encoding": "inplace",
        "label": "address",
        "numberOfBytes": "20"
      },
      "t_contract(ERC20)709": {
        "encoding": "inplace",
        "label": "contract ERC20",
        "numberOfBytes": "20"
      },
      "t_contract(SVGColor)4285": {
        "encoding": "inplace",
        "label": "contract SVGColor",
        "numberOfBytes": "20"
      },
      "t_mapping(t_uint256,t_address)": {
        "encoding": "mapping",
        "key": "t_uint256",
        "label": "mapping(uint256 => address)",
        "numberOfBytes": "32",
        "value": "t_address"
      },
      "t_uint256": {
        "encoding": "inplace",
        "label": "uint256",
        "numberOfBytes": "32"
      }
    }
  }
}