{
  "address": "0xe7f1725E7734CE288F8367e1Bb143E90bb3F0512",
  "abi": [
    {
      "inputs": [
        {
          "internalType": "string",
          "name": "_name",
          "type": "string"
        },
        {
          "internalType": "string",
          "name": "_symbol",
          "type": "string"
        }
      ],
      "stateMutability": "nonpayable",
      "type": "constructor"
    },
    {
      "anonymous": false,
      "inputs": [
        {
          "indexed": true,
          "internalType": "address",
          "name": "owner",
          "type": "address"
        },
        {
          "indexed": true,
          "internalType": "address",
          "name": "approved",
          "type": "address"
        },
        {
          "indexed": true,
          "internalType": "uint256",
          "name": "tokenId",
          "type": "uint256"
        }
      ],
      "name": "Approval",
      "type": "event"
    },
    {
      "anonymous": false,
      "inputs": [
        {
          "indexed": true,
          "internalType": "address",
          "name": "owner",
          "type": "address"
        },
        {
          "indexed": true,
          "internalType": "address",
          "name": "operator",
          "type": "address"
        },
        {
          "indexed": false,
          "internalType": "bool",
          "name": "approved",
          "type": "bool"
        }
      ],
      "name": "ApprovalForAll",
      "type": "event"
    },
    {
      "anonymous": false,
      "inputs": [
        {
          "indexed": true,
          "internalType": "address",
          "name": "previousOwner",
          "type": "address"
        },
        {
          "indexed": true,
          "internalType": "address",
          "name": "newOwner",
          "type": "address"
        }
      ],
      "name": "OwnershipTransferred",
      "type": "event"
    },
    {
      "anonymous": false,
      "inputs": [
        {
          "indexed": true,
          "internalType": "address",
          "name": "from",
          "type": "address"
        },
        {
          "indexed": true,
          "internalType": "address",
          "name": "to",
          "type": "address"
        },
        {
          "indexed": true,
          "internalType": "uint256",
          "name": "tokenId",
          "type": "uint256"
        }
      ],
      "name": "Transfer",
      "type": "event"
    },
    {
      "inputs": [
        {
          "internalType": "address",
          "name": "to",
          "type": "address"
        },
        {
          "internalType": "uint256",
          "name": "tokenId",
          "type": "uint256"
        }
      ],
      "name": "approve",
      "outputs": [],
      "stateMutability": "nonpayable",
      "type": "function"
    },
    {
      "inputs": [
        {
          "internalType": "address",
          "name": "owner",
          "type": "address"
        }
      ],
      "name": "balanceOf",
      "outputs": [
        {
          "internalType": "uint256",
          "name": "",
          "type": "uint256"
        }
      ],
      "stateMutability": "view",
      "type": "function"
    },
    {
      "inputs": [],
      "name": "baseURI",
      "outputs": [
        {
          "internalType": "string",
          "name": "",
          "type": "string"
        }
      ],
      "stateMutability": "view",
      "type": "function"
    },
    {
      "inputs": [
        {
          "internalType": "uint256",
          "name": "tokenId",
          "type": "uint256"
        }
      ],
      "name": "getApproved",
      "outputs": [
        {
          "internalType": "address",
          "name": "",
          "type": "address"
        }
      ],
      "stateMutability": "view",
      "type": "function"
    },
    {
      "inputs": [
        {
          "internalType": "address",
          "name": "owner",
          "type": "address"
        },
        {
          "internalType": "address",
          "name": "operator",
          "type": "address"
        }
      ],
      "name": "isApprovedForAll",
      "outputs": [
        {
          "internalType": "bool",
          "name": "",
          "type": "bool"
        }
      ],
      "stateMutability": "view",
      "type": "function"
    },
    {
      "inputs": [],
      "name": "name",
      "outputs": [
        {
          "internalType": "string",
          "name": "",
          "type": "string"
        }
      ],
      "stateMutability": "view",
      "type": "function"
    },
    {
      "inputs": [],
      "name": "owner",
      "outputs": [
        {
          "internalType": "address",
          "name": "",
          "type": "address"
        }
      ],
      "stateMutability": "view",
      "type": "function"
    },
    {
      "inputs": [
        {
          "internalType": "uint256",
          "name": "tokenId",
          "type": "uint256"
        }
      ],
      "name": "ownerOf",
      "outputs": [
        {
          "internalType": "address",
          "name": "",
          "type": "address"
        }
      ],
      "stateMutability": "view",
      "type": "function"
    },
    {
      "inputs": [],
      "name": "renounceOwnership",
      "outputs": [],
      "stateMutability": "nonpayable",
      "type": "function"
    },
    {
      "inputs": [
        {
          "internalType": "uint256",
          "name": "_tokenId",
          "type": "uint256"
        },
        {
          "internalType": "uint256",
          "name": "_salePrice",
          "type": "uint256"
        }
      ],
      "name": "royaltyInfo",
      "outputs": [
        {
          "internalType": "address",
          "name": "",
          "type": "address"
        },
        {
          "internalType": "uint256",
          "name": "",
          "type": "uint256"
        }
      ],
      "stateMutability": "view",
      "type": "function"
    },
    {
      "inputs": [
        {
          "internalType": "address",
          "name": "from",
          "type": "address"
        },
        {
          "internalType": "address",
          "name": "to",
          "type": "address"
        },
        {
          "internalType": "uint256",
          "name": "tokenId",
          "type": "uint256"
        }
      ],
      "name": "safeTransferFrom",
      "outputs": [],
      "stateMutability": "nonpayable",
      "type": "function"
    },
    {
      "inputs": [
        {
          "internalType": "address",
          "name": "from",
          "type": "address"
        },
        {
          "internalType": "address",
          "name": "to",
          "type": "address"
        },
        {
          "internalType": "uint256",
          "name": "tokenId",
          "type": "uint256"
        },
        {
          "internalType": "bytes",
          "name": "_data",
          "type": "bytes"
        }
      ],
      "name": "safeTransferFrom",
      "outputs": [],
      "stateMutability": "nonpayable",
      "type": "function"
    },
    {
      "inputs": [
        {
          "internalType": "address",
          "name": "operator",
          "type": "address"
        },
        {
          "internalType": "bool",
          "name": "approved",
          "type": "bool"
        }
      ],
      "name": "setApprovalForAll",
      "outputs": [],
      "stateMutability": "nonpayable",
      "type": "function"
    },
    {
      "inputs": [
        {
          "internalType": "string",
          "name": "baseURI_",
          "type": "string"
        }
      ],
      "name": "setBaseURI",
      "outputs": [],
      "stateMutability": "nonpayable",
      "type": "function"
    },
    {
      "inputs": [
        {
          "internalType": "bytes4",
          "name": "interfaceId",
          "type": "bytes4"
        }
      ],
      "name": "supportsInterface",
      "outputs": [
        {
          "internalType": "bool",
          "name": "",
          "type": "bool"
        }
      ],
      "stateMutability": "view",
      "type": "function"
    },
    {
      "inputs": [],
      "name": "symbol",
      "outputs": [
        {
          "internalType": "string",
          "name": "",
          "type": "string"
        }
      ],
      "stateMutability": "view",
      "type": "function"
    },
    {
      "inputs": [
        {
          "internalType": "uint256",
          "name": "tokenId",
          "type": "uint256"
        }
      ],
      "name": "tokenURI",
      "outputs": [
        {
          "internalType": "string",
          "name": "",
          "type": "string"
        }
      ],
      "stateMutability": "view",
      "type": "function"
    },
    {
      "inputs": [],
      "name": "totalSupply",
      "outputs": [
        {
          "internalType": "uint256",
          "name": "",
          "type": "uint256"
        }
      ],
      "stateMutability": "view",
      "type": "function"
    },
    {
      "inputs": [
        {
          "internalType": "address",
          "name": "from",
          "type": "address"
        },
        {
          "internalType": "address",
          "name": "to",
          "type": "address"
        },
        {
          "internalType": "uint256",
          "name": "tokenId",
          "type": "uint256"
        }
      ],
      "name": "transferFrom",
      "outputs": [],
      "stateMutability": "nonpayable",
      "type": "function"
    },
    {
      "inputs": [
        {
          "internalType": "address",
          "name": "newOwner",
          "type": "address"
        }
      ],
      "name": "transferOwnership",
      "outputs": [],
      "stateMutability": "nonpayable",
      "type": "function"
    }
  ],
  "transactionHash": "0x5607a357a0b8d41c6e1e629b85d2e7d2471ddb551346112f113be9c8e73d99d2",
  "args": [
    "Pooly - PFP",
    "PFP"
  ],
  "numDeployments": 1,
  "solcInputHash": "f8fa20f6bcaf9473c3b67b53313e2025",
  "bytecode": "0x60806040523480156200001157600080fd5b5060405162001a6e38038062001a6e833981016040819052620000349162000251565b8151829082906200004d906002906020850190620000de565b50805162000063906003906020840190620000de565b505050620000806200007a6200008860201b60201c565b6200008c565b5050620002f7565b3390565b600880546001600160a01b038381166001600160a01b0319831681179093556040519116919082907f8be0079c531659141344cd1fd0a4f28419497f9722a3daafe3b4186f6b6457e090600090a35050565b828054620000ec90620002bb565b90600052602060002090601f0160209004810192826200011057600085556200015b565b82601f106200012b57805160ff19168380011785556200015b565b828001600101855582156200015b579182015b828111156200015b5782518255916020019190600101906200013e565b50620001699291506200016d565b5090565b5b808211156200016957600081556001016200016e565b634e487b7160e01b600052604160045260246000fd5b600082601f830112620001ac57600080fd5b81516001600160401b0380821115620001c957620001c962000184565b604051601f8301601f19908116603f01168101908282118183101715620001f457620001f462000184565b816040528381526020925086838588010111156200021157600080fd5b600091505b8382101562000235578582018301518183018401529082019062000216565b83821115620002475760008385830101525b9695505050505050565b600080604083850312156200026557600080fd5b82516001600160401b03808211156200027d57600080fd5b6200028b868387016200019a565b93506020850151915080821115620002a257600080fd5b50620002b1858286016200019a565b9150509250929050565b600181811c90821680620002d057607f821691505b602082108103620002f157634e487b7160e01b600052602260045260246000fd5b50919050565b61176780620003076000396000f3fe608060405234801561001057600080fd5b506004361061012c5760003560e01c80636c0360eb116100ad578063a22cb46511610071578063a22cb4651461027f578063b88d4fde14610292578063c87b56dd146102a5578063e985e9c5146102b8578063f2fde38b146102f457600080fd5b80636c0360eb1461024357806370a082311461024b578063715018a61461025e5780638da5cb5b1461026657806395d89b411461027757600080fd5b806323b872dd116100f457806323b872dd146101c55780632a55205a146101d857806342842e0e1461020a57806355f804b31461021d5780636352211e1461023057600080fd5b806301ffc9a71461013157806306fdde0314610159578063081812fc1461016e578063095ea7b31461019957806318160ddd146101ae575b600080fd5b61014461013f3660046111a5565b610307565b60405190151581526020015b60405180910390f35b610161610318565b604051610150919061121a565b61018161017c36600461122d565b6103aa565b6040516001600160a01b039091168152602001610150565b6101ac6101a7366004611262565b610444565b005b6101b760095481565b604051908152602001610150565b6101ac6101d336600461128c565b610559565b6101eb6101e63660046112c8565b61058a565b604080516001600160a01b039093168352602083019190915201610150565b6101ac61021836600461128c565b610636565b6101ac61022b366004611376565b610651565b61018161023e36600461122d565b610692565b610161610709565b6101b76102593660046113bf565b610797565b6101ac61081e565b6008546001600160a01b0316610181565b610161610854565b6101ac61028d3660046113da565b610863565b6101ac6102a0366004611416565b61086e565b6101616102b336600461122d565b6108a6565b6101446102c6366004611492565b6001600160a01b03918216600090815260076020908152604080832093909416825291909152205460ff1690565b6101ac6103023660046113bf565b610981565b600061031282610a1c565b92915050565b606060028054610327906114c5565b80601f0160208091040260200160405190810160405280929190818152602001828054610353906114c5565b80156103a05780601f10610375576101008083540402835291602001916103a0565b820191906000526020600020905b81548152906001019060200180831161038357829003601f168201915b5050505050905090565b6000818152600460205260408120546001600160a01b03166104285760405162461bcd60e51b815260206004820152602c60248201527f4552433732313a20617070726f76656420717565727920666f72206e6f6e657860448201526b34b9ba32b73a103a37b5b2b760a11b60648201526084015b60405180910390fd5b506000908152600660205260409020546001600160a01b031690565b600061044f82610692565b9050806001600160a01b0316836001600160a01b0316036104bc5760405162461bcd60e51b815260206004820152602160248201527f4552433732313a20617070726f76616c20746f2063757272656e74206f776e656044820152603960f91b606482015260840161041f565b336001600160a01b03821614806104d857506104d881336102c6565b61054a5760405162461bcd60e51b815260206004820152603860248201527f4552433732313a20617070726f76652063616c6c6572206973206e6f74206f7760448201527f6e6572206e6f7220617070726f76656420666f7220616c6c0000000000000000606482015260840161041f565b6105548383610a5c565b505050565b6105633382610aca565b61057f5760405162461bcd60e51b815260040161041f906114ff565b610554838383610bc1565b60008281526001602090815260408083208151808301909252546001600160a01b038116808352600160a01b9091046001600160601b03169282019290925282916105ff5750604080518082019091526000546001600160a01b0381168252600160a01b90046001600160601b031660208201525b60208101516000906127109061061e906001600160601b031687611566565b610628919061159b565b915196919550909350505050565b6105548383836040518060200160405280600081525061086e565b6008546001600160a01b0316331461067b5760405162461bcd60e51b815260040161041f906115af565b805161068e90600a9060208401906110f6565b5050565b6000818152600460205260408120546001600160a01b0316806103125760405162461bcd60e51b815260206004820152602960248201527f4552433732313a206f776e657220717565727920666f72206e6f6e657869737460448201526832b73a103a37b5b2b760b91b606482015260840161041f565b600a8054610716906114c5565b80601f0160208091040260200160405190810160405280929190818152602001828054610742906114c5565b801561078f5780601f106107645761010080835404028352916020019161078f565b820191906000526020600020905b81548152906001019060200180831161077257829003601f168201915b505050505081565b60006001600160a01b0382166108025760405162461bcd60e51b815260206004820152602a60248201527f4552433732313a2062616c616e636520717565727920666f7220746865207a65604482015269726f206164647265737360b01b606482015260840161041f565b506001600160a01b031660009081526005602052604090205490565b6008546001600160a01b031633146108485760405162461bcd60e51b815260040161041f906115af565b6108526000610d5d565b565b606060038054610327906114c5565b61068e338383610daf565b6108783383610aca565b6108945760405162461bcd60e51b815260040161041f906114ff565b6108a084848484610e7d565b50505050565b6000818152600460205260409020546060906001600160a01b03166109255760405162461bcd60e51b815260206004820152602f60248201527f4552433732314d657461646174613a2055524920717565727920666f72206e6f60448201526e3732bc34b9ba32b73a103a37b5b2b760891b606482015260840161041f565b600061092f610eb0565b9050600081511161094f576040518060200160405280600081525061097a565b8061095984610ebf565b60405160200161096a9291906115e4565b6040516020818303038152906040525b9392505050565b6008546001600160a01b031633146109ab5760405162461bcd60e51b815260040161041f906115af565b6001600160a01b038116610a105760405162461bcd60e51b815260206004820152602660248201527f4f776e61626c653a206e6577206f776e657220697320746865207a65726f206160448201526564647265737360d01b606482015260840161041f565b610a1981610d5d565b50565b60006001600160e01b031982166380ac58cd60e01b1480610a4d57506001600160e01b03198216635b5e139f60e01b145b80610312575061031282610fc0565b600081815260066020526040902080546001600160a01b0319166001600160a01b0384169081179091558190610a9182610692565b6001600160a01b03167f8c5be1e5ebec7d5bd14f71427d1e84f3dd0314c0f7b2291e5b200ac8c7c3b92560405160405180910390a45050565b6000818152600460205260408120546001600160a01b0316610b435760405162461bcd60e51b815260206004820152602c60248201527f4552433732313a206f70657261746f7220717565727920666f72206e6f6e657860448201526b34b9ba32b73a103a37b5b2b760a11b606482015260840161041f565b6000610b4e83610692565b9050806001600160a01b0316846001600160a01b03161480610b9557506001600160a01b0380821660009081526007602090815260408083209388168352929052205460ff165b80610bb95750836001600160a01b0316610bae846103aa565b6001600160a01b0316145b949350505050565b826001600160a01b0316610bd482610692565b6001600160a01b031614610c385760405162461bcd60e51b815260206004820152602560248201527f4552433732313a207472616e736665722066726f6d20696e636f72726563742060448201526437bbb732b960d91b606482015260840161041f565b6001600160a01b038216610c9a5760405162461bcd60e51b8152602060048201526024808201527f4552433732313a207472616e7366657220746f20746865207a65726f206164646044820152637265737360e01b606482015260840161041f565b610ca5600082610a5c565b6001600160a01b0383166000908152600560205260408120805460019290610cce908490611613565b90915550506001600160a01b0382166000908152600560205260408120805460019290610cfc90849061162a565b909155505060008181526004602052604080822080546001600160a01b0319166001600160a01b0386811691821790925591518493918716917fddf252ad1be2c89b69c2b068fc378daa952ba7f163c4a11628f55a4df523b3ef91a4505050565b600880546001600160a01b038381166001600160a01b0319831681179093556040519116919082907f8be0079c531659141344cd1fd0a4f28419497f9722a3daafe3b4186f6b6457e090600090a35050565b816001600160a01b0316836001600160a01b031603610e105760405162461bcd60e51b815260206004820152601960248201527f4552433732313a20617070726f766520746f2063616c6c657200000000000000604482015260640161041f565b6001600160a01b03838116600081815260076020908152604080832094871680845294825291829020805460ff191686151590811790915591519182527f17307eab39ab6107e8899845ad3d59bd9653f200f220920489ca2b5937696c31910160405180910390a3505050565b610e88848484610bc1565b610e9484848484610ff5565b6108a05760405162461bcd60e51b815260040161041f90611642565b6060600a8054610327906114c5565b606081600003610ee65750506040805180820190915260018152600360fc1b602082015290565b8160005b8115610f105780610efa81611694565b9150610f099050600a8361159b565b9150610eea565b60008167ffffffffffffffff811115610f2b57610f2b6112ea565b6040519080825280601f01601f191660200182016040528015610f55576020820181803683370190505b5090505b8415610bb957610f6a600183611613565b9150610f77600a866116ad565b610f8290603061162a565b60f81b818381518110610f9757610f976116c1565b60200101906001600160f81b031916908160001a905350610fb9600a8661159b565b9450610f59565b60006001600160e01b0319821663152a902d60e11b148061031257506301ffc9a760e01b6001600160e01b0319831614610312565b60006001600160a01b0384163b156110eb57604051630a85bd0160e11b81526001600160a01b0385169063150b7a02906110399033908990889088906004016116d7565b6020604051808303816000875af1925050508015611074575060408051601f3d908101601f1916820190925261107191810190611714565b60015b6110d1573d8080156110a2576040519150601f19603f3d011682016040523d82523d6000602084013e6110a7565b606091505b5080516000036110c95760405162461bcd60e51b815260040161041f90611642565b805181602001fd5b6001600160e01b031916630a85bd0160e11b149050610bb9565b506001949350505050565b828054611102906114c5565b90600052602060002090601f016020900481019282611124576000855561116a565b82601f1061113d57805160ff191683800117855561116a565b8280016001018555821561116a579182015b8281111561116a57825182559160200191906001019061114f565b5061117692915061117a565b5090565b5b80821115611176576000815560010161117b565b6001600160e01b031981168114610a1957600080fd5b6000602082840312156111b757600080fd5b813561097a8161118f565b60005b838110156111dd5781810151838201526020016111c5565b838111156108a05750506000910152565b600081518084526112068160208601602086016111c2565b601f01601f19169290920160200192915050565b60208152600061097a60208301846111ee565b60006020828403121561123f57600080fd5b5035919050565b80356001600160a01b038116811461125d57600080fd5b919050565b6000806040838503121561127557600080fd5b61127e83611246565b946020939093013593505050565b6000806000606084860312156112a157600080fd5b6112aa84611246565b92506112b860208501611246565b9150604084013590509250925092565b600080604083850312156112db57600080fd5b50508035926020909101359150565b634e487b7160e01b600052604160045260246000fd5b600067ffffffffffffffff8084111561131b5761131b6112ea565b604051601f8501601f19908116603f01168101908282118183101715611343576113436112ea565b8160405280935085815286868601111561135c57600080fd5b858560208301376000602087830101525050509392505050565b60006020828403121561138857600080fd5b813567ffffffffffffffff81111561139f57600080fd5b8201601f810184136113b057600080fd5b610bb984823560208401611300565b6000602082840312156113d157600080fd5b61097a82611246565b600080604083850312156113ed57600080fd5b6113f683611246565b91506020830135801515811461140b57600080fd5b809150509250929050565b6000806000806080858703121561142c57600080fd5b61143585611246565b935061144360208601611246565b925060408501359150606085013567ffffffffffffffff81111561146657600080fd5b8501601f8101871361147757600080fd5b61148687823560208401611300565b91505092959194509250565b600080604083850312156114a557600080fd5b6114ae83611246565b91506114bc60208401611246565b90509250929050565b600181811c908216806114d957607f821691505b6020821081036114f957634e487b7160e01b600052602260045260246000fd5b50919050565b60208082526031908201527f4552433732313a207472616e736665722063616c6c6572206973206e6f74206f6040820152701ddb995c881b9bdc88185c1c1c9bdd9959607a1b606082015260800190565b634e487b7160e01b600052601160045260246000fd5b600081600019048311821515161561158057611580611550565b500290565b634e487b7160e01b600052601260045260246000fd5b6000826115aa576115aa611585565b500490565b6020808252818101527f4f776e61626c653a2063616c6c6572206973206e6f7420746865206f776e6572604082015260600190565b600083516115f68184602088016111c2565b83519083019061160a8183602088016111c2565b01949350505050565b60008282101561162557611625611550565b500390565b6000821982111561163d5761163d611550565b500190565b60208082526032908201527f4552433732313a207472616e7366657220746f206e6f6e20455243373231526560408201527131b2b4bb32b91034b6b83632b6b2b73a32b960711b606082015260800190565b6000600182016116a6576116a6611550565b5060010190565b6000826116bc576116bc611585565b500690565b634e487b7160e01b600052603260045260246000fd5b6001600160a01b038581168252841660208201526040810183905260806060820181905260009061170a908301846111ee565b9695505050505050565b60006020828403121561172657600080fd5b815161097a8161118f56fea264697066735822122097e2ba5530eec4dc735ff63126bae992a5edd4d23edbb8b0993e3242f251c27564736f6c634300080d0033",
  "devdoc": {
    "kind": "dev",
    "methods": {
      "approve(address,uint256)": {
        "details": "See {IERC721-approve}."
      },
      "balanceOf(address)": {
        "details": "See {IERC721-balanceOf}."
      },
      "getApproved(uint256)": {
        "details": "See {IERC721-getApproved}."
      },
      "isApprovedForAll(address,address)": {
        "details": "See {IERC721-isApprovedForAll}."
      },
      "name()": {
        "details": "See {IERC721Metadata-name}."
      },
      "owner()": {
        "details": "Returns the address of the current owner."
      },
      "ownerOf(uint256)": {
        "details": "See {IERC721-ownerOf}."
      },
      "renounceOwnership()": {
        "details": "Leaves the contract without owner. It will not be possible to call `onlyOwner` functions anymore. Can only be called by the current owner. NOTE: Renouncing ownership will leave the contract without an owner, thereby removing any functionality that is only available to the owner."
      },
      "royaltyInfo(uint256,uint256)": {
        "details": "Returns how much royalty is owed and to whom, based on a sale price that may be denominated in any unit of exchange. The royalty amount is denominated and should be paid in that same unit of exchange."
      },
      "safeTransferFrom(address,address,uint256)": {
        "details": "See {IERC721-safeTransferFrom}."
      },
      "safeTransferFrom(address,address,uint256,bytes)": {
        "details": "See {IERC721-safeTransferFrom}."
      },
      "setApprovalForAll(address,bool)": {
        "details": "See {IERC721-setApprovalForAll}."
      },
      "supportsInterface(bytes4)": {
        "details": "See {IERC165-supportsInterface}."
      },
      "symbol()": {
        "details": "See {IERC721Metadata-symbol}."
      },
      "tokenURI(uint256)": {
        "details": "See {IERC721Metadata-tokenURI}."
      },
      "transferFrom(address,address,uint256)": {
        "details": "See {IERC721-transferFrom}."
      },
      "transferOwnership(address)": {
        "details": "Transfers ownership of the contract to a new account (`newOwner`). Can only be called by the current owner."
      }
    },
    "version": 1
  },
  "userdoc": {
    "kind": "user",
    "methods": {
      "baseURI()": {
        "notice": "NFT tokens base URI"
      },
      "totalSupply()": {
        "notice": "Total supply of NFTs"
      }
    },
    "notice": "___         ___           ___                                     ___           ___           ___                         ___      /\\  \\       /\\  \\         /\\  \\                                   /\\__\\         /\\  \\         /\\  \\         _____         /\\__\\     /::\\  \\     /::\\  \\       /::\\  \\                       ___       /:/  /        /::\\  \\       /::\\  \\       /::\\  \\       /:/ _/_    /:/\\:\\__\\   /:/\\:\\  \\     /:/\\:\\  \\                     /|  |     /:/  /        /:/\\:\\  \\     /:/\\:\\__\\     /:/\\:\\  \\     /:/ /\\  \\   /:/ /:/  /  /:/  \\:\\  \\   /:/  \\:\\  \\   ___     ___     |:|  |    /:/  /  ___   /:/ /::\\  \\   /:/ /:/  /    /:/  \\:\\__\\   /:/ /::\\  \\  /:/_/:/  /  /:/__/ \\:\\__\\ /:/__/ \\:\\__\\ /\\  \\   /\\__\\    |:|  |   /:/__/  /\\__\\ /:/_/:/\\:\\__\\ /:/_/:/__/___ /:/__/ \\:|__| /:/_/:/\\:\\__\\ \\:\\/:/  /   \\:\\  \\ /:/  / \\:\\  \\ /:/  / \\:\\  \\ /:/  /  __|:|__|   \\:\\  \\ /:/  / \\:\\/:/  \\/__/ \\:\\/:::::/  / \\:\\  \\ /:/  / \\:\\/:/ /:/  / \\::/__/     \\:\\  /:/  /   \\:\\  /:/  /   \\:\\  /:/  /  /::::\\  \\    \\:\\  /:/  /   \\::/__/       \\::/~~/~~~~   \\:\\  /:/  /   \\::/ /:/  /  \\:\\  \\      \\:\\/:/  /     \\:\\/:/  /     \\:\\/:/  /   ~~~~\\:\\  \\    \\:\\/:/  /     \\:\\  \\        \\:\\~~\\        \\:\\/:/  /     \\/_/:/  /   \\:\\__\\      \\::/  /       \\::/  /       \\::/  /         \\:\\__\\    \\::/  /       \\:\\__\\        \\:\\__\\        \\::/  /        /:/  /    \\/__/       \\/__/         \\/__/         \\/__/           \\/__/     \\/__/         \\/__/         \\/__/         \\/__/         \\/__/ ",
    "version": 1
  },
  "storageLayout": {
    "storage": [
      {
        "astId": 1291,
        "contract": "contracts/PoolyPFP.sol:PoolyPFP",
        "label": "_defaultRoyaltyInfo",
        "offset": 0,
        "slot": "0",
        "type": "t_struct(RoyaltyInfo)1288_storage"
      },
      {
        "astId": 1296,
        "contract": "contracts/PoolyPFP.sol:PoolyPFP",
        "label": "_tokenRoyaltyInfo",
        "offset": 0,
        "slot": "1",
        "type": "t_mapping(t_uint256,t_struct(RoyaltyInfo)1288_storage)"
      },
      {
        "astId": 227,
        "contract": "contracts/PoolyPFP.sol:PoolyPFP",
        "label": "_name",
        "offset": 0,
        "slot": "2",
        "type": "t_string_storage"
      },
      {
        "astId": 229,
        "contract": "contracts/PoolyPFP.sol:PoolyPFP",
        "label": "_symbol",
        "offset": 0,
        "slot": "3",
        "type": "t_string_storage"
      },
      {
        "astId": 233,
        "contract": "contracts/PoolyPFP.sol:PoolyPFP",
        "label": "_owners",
        "offset": 0,
        "slot": "4",
        "type": "t_mapping(t_uint256,t_address)"
      },
      {
        "astId": 237,
        "contract": "contracts/PoolyPFP.sol:PoolyPFP",
        "label": "_balances",
        "offset": 0,
        "slot": "5",
        "type": "t_mapping(t_address,t_uint256)"
      },
      {
        "astId": 241,
        "contract": "contracts/PoolyPFP.sol:PoolyPFP",
        "label": "_tokenApprovals",
        "offset": 0,
        "slot": "6",
        "type": "t_mapping(t_uint256,t_address)"
      },
      {
        "astId": 247,
        "contract": "contracts/PoolyPFP.sol:PoolyPFP",
        "label": "_operatorApprovals",
        "offset": 0,
        "slot": "7",
        "type": "t_mapping(t_address,t_mapping(t_address,t_bool))"
      },
      {
        "astId": 7,
        "contract": "contracts/PoolyPFP.sol:PoolyPFP",
        "label": "_owner",
        "offset": 0,
        "slot": "8",
        "type": "t_address"
      },
      {
        "astId": 2043,
        "contract": "contracts/PoolyPFP.sol:PoolyPFP",
        "label": "totalSupply",
        "offset": 0,
        "slot": "9",
        "type": "t_uint256"
      },
      {
        "astId": 2046,
        "contract": "contracts/PoolyPFP.sol:PoolyPFP",
        "label": "baseURI",
        "offset": 0,
        "slot": "10",
        "type": "t_string_storage"
      }
    ],
    "types": {
      "t_address": {
        "encoding": "inplace",
        "label": "address",
        "numberOfBytes": "20"
      },
      "t_bool": {
        "encoding": "inplace",
        "label": "bool",
        "numberOfBytes": "1"
      },
      "t_mapping(t_address,t_bool)": {
        "encoding": "mapping",
        "key": "t_address",
        "label": "mapping(address => bool)",
        "numberOfBytes": "32",
        "value": "t_bool"
      },
      "t_mapping(t_address,t_mapping(t_address,t_bool))": {
        "encoding": "mapping",
        "key": "t_address",
        "label": "mapping(address => mapping(address => bool))",
        "numberOfBytes": "32",
        "value": "t_mapping(t_address,t_bool)"
      },
      "t_mapping(t_address,t_uint256)": {
        "encoding": "mapping",
        "key": "t_address",
        "label": "mapping(address => uint256)",
        "numberOfBytes": "32",
        "value": "t_uint256"
      },
      "t_mapping(t_uint256,t_address)": {
        "encoding": "mapping",
        "key": "t_uint256",
        "label": "mapping(uint256 => address)",
        "numberOfBytes": "32",
        "value": "t_address"
      },
      "t_mapping(t_uint256,t_struct(RoyaltyInfo)1288_storage)": {
        "encoding": "mapping",
        "key": "t_uint256",
        "label": "mapping(uint256 => struct ERC2981.RoyaltyInfo)",
        "numberOfBytes": "32",
        "value": "t_struct(RoyaltyInfo)1288_storage"
      },
      "t_string_storage": {
        "encoding": "bytes",
        "label": "string",
        "numberOfBytes": "32"
      },
      "t_struct(RoyaltyInfo)1288_storage": {
        "encoding": "inplace",
        "label": "struct ERC2981.RoyaltyInfo",
        "members": [
          {
            "astId": 1285,
            "contract": "contracts/PoolyPFP.sol:PoolyPFP",
            "label": "receiver",
            "offset": 0,
            "slot": "0",
            "type": "t_address"
          },
          {
            "astId": 1287,
            "contract": "contracts/PoolyPFP.sol:PoolyPFP",
            "label": "royaltyFraction",
            "offset": 20,
            "slot": "0",
            "type": "t_uint96"
          }
        ],
        "numberOfBytes": "32"
      },
      "t_uint256": {
        "encoding": "inplace",
        "label": "uint256",
        "numberOfBytes": "32"
      },
      "t_uint96": {
        "encoding": "inplace",
        "label": "uint96",
        "numberOfBytes": "12"
      }
    }
  }
}