{
  "address": "0xDc64a140Aa3E981100a9becA4E685f962f0cF6C9",
  "abi": [
    {
      "inputs": [
        {
          "internalType": "bytes",
          "name": "_b",
          "type": "bytes"
        },
        {
          "internalType": "bytes",
          "name": "_element",
          "type": "bytes"
        },
        {
          "internalType": "bytes",
          "name": "_attr",
          "type": "bytes"
        },
        {
          "internalType": "uint8",
          "name": "_duration",
          "type": "uint8"
        },
        {
          "internalType": "uint8",
          "name": "_repeatCount",
          "type": "uint8"
        },
        {
          "internalType": "bytes",
          "name": "_customAttributes",
          "type": "bytes"
        }
      ],
      "name": "animate",
      "outputs": [
        {
          "internalType": "bytes",
          "name": "",
          "type": "bytes"
        }
      ],
      "stateMutability": "pure",
      "type": "function"
    },
    {
      "inputs": [
        {
          "internalType": "bytes",
          "name": "_b",
          "type": "bytes"
        },
        {
          "internalType": "bytes",
          "name": "_element",
          "type": "bytes"
        },
        {
          "internalType": "bytes",
          "name": "_attr",
          "type": "bytes"
        },
        {
          "internalType": "uint8",
          "name": "_duration",
          "type": "uint8"
        },
        {
          "internalType": "bytes",
          "name": "_customAttributes",
          "type": "bytes"
        }
      ],
      "name": "animate",
      "outputs": [
        {
          "internalType": "bytes",
          "name": "",
          "type": "bytes"
        }
      ],
      "stateMutability": "pure",
      "type": "function"
    },
    {
      "inputs": [
        {
          "internalType": "bytes",
          "name": "_b",
          "type": "bytes"
        },
        {
          "internalType": "bytes",
          "name": "_element",
          "type": "bytes"
        },
        {
          "internalType": "enum AnimTransfType",
          "name": "_type",
          "type": "AnimTransfType"
        },
        {
          "internalType": "uint8",
          "name": "_duration",
          "type": "uint8"
        },
        {
          "internalType": "bytes",
          "name": "_customAttributes",
          "type": "bytes"
        }
      ],
      "name": "animateTransform",
      "outputs": [
        {
          "internalType": "bytes",
          "name": "",
          "type": "bytes"
        }
      ],
      "stateMutability": "pure",
      "type": "function"
    },
    {
      "inputs": [
        {
          "internalType": "bytes",
          "name": "_b",
          "type": "bytes"
        },
        {
          "internalType": "bytes",
          "name": "_element",
          "type": "bytes"
        },
        {
          "internalType": "enum AnimTransfType",
          "name": "_type",
          "type": "AnimTransfType"
        },
        {
          "internalType": "uint8",
          "name": "_duration",
          "type": "uint8"
        },
        {
          "internalType": "uint8",
          "name": "_repeatCount",
          "type": "uint8"
        },
        {
          "internalType": "bytes",
          "name": "_customAttributes",
          "type": "bytes"
        }
      ],
      "name": "animateTransform",
      "outputs": [
        {
          "internalType": "bytes",
          "name": "",
          "type": "bytes"
        }
      ],
      "stateMutability": "pure",
      "type": "function"
    },
    {
      "inputs": [
        {
          "internalType": "bytes",
          "name": "_data",
          "type": "bytes"
        },
        {
          "internalType": "uint256",
          "name": "_offset",
          "type": "uint256"
        }
      ],
      "name": "byte2uint8",
      "outputs": [
        {
          "internalType": "uint8",
          "name": "",
          "type": "uint8"
        }
      ],
      "stateMutability": "pure",
      "type": "function"
    },
    {
      "inputs": [
        {
          "internalType": "bytes",
          "name": "_c",
          "type": "bytes"
        },
        {
          "internalType": "bytes",
          "name": "_customAttributes",
          "type": "bytes"
        }
      ],
      "name": "circle",
      "outputs": [
        {
          "internalType": "bytes",
          "name": "",
          "type": "bytes"
        }
      ],
      "stateMutability": "pure",
      "type": "function"
    },
    {
      "inputs": [
        {
          "internalType": "bytes",
          "name": "_b",
          "type": "bytes"
        },
        {
          "internalType": "bytes",
          "name": "_customAttributes",
          "type": "bytes"
        }
      ],
      "name": "defs",
      "outputs": [
        {
          "internalType": "bytes",
          "name": "",
          "type": "bytes"
        }
      ],
      "stateMutability": "pure",
      "type": "function"
    },
    {
      "inputs": [
        {
          "internalType": "bytes",
          "name": "_b",
          "type": "bytes"
        }
      ],
      "name": "defs",
      "outputs": [
        {
          "internalType": "bytes",
          "name": "",
          "type": "bytes"
        }
      ],
      "stateMutability": "pure",
      "type": "function"
    },
    {
      "inputs": [
        {
          "internalType": "bytes",
          "name": "_e",
          "type": "bytes"
        },
        {
          "internalType": "bytes",
          "name": "_customAttributes",
          "type": "bytes"
        }
      ],
      "name": "ellipse",
      "outputs": [
        {
          "internalType": "bytes",
          "name": "",
          "type": "bytes"
        }
      ],
      "stateMutability": "pure",
      "type": "function"
    },
    {
      "inputs": [],
      "name": "endSvg",
      "outputs": [
        {
          "internalType": "bytes",
          "name": "",
          "type": "bytes"
        }
      ],
      "stateMutability": "pure",
      "type": "function"
    },
    {
      "inputs": [
        {
          "internalType": "bytes",
          "name": "_b",
          "type": "bytes"
        }
      ],
      "name": "endingtag",
      "outputs": [
        {
          "internalType": "string",
          "name": "",
          "type": "string"
        }
      ],
      "stateMutability": "pure",
      "type": "function"
    },
    {
      "inputs": [
        {
          "internalType": "bytes",
          "name": "_coord",
          "type": "bytes"
        },
        {
          "internalType": "bytes",
          "name": "_customAttributes",
          "type": "bytes"
        }
      ],
      "name": "line",
      "outputs": [
        {
          "internalType": "bytes",
          "name": "",
          "type": "bytes"
        }
      ],
      "stateMutability": "pure",
      "type": "function"
    },
    {
      "inputs": [
        {
          "internalType": "bytes",
          "name": "_lg",
          "type": "bytes"
        },
        {
          "internalType": "bytes",
          "name": "_id",
          "type": "bytes"
        },
        {
          "internalType": "bytes",
          "name": "_customAttributes",
          "type": "bytes"
        }
      ],
      "name": "linearGradient",
      "outputs": [
        {
          "internalType": "bytes",
          "name": "",
          "type": "bytes"
        }
      ],
      "stateMutability": "pure",
      "type": "function"
    },
    {
      "inputs": [
        {
          "internalType": "bytes",
          "name": "_b",
          "type": "bytes"
        },
        {
          "internalType": "bytes",
          "name": "_customAttributes",
          "type": "bytes"
        }
      ],
      "name": "mask",
      "outputs": [
        {
          "internalType": "bytes",
          "name": "",
          "type": "bytes"
        }
      ],
      "stateMutability": "pure",
      "type": "function"
    },
    {
      "inputs": [
        {
          "internalType": "bytes",
          "name": "_b",
          "type": "bytes"
        },
        {
          "internalType": "bytes",
          "name": "_customAttributes",
          "type": "bytes"
        }
      ],
      "name": "path",
      "outputs": [
        {
          "internalType": "bytes",
          "name": "",
          "type": "bytes"
        }
      ],
      "stateMutability": "pure",
      "type": "function"
    },
    {
      "inputs": [
        {
          "internalType": "bytes",
          "name": "_p",
          "type": "bytes"
        },
        {
          "internalType": "bytes",
          "name": "_customAttributes",
          "type": "bytes"
        }
      ],
      "name": "polygon",
      "outputs": [
        {
          "internalType": "bytes",
          "name": "",
          "type": "bytes"
        }
      ],
      "stateMutability": "pure",
      "type": "function"
    },
    {
      "inputs": [
        {
          "internalType": "bytes",
          "name": "_coords",
          "type": "bytes"
        },
        {
          "internalType": "bytes",
          "name": "_customAttributes",
          "type": "bytes"
        }
      ],
      "name": "polyline",
      "outputs": [
        {
          "internalType": "bytes",
          "name": "",
          "type": "bytes"
        }
      ],
      "stateMutability": "pure",
      "type": "function"
    },
    {
      "inputs": [
        {
          "internalType": "bytes",
          "name": "_r",
          "type": "bytes"
        },
        {
          "internalType": "bytes",
          "name": "_customAttributes",
          "type": "bytes"
        }
      ],
      "name": "rect",
      "outputs": [
        {
          "internalType": "bytes",
          "name": "",
          "type": "bytes"
        }
      ],
      "stateMutability": "pure",
      "type": "function"
    },
    {
      "inputs": [
        {
          "internalType": "uint8",
          "name": "_r",
          "type": "uint8"
        }
      ],
      "name": "repeatCount",
      "outputs": [
        {
          "internalType": "string",
          "name": "",
          "type": "string"
        }
      ],
      "stateMutability": "pure",
      "type": "function"
    },
    {
      "inputs": [
        {
          "internalType": "bytes",
          "name": "_vBSize",
          "type": "bytes"
        },
        {
          "internalType": "bytes",
          "name": "_customAttributes",
          "type": "bytes"
        }
      ],
      "name": "startSvg",
      "outputs": [
        {
          "internalType": "bytes",
          "name": "",
          "type": "bytes"
        }
      ],
      "stateMutability": "pure",
      "type": "function"
    },
    {
      "inputs": [
        {
          "internalType": "bytes",
          "name": "_data",
          "type": "bytes"
        },
        {
          "internalType": "uint256",
          "name": "_offset",
          "type": "uint256"
        },
        {
          "internalType": "uint256",
          "name": "_len",
          "type": "uint256"
        }
      ],
      "name": "stringifyIntSet",
      "outputs": [
        {
          "internalType": "bytes",
          "name": "",
          "type": "bytes"
        }
      ],
      "stateMutability": "pure",
      "type": "function"
    },
    {
      "inputs": [
        {
          "components": [
            {
              "internalType": "uint8",
              "name": "conf",
              "type": "uint8"
            },
            {
              "internalType": "uint8",
              "name": "stroke_width",
              "type": "uint8"
            },
            {
              "internalType": "bytes",
              "name": "element",
              "type": "bytes"
            },
            {
              "internalType": "bytes",
              "name": "fill",
              "type": "bytes"
            },
            {
              "internalType": "bytes",
              "name": "stroke",
              "type": "bytes"
            }
          ],
          "internalType": "struct svgStyle",
          "name": "_style",
          "type": "tuple"
        },
        {
          "internalType": "bytes",
          "name": "_customAttributes",
          "type": "bytes"
        }
      ],
      "name": "style",
      "outputs": [
        {
          "internalType": "bytes",
          "name": "",
          "type": "bytes"
        }
      ],
      "stateMutability": "pure",
      "type": "function"
    },
    {
      "inputs": [
        {
          "components": [
            {
              "internalType": "uint8",
              "name": "conf",
              "type": "uint8"
            },
            {
              "internalType": "uint8",
              "name": "stroke_width",
              "type": "uint8"
            },
            {
              "internalType": "bytes",
              "name": "element",
              "type": "bytes"
            },
            {
              "internalType": "bytes",
              "name": "fill",
              "type": "bytes"
            },
            {
              "internalType": "bytes",
              "name": "stroke",
              "type": "bytes"
            }
          ],
          "internalType": "struct svgStyle",
          "name": "_style",
          "type": "tuple"
        }
      ],
      "name": "style",
      "outputs": [
        {
          "internalType": "bytes",
          "name": "",
          "type": "bytes"
        }
      ],
      "stateMutability": "pure",
      "type": "function"
    },
    {
      "inputs": [
        {
          "internalType": "bytes",
          "name": "_id",
          "type": "bytes"
        },
        {
          "internalType": "bytes",
          "name": "_content",
          "type": "bytes"
        }
      ],
      "name": "symbol",
      "outputs": [
        {
          "internalType": "bytes",
          "name": "",
          "type": "bytes"
        }
      ],
      "stateMutability": "pure",
      "type": "function"
    },
    {
      "inputs": [
        {
          "internalType": "bytes",
          "name": "_b",
          "type": "bytes"
        },
        {
          "internalType": "bytes",
          "name": "_text",
          "type": "bytes"
        },
        {
          "internalType": "bytes",
          "name": "_customAttributes",
          "type": "bytes"
        }
      ],
      "name": "text",
      "outputs": [
        {
          "internalType": "bytes",
          "name": "",
          "type": "bytes"
        }
      ],
      "stateMutability": "pure",
      "type": "function"
    },
    {
      "inputs": [
        {
          "internalType": "bytes",
          "name": "_rgba",
          "type": "bytes"
        },
        {
          "internalType": "uint256",
          "name": "offset",
          "type": "uint256"
        }
      ],
      "name": "toRgba",
      "outputs": [
        {
          "internalType": "bytes",
          "name": "",
          "type": "bytes"
        }
      ],
      "stateMutability": "pure",
      "type": "function"
    },
    {
      "inputs": [
        {
          "internalType": "bytes",
          "name": "_data",
          "type": "bytes"
        }
      ],
      "name": "tuples2ValueMatrix",
      "outputs": [
        {
          "internalType": "bytes",
          "name": "",
          "type": "bytes"
        }
      ],
      "stateMutability": "pure",
      "type": "function"
    },
    {
      "inputs": [
        {
          "internalType": "bytes",
          "name": "_coord",
          "type": "bytes"
        },
        {
          "internalType": "bytes",
          "name": "_href",
          "type": "bytes"
        },
        {
          "internalType": "bytes",
          "name": "_customAttributes",
          "type": "bytes"
        }
      ],
      "name": "use",
      "outputs": [
        {
          "internalType": "bytes",
          "name": "",
          "type": "bytes"
        }
      ],
      "stateMutability": "pure",
      "type": "function"
    }
  ],
  "transactionHash": "0x75cdbc6c70541a6ddf9502713fee800035dbe952572a8e33350d229d5b83623c",
  "args": [],
  "numDeployments": 1,
  "solcInputHash": "1d5a56a1078f935190c56fe6e8e932bb",
  "bytecode": "0x612f1161003a600b82828239805160001a60731461002d57634e487b7160e01b600052600060045260246000fd5b30600052607381538281f3fe73000000000000000000000000000000000000000030146080604052600436106101ce5760003560e01c8063b0c294d811610103578063d95914e8116100a1578063ee94acdd1161007b578063ee94acdd146103d2578063f42de34d146103e5578063f43d49a3146103f8578063f77357cf1461040b57600080fd5b8063d95914e814610399578063e49f2cd0146103ac578063e5d19e69146103bf57600080fd5b8063bba7e70c116100dd578063bba7e70c1461033e578063c7ae09ce14610360578063c821f2ef14610373578063cf0eca091461038657600080fd5b8063b0c294d814610305578063b108b88e14610318578063b9f50fef1461032b57600080fd5b8063676d279d11610170578063a94b81791161014a578063a94b8179146102b9578063aa278942146102cc578063aa31104c146102df578063ae7e7281146102f257600080fd5b8063676d279d146102805780637fec07091461029357806392d64534146102a657600080fd5b8063480f056b116101ac578063480f056b14610222578063482eac7d146102355780635119ce4b146102485780635f6bc3a51461026d57600080fd5b80631781cc41146101d3578063470a2397146101fc5780634793897b1461020f575b600080fd5b6101e66101e13660046114cc565b61041e565b6040516101f3919061154a565b60405180910390f35b6101e661020a366004611627565b610468565b6101e661021d366004611627565b610494565b6101e661023036600461168a565b6104f5565b6101e66102433660046116be565b61056a565b61025b610256366004611745565b6105bf565b60405160ff90911681526020016101f3565b6101e661027b3660046116be565b610627565b6101e661028e366004611627565b61065a565b6101e66102a1366004611798565b61066f565b6101e66102b4366004611627565b61068a565b6101e66102c7366004611627565b6106bb565b6101e66102da366004611627565b6106ec565b6101e66102ed366004611841565b610c4e565b6101e6610300366004611627565b610ca1565b6101e6610313366004611627565b610ceb565b6101e66103263660046119c2565b610d44565b6101e6610339366004611627565b610ebb565b6040805180820190915260068152651e17b9bb339f60d11b60208201526101e6565b6101e661036e3660046119f8565b610ed0565b6101e6610381366004611a77565b610ee1565b6101e66103943660046116be565b610f8c565b6101e66103a736600461168a565b6110e1565b6101e66103ba366004611627565b61110a565b6101e66103cd366004611745565b61112b565b6101e66103e036600461168a565b611183565b6101e66103f3366004611627565b6111d6565b6101e6610406366004611ac4565b61122f565b6101e6610419366004611af8565b61124a565b60608160ff1660000361045157505060408051808201909152600a815269696e646566696e69746560b01b602082015290565b61045d8260ff1661128a565b92915050565b919050565b6060818360405160200161047d929190611b80565b604051602081830303815290604052905092915050565b60606104ac6104a48460016105bf565b60ff1661128a565b6104ba6104a48560026105bf565b6104c86104a48660036105bf565b6104d66104a48760046105bf565b856104e088611183565b60405160200161047d96959493929190611be2565b606060006105048360006105bf565b60ff169050606060015b6001855161051c9190611cd8565b8111610562578161052e868386610ee1565b60405160200161053f929190611cef565b60408051601f19818403018152919052915061055b8382611d2a565b905061050e565b509392505050565b60608261057b6104a48660016105bf565b6105896104a48760026105bf565b8461059388611183565b6040516020016105a7959493929190611d42565b60405160208183030381529060405290509392505050565b6000818351116106055760405162461bcd60e51b815260206004820152600c60248201526b4f7574206f662072616e676560a01b60448201526064015b60405180910390fd5b82828151811061061757610617611e05565b016020015160f81c905092915050565b60606106376104a48560006105bf565b6106456104a48660016105bf565b83856040516020016105a79493929190611e1b565b6060828260405160200161047d929190611ecc565b60606106808686868660008761124a565b9695505050505050565b606061069f8360018086516103819190611cd8565b826106a985611183565b60405160200161047d93929190611f38565b60606106d08360018086516103819190611cd8565b826106da85611183565b60405160200161047d93929190611fac565b6040805180820190915260098152681e3830ba3410321e9160b91b602082015260609060015b8451811015610c185784818151811061072d5761072d611e05565b016020015160f81c604d0361078857816107538661074c846001611d2a565b6002610ee1565b60405160200161076492919061201e565b60408051601f198184030181529190529150610781600282611d2a565b9050610c06565b84818151811061079a5761079a611e05565b016020015160f81c606d036107ca57816107b98661074c846001611d2a565b60405160200161076492919061205a565b8481815181106107dc576107dc611e05565b016020015160f81c604c0361080c57816107fb8661074c846001611d2a565b60405160200161076492919061208a565b84818151811061081e5761081e611e05565b016020015160f81c606c0361084e578161083d8661074c846001611d2a565b6040516020016107649291906120ba565b84818151811061086057610860611e05565b016020015160f81c6043036108b457816108868661087f846001611d2a565b6006610ee1565b6040516020016108979291906120ea565b60408051601f198184030181529190529150610781600682611d2a565b8481815181106108c6576108c6611e05565b016020015160f81c60560361091d57816108e86104a487610256856001611d2a565b6040516020016108f992919061211a565b604051602081830303815290604052915080806109159061214a565b915050610c06565b84818151811061092f5761092f611e05565b016020015160f81c60760361096257816109516104a487610256856001611d2a565b6040516020016108f9929190612163565b84818151811061097457610974611e05565b016020015160f81c6048036109a757816109966104a487610256856001611d2a565b6040516020016108f9929190612193565b8481815181106109b9576109b9611e05565b016020015160f81c6068036109ec57816109db6104a487610256856001611d2a565b6040516020016108f99291906121c3565b8481815181106109fe576109fe611e05565b016020015160f81c605303610a525781610a2486610a1d846001611d2a565b6004610ee1565b604051602001610a359291906121f3565b60408051601f198184030181529190529150610781600482611d2a565b848181518110610a6457610a64611e05565b016020015160f81c607303610a945781610a8386610a1d846001611d2a565b604051602001610a35929190612223565b848181518110610aa657610aa6611e05565b016020015160f81c604103610afa5781610acc86610ac5846001611d2a565b6007610ee1565b604051602001610add929190612253565b60408051601f198184030181529190529150610781600782611d2a565b848181518110610b0c57610b0c611e05565b016020015160f81c606103610b3c5781610b2b86610ac5846001611d2a565b604051602001610a35929190612283565b848181518110610b4e57610b4e611e05565b016020015160f81c605a03610b845781604051602001610b6e91906122b3565b6040516020818303038152906040529150610c06565b848181518110610b9657610b96611e05565b016020015160f81c607a03610bb65781604051602001610b6e91906122d8565b81610bc08261128a565b610be2878481518110610bd557610bd5611e05565b016020015160f81c61128a565b604051602001610bf4939291906122fd565b60405160208183030381529060405291505b80610c108161214a565b915050610712565b508083610c2486611183565b604051602001610c369392919061235d565b60405160208183030381529060405291505092915050565b60608585610c5b896104f5565b610c678760ff1661128a565b610c708761041e565b86604051602001610c86969594939291906123b1565b60405160208183030381529060405290509695505050505050565b6060610cb16104a48460016105bf565b610cbf6104a48560026105bf565b610ccd6104a48660036105bf565b84610cd787611183565b60405160200161047d9594939291906124bd565b6060610cfb6104a48460016105bf565b610d096104a48560026105bf565b610d176104a48660036105bf565b610d256104a48760046105bf565b85610d2f88611183565b60405160200161047d96959493929190612582565b6060808360400151604051602001610d5c9190612661565b6040516020818303038152906040529050836000015160011660ff16600103610dab576060840151604051610d959183916020016126a0565b6040516020818303038152906040529050610dfc565b836060015151600403610dd95780610dc88560600151600061112b565b604051602001610d95929190611cef565b80604051602001610dea91906126ee565b60405160208183030381529060405290505b835160029081169003610e35576080840151604051610e1f918391602001612717565b6040516020818303038152906040529050610e75565b836080015151600403610e755780610e528560800151600061112b565b604051602001610e6392919061276c565b60405160208183030381529060405290505b80610e86856020015160ff1661128a565b604051602001610e979291906127bc565b60405160208183030381529060405290508083604051602001610c36929190612812565b6060818360405160200161047d929190612855565b606061068086868686600087610c4e565b606080610eee8385611d2a565b85511015610f2d5760405162461bcd60e51b815260206004820152600c60248201526b4f7574206f662072616e676560a01b60448201526064016105fc565b835b610f398486611d2a565b811015610f835781610f4e6104a488846105bf565b604051602001610f5f9291906128b1565b60405160208183030381529060405291508080610f7b9061214a565b915050610f2f565b50949350505050565b60608060006001905085600081518110610fa857610fa8611e05565b60209101015160f81c6080908116900361101d57610fca6104a48760016105bf565b610fd86104a48860026105bf565b610fe66104a48960036105bf565b610ff46104a48a60046105bf565b60405160200161100794939291906128ec565b6040516020818303038152906040529150600590505b848483604051602001611032939291906129a0565b60408051601f19818403018152919052915060ff81165b86518110156110b557826110606104a489846105bf565b61106f896103cd856001611d2a565b8861107d6104a48c876105bf565b604051602001611091959493929190612a23565b60408051601f1981840301815291905292506110ae600582611d2a565b9050611049565b50816040516020016110c79190612aec565b604051602081830303815290604052925050509392505050565b6060816040516020016110f49190612b21565b6040516020818303038152906040529050919050565b60606111198360006004610ee1565b8260405160200161047d929190612b60565b606061113a6104a484846105bf565b61114c6104a485610256866001611d2a565b61115e6104a486610256876002611d2a565b6111706104a487610256886003611d2a565b60405160200161047d9493929190612bf8565b60606111908260006105bf565b6001166000036111b957505060408051808201909152600381526210179f60e91b602082015290565b50506040805180820190915260018152601f60f91b602082015290565b60606111e66104a48460016105bf565b6111f46104a48560026105bf565b6112026104a48660036105bf565b6112106104a48760046105bf565b8561121a88611183565b60405160200161047d96959493929190612c90565b606061045d8260405180602001604052806000815250610d44565b60608561125686611392565b6112628660ff1661128a565b61126b8661041e565b6112748b6104f5565b86604051602001610c8696959493929190612d69565b6060816000036112b15750506040805180820190915260018152600360fc1b602082015290565b8160005b81156112db57806112c58161214a565b91506112d49050600a83612e9d565b91506112b5565b6000816001600160401b038111156112f5576112f561155d565b6040519080825280601f01601f19166020018201604052801561131f576020820181803683370190505b5090505b841561138a57611334600183611cd8565b9150611341600a86612eb1565b61134c906030611d2a565b60f81b81838151811061136157611361611e05565b60200101906001600160f81b031916908160001a905350611383600a86612e9d565b9450611323565b949350505050565b606060008260048111156113a8576113a8612ec5565b036113d25750506040805180820190915260098152687472616e736c61746560b81b602082015290565b60018260048111156113e6576113e6612ec5565b0361140c5750506040805180820190915260058152647363616c6560d81b602082015290565b600282600481111561142057611420612ec5565b03611447575050604080518082019091526006815265726f7461746560d01b602082015290565b600382600481111561145b5761145b612ec5565b036114815750506040805180820190915260058152640e6d6caeeb60db1b602082015290565b600482600481111561149557611495612ec5565b03610463575050604080518082019091526005815264736b65775960d81b602082015290565b803560ff8116811461046357600080fd5b6000602082840312156114de57600080fd5b6114e7826114bb565b9392505050565b60005b838110156115095781810151838201526020016114f1565b83811115611518576000848401525b50505050565b600081518084526115368160208601602086016114ee565b601f01601f19169290920160200192915050565b6020815260006114e7602083018461151e565b634e487b7160e01b600052604160045260246000fd5b60405160a081016001600160401b03811182821017156115955761159561155d565b60405290565b600082601f8301126115ac57600080fd5b81356001600160401b03808211156115c6576115c661155d565b604051601f8301601f19908116603f011681019082821181831017156115ee576115ee61155d565b8160405283815286602085880101111561160757600080fd5b836020870160208301376000602085830101528094505050505092915050565b6000806040838503121561163a57600080fd5b82356001600160401b038082111561165157600080fd5b61165d8683870161159b565b9350602085013591508082111561167357600080fd5b506116808582860161159b565b9150509250929050565b60006020828403121561169c57600080fd5b81356001600160401b038111156116b257600080fd5b61138a8482850161159b565b6000806000606084860312156116d357600080fd5b83356001600160401b03808211156116ea57600080fd5b6116f68783880161159b565b9450602086013591508082111561170c57600080fd5b6117188783880161159b565b9350604086013591508082111561172e57600080fd5b5061173b8682870161159b565b9150509250925092565b6000806040838503121561175857600080fd5b82356001600160401b0381111561176e57600080fd5b61177a8582860161159b565b95602094909401359450505050565b80356005811061046357600080fd5b600080600080600060a086880312156117b057600080fd5b85356001600160401b03808211156117c757600080fd5b6117d389838a0161159b565b965060208801359150808211156117e957600080fd5b6117f589838a0161159b565b955061180360408901611789565b9450611811606089016114bb565b9350608088013591508082111561182757600080fd5b506118348882890161159b565b9150509295509295909350565b60008060008060008060c0878903121561185a57600080fd5b86356001600160401b038082111561187157600080fd5b61187d8a838b0161159b565b9750602089013591508082111561189357600080fd5b61189f8a838b0161159b565b965060408901359150808211156118b557600080fd5b6118c18a838b0161159b565b95506118cf60608a016114bb565b94506118dd60808a016114bb565b935060a08901359150808211156118f357600080fd5b5061190089828a0161159b565b9150509295509295509295565b600060a0828403121561191f57600080fd5b611927611573565b9050611932826114bb565b8152611940602083016114bb565b602082015260408201356001600160401b038082111561195f57600080fd5b61196b8583860161159b565b6040840152606084013591508082111561198457600080fd5b6119908583860161159b565b606084015260808401359150808211156119a957600080fd5b506119b68482850161159b565b60808301525092915050565b600080604083850312156119d557600080fd5b82356001600160401b03808211156119ec57600080fd5b61165d8683870161190d565b600080600080600060a08688031215611a1057600080fd5b85356001600160401b0380821115611a2757600080fd5b611a3389838a0161159b565b96506020880135915080821115611a4957600080fd5b611a5589838a0161159b565b95506040880135915080821115611a6b57600080fd5b61180389838a0161159b565b600080600060608486031215611a8c57600080fd5b83356001600160401b03811115611aa257600080fd5b611aae8682870161159b565b9660208601359650604090950135949350505050565b600060208284031215611ad657600080fd5b81356001600160401b03811115611aec57600080fd5b61138a8482850161190d565b60008060008060008060c08789031215611b1157600080fd5b86356001600160401b0380821115611b2857600080fd5b611b348a838b0161159b565b97506020890135915080821115611b4a57600080fd5b611b568a838b0161159b565b96506118c160408a01611789565b60008151611b768185602086016114ee565b9290920192915050565b6501e36b0b9b5960d51b815260008351611ba18160068501602088016114ee565b601f60f91b6006918401918201528351611bc28160078401602088016114ee565b661e17b6b0b9b59f60c91b60079290910191820152600e01949350505050565b691e3634b732903c189e9160b11b815286516000906020611c0982600a8601838d016114ee565b6a171818181891103c989e9160a91b600a928501928301528851611c338160158501848d016114ee565b6a171818181891103c191e9160a91b601593909101928301528751611c5d81838501848c016114ee565b6511103c991e9160d11b9201818101929092528651611c8281602685018a85016114ee565b61011160f51b602693909101928301528551611ca48160288501848a016114ee565b611cb360288285010187611b64565b9b9a5050505050505050505050565b634e487b7160e01b600052601160045260246000fd5b600082821015611cea57611cea611cc2565b500390565b60008351611d018184602088016114ee565b835190830190611d158183602088016114ee565b603b60f81b9101908152600101949350505050565b60008219821115611d3d57611d3d611cc2565b500190565b6401e3ab9b2960dd1b815265343932b31e9160d11b60058201528551600090611d7281600b850160208b016114ee565b6411103c1e9160d91b600b918401918201528651611d97816010840160208b016114ee565b6411103c9e9160d91b601092909101918201528551611dbd816015840160208a016114ee565b61011160f51b601592909101918201528451611de08160178401602089016114ee565b8451910190611df68160178401602088016114ee565b01601701979650505050505050565b634e487b7160e01b600052603260045260246000fd5b681e3a32bc3a103c1e9160b91b81528451600090611e40816009850160208a016114ee565b6411103c9e9160d91b6009918401918201528551611e6581600e840160208a016114ee565b61011160f51b600e92909101918201528451611e888160108401602089016114ee565b601f60f91b601092909101918201528351611eaa8160118401602088016114ee565b661e17ba32bc3a1f60c91b601192909101918201526018019695505050505050565b6b1e39bcb6b137b61034b21e9160a11b81528251600090611ef481600c8501602088016114ee565b61111f60f11b600c918401918201528351611f1681600e8401602088016114ee565b681e17b9bcb6b137b61f60b91b600e9290910191820152601701949350505050565b721e3837b63cb634b73290103837b4b73a399e9160691b81528351600090611f678160138501602089016114ee565b61011160f51b6013918401918201528451611f898160158401602089016114ee565b8451910190611f9f8160158401602088016114ee565b0160150195945050505050565b701e3837b63cb3b7b7103837b4b73a399e9160791b81528351600090611fd98160118501602089016114ee565b61011160f51b6011918401918201528451611ffb8160138401602089016114ee565b84519101906120118160138401602088016114ee565b0160130195945050505050565b600083516120308184602088016114ee565b604d60f81b908301908152835161204e8160018401602088016114ee565b01600101949350505050565b6000835161206c8184602088016114ee565b606d60f81b908301908152835161204e8160018401602088016114ee565b6000835161209c8184602088016114ee565b601360fa1b908301908152835161204e8160018401602088016114ee565b600083516120cc8184602088016114ee565b601b60fa1b908301908152835161204e8160018401602088016114ee565b600083516120fc8184602088016114ee565b604360f81b908301908152835161204e8160018401602088016114ee565b6000835161212c8184602088016114ee565b602b60f91b908301908152835161204e8160018401602088016114ee565b60006001820161215c5761215c611cc2565b5060010190565b600083516121758184602088016114ee565b603b60f91b908301908152835161204e8160018401602088016114ee565b600083516121a58184602088016114ee565b600960fb1b908301908152835161204e8160018401602088016114ee565b600083516121d58184602088016114ee565b600d60fb1b908301908152835161204e8160018401602088016114ee565b600083516122058184602088016114ee565b605360f81b908301908152835161204e8160018401602088016114ee565b600083516122358184602088016114ee565b607360f81b908301908152835161204e8160018401602088016114ee565b600083516122658184602088016114ee565b604160f81b908301908152835161204e8160018401602088016114ee565b600083516122958184602088016114ee565b606160f81b908301908152835161204e8160018401602088016114ee565b600082516122c58184602087016114ee565b602d60f91b920191825250600101919050565b600082516122ea8184602087016114ee565b603d60f91b920191825250600101919050565b6000845161230f8184602089016114ee565b61151560f11b908301908152845161232e8160028401602089016114ee565b602d60f81b6002929091019182015283516123508160038401602088016114ee565b0160030195945050505050565b6000845161236f8184602089016114ee565b61011160f51b908301908152845161238e8160028401602089016114ee565b84519101906123a48160028401602088016114ee565b0160020195945050505050565b6e1e30b734b6b0ba3290343932b31e9160891b8152865160009060206123dd82600f8601838d016114ee565b70111030ba3a3934b13aba32a730b6b29e9160791b600f92850192830152885161240c81838501848d016114ee565b6911103b30b63ab2b99e9160b11b920181810192909252875161243581602a85018b85016114ee565b661110323ab91e9160c91b602a9390910192830152865161245c8160318501848b016114ee565b6f3991103932b832b0ba21b7bab73a1e9160811b60319390910192830152855161248c8160418501848a016114ee565b611cb36124af6124a960418487010161011160f51b815260020190565b88611b64565b61179f60f11b815260020190565b6701e31b4b931b632960c51b81526331bc1e9160e11b600882015285516000906124ee81600c850160208b016114ee565b65111031bc9e9160d11b600c918401918201528651612514816012840160208b016114ee565b641110391e9160d91b60129290910191820152855161253a816017840160208a016114ee565b61011160f51b60179290910191820152845161255d8160198401602089016114ee565b84519101906125738160198401602088016114ee565b01601901979650505050505050565b681e3932b1ba103c1e9160b91b815286516000906125a7816009850160208c016114ee565b6411103c9e9160d91b60099184019182015287516125cc81600e840160208c016114ee565b6811103bb4b23a341e9160b91b600e929091019182015286516125f6816017840160208b016114ee565b6911103432b4b3b43a1e9160b11b601792909101918201528551612621816021840160208a016114ee565b61011160f51b6021929091019182015284516126448160238401602089016114ee565b61265360238284010186611b64565b9a9950505050505050505050565b661e39ba3cb6329f60c91b8152600082516126838160078501602087016114ee565b653db334b6361d60d11b6007939091019283015250600d01919050565b600083516126b28184602088016114ee565b630eae4d8560e31b90830190815283516126d38160048401602088016114ee565b61293b60f01b60049290910191820152600601949350505050565b600082516127008184602087016114ee565b646e6f6e653b60d81b920191825250600501919050565b600083516127298184602088016114ee565b6a0e6e8e4ded6ca74eae4d8560ab1b908301908152835161275181600b8401602088016114ee565b61293b60f01b600b9290910191820152600d01949350505050565b6000835161277e8184602088016114ee565b6639ba3937b5b29d60c91b90830190815283516127a28160078401602088016114ee565b603b60f81b60079290910191820152600801949350505050565b600083516127ce8184602088016114ee565b6c39ba3937b5b296bbb4b23a341d60991b90830190815283516127f881600d8401602088016114ee565b603b60f81b600d9290910191820152600e01949350505050565b600083516128248184602088016114ee565b8351908301906128388183602088016114ee565b683e9e17b9ba3cb6329f60b91b9101908152600901949350505050565b6201e33960ed1b8152600083516128738160038501602088016114ee565b601f60f91b60039184019182015283516128948160048401602088016114ee565b631e17b39f60e11b60049290910191820152600801949350505050565b600083516128c38184602088016114ee565b8351908301906128d78183602088016114ee565b600160fd1b9101908152600101949350505050565b633c189e9160e11b8152845160009061290c816004850160208a016114ee565b661291103c191e9160c91b600491840191820152855161293381600b840160208a016114ee565b661291103c989e9160c91b600b9290910191820152845161295b8160128401602089016114ee565b661291103c991e9160c91b6012929091019182015283516129838160198401602088016114ee565b61129160f11b60199290910191820152601b019695505050505050565b731e3634b732b0b923b930b234b2b73a1034b21e9160611b815283516000906129d08160148501602089016114ee565b61011160f51b60149184019182015284516129f28160168401602089016114ee565b8451910190612a088160168401602088016114ee565b601f60f91b6016929091019182015260170195945050505050565b60008651612a35818460208b016114ee565b6d1e39ba37b81037b33339b2ba1e9160911b9083019081528651612a6081600e840160208b016114ee565b6e12911039ba37b816b1b7b637b91e9160891b600e92909101918201528551612a9081601d840160208a016114ee565b65111034b21e9160d11b601d92909101918201528451612ab78160238401602089016114ee565b8451910190612acd8160238401602088016114ee565b6211179f60e91b60239290910191820152602601979650505050505050565b60008251612afe8184602087016114ee565b701e17b634b732b0b923b930b234b2b73a1f60791b920191825250601101919050565b651e3232b3399f60d11b815260008251612b428160068501602087016114ee565b661e17b232b3399f60c91b6006939091019283015250600d01919050565b6401e39bb33960dd1b8152683b34b2bba137bc1e9160b91b60058201528251600090612b9381600e8501602088016114ee565b7f2220786d6c6e733d22687474703a2f2f7777772e77332e6f72672f323030302f600e9184019182015264039bb3391160dd1b602e8201528351612bde8160338401602088016114ee565b601f60f91b60339290910191820152603401949350505050565b640e4cec4c2560db1b815260008551612c18816005850160208a016114ee565b8083019050600b60fa1b8060058301528651612c3b816006850160208b016114ee565b600692019182018190528551612c58816007850160208a016114ee565b60079201918201528351612c738160088401602088016114ee565b61252960f01b60089290910191820152600a019695505050505050565b6801e32b63634b839b2960bd1b81526331bc1e9160e11b60098201528651600090612cc281600d850160208c016114ee565b65111031bc9e9160d11b600d918401918201528751612ce8816013840160208c016114ee565b651110393c1e9160d11b601392909101918201528651612d0f816019840160208b016114ee565b651110393c9e9160d11b601992909101918201528551612d3681601f840160208a016114ee565b61011160f51b601f9290910191820152612d5c612d566021830187611b64565b85611b64565b9998505050505050505050565b7f3c616e696d6174655472616e73666f726d20687265663d220000000000000000815260008751612da1816018850160208c016114ee565b7f22206174747269627574654e616d653d227472616e73666f726d222074797065601891840191820152611e9160f11b60388201528751612de981603a840160208c016114ee565b661110323ab91e9160c91b603a92909101918201528651612e11816041840160208b016114ee565b6f3991103932b832b0ba21b7bab73a1e9160811b604192909101918201528551612e42816051840160208a016114ee565b6126536124af612e81612e73612e6d6051868801016911103b30b63ab2b99e9160b11b8152600a0190565b8a611b64565b61011160f51b815260020190565b87611b64565b634e487b7160e01b600052601260045260246000fd5b600082612eac57612eac612e87565b500490565b600082612ec057612ec0612e87565b500690565b634e487b7160e01b600052602160045260246000fdfea2646970667358221220dd9fd66c2ea31f563cc25f2f6560079c0f9b906780f8c6654fcfd86af8ee95c664736f6c634300080d0033",
  "devdoc": {
    "kind": "dev",
    "methods": {},
    "version": 1
  },
  "userdoc": {
    "kind": "user",
    "methods": {},
    "version": 1
  },
  "storageLayout": {
    "storage": [],
    "types": null
  }
}