{
  "address": "0x5FC8d32690cc91D4c39d9d3abcBD16989F875707",
  "abi": [
    {
      "inputs": [],
      "stateMutability": "nonpayable",
      "type": "constructor"
    },
    {
      "inputs": [
        {
          "internalType": "bytes",
          "name": "_colors",
          "type": "bytes"
        },
        {
          "internalType": "bytes",
          "name": "_id",
          "type": "bytes"
        },
        {
          "internalType": "bytes",
          "name": "_customAttributes",
          "type": "bytes"
        }
      ],
      "name": "autoLinearGradient",
      "outputs": [
        {
          "internalType": "bytes",
          "name": "",
          "type": "bytes"
        }
      ],
      "stateMutability": "view",
      "type": "function"
    },
    {
      "inputs": [
        {
          "internalType": "bytes",
          "name": "_coordinates",
          "type": "bytes"
        },
        {
          "internalType": "bytes",
          "name": "_colors",
          "type": "bytes"
        },
        {
          "internalType": "bytes",
          "name": "_id",
          "type": "bytes"
        },
        {
          "internalType": "bytes",
          "name": "_customAttributes",
          "type": "bytes"
        }
      ],
      "name": "autoLinearGradient",
      "outputs": [
        {
          "internalType": "bytes",
          "name": "",
          "type": "bytes"
        }
      ],
      "stateMutability": "view",
      "type": "function"
    },
    {
      "inputs": [
        {
          "internalType": "string",
          "name": "",
          "type": "string"
        }
      ],
      "name": "colors",
      "outputs": [
        {
          "internalType": "bytes",
          "name": "",
          "type": "bytes"
        }
      ],
      "stateMutability": "view",
      "type": "function"
    },
    {
      "inputs": [
        {
          "internalType": "string",
          "name": "_colorName",
          "type": "string"
        },
        {
          "internalType": "uint8",
          "name": "_alpha",
          "type": "uint8"
        }
      ],
      "name": "getColor",
      "outputs": [
        {
          "internalType": "bytes",
          "name": "",
          "type": "bytes"
        }
      ],
      "stateMutability": "view",
      "type": "function"
    },
    {
      "inputs": [
        {
          "internalType": "string",
          "name": "_colorName",
          "type": "string"
        }
      ],
      "name": "getColor",
      "outputs": [
        {
          "internalType": "bytes",
          "name": "",
          "type": "bytes"
        }
      ],
      "stateMutability": "view",
      "type": "function"
    },
    {
      "inputs": [
        {
          "internalType": "uint256",
          "name": "_value",
          "type": "uint256"
        },
        {
          "internalType": "uint8",
          "name": "_decimals",
          "type": "uint8"
        },
        {
          "internalType": "uint8",
          "name": "_prec",
          "type": "uint8"
        }
      ],
      "name": "round2Txt",
      "outputs": [
        {
          "internalType": "bytes",
          "name": "",
          "type": "bytes"
        }
      ],
      "stateMutability": "pure",
      "type": "function"
    },
    {
      "inputs": [
        {
          "internalType": "bytes",
          "name": "_size",
          "type": "bytes"
        },
        {
          "internalType": "bytes",
          "name": "_svgAttrs",
          "type": "bytes"
        },
        {
          "internalType": "bytes",
          "name": "_rectAttrs",
          "type": "bytes"
        }
      ],
      "name": "startSvgRect",
      "outputs": [
        {
          "internalType": "bytes",
          "name": "",
          "type": "bytes"
        }
      ],
      "stateMutability": "view",
      "type": "function"
    }
  ],
  "transactionHash": "0x49fb27cd975e4922b4ad47d1f1ec708a2a4d74b51acb42716c174ee1e735ad41",
  "args": [],
  "numDeployments": 1,
  "solcInputHash": "1d5a56a1078f935190c56fe6e8e932bb",
  "bytecode": "0x60806040523480156200001157600080fd5b5060405180604001604052806003815260200160008152506000604051620000449064426c61636b60d81b815260050190565b908152602001604051809103902090805190602001906200006792919062000627565b50604080518082018252600381526001600160e81b031960208201908152825164576869746560d81b8152600060058201529251928390036025019092209051620000b3929062000627565b50604080518082018252600381526207010160ed1b6020820190815282516414d194995960da1b8152600060058201529251928390036025019092209051620000fd929062000627565b506040805180820182526003815262042ecd60ea1b6020820190815282516629a323b932b2b760c91b815260006007820152925192839003602701909220905162000149929062000627565b5060408051808201825260038152625b284f60e91b60208201908152825164416176653160d81b815260006005820152925192839003602501909220905162000193929062000627565b506040805180820182526003815262175d6360e91b6020820190815282516420b0bb329960d91b8152600060058201529251928390036025019092209051620001dd929062000627565b5060408051808201825260038152600160ef1b602082019081528251634e61767960e01b815260006004820152925192839003602401909220905162000224929062000627565b506040805180820182526003815260cd60e81b602082019081528251694d656469756d426c756560b01b81526000600a820152925192839003602a01909220905162000271929062000627565b5060408051808201825260038152600160f71b6020820190815282516423b932b2b760d91b8152600060058201529251928390036025019092209051620002b9929062000627565b5060408051808201825260038152601960f21b602082019081528251682230b935a3b932b2b760b91b815260006009820152925192839003602901909220905162000305929062000627565b5060408051808201825260038152600160ff1b6020820190815282516526b0b937b7b760d11b81526000600682015292519283900360260190922090516200034e929062000627565b506040518060400160405280600381526020017fff0000000000000000000000000000000000000000000000000000000000000081525060006040516200039e906214995960ea1b815260030190565b90815260200160405180910390209080519060200190620003c192919062000627565b506040805180820182526003815260ff60f01b602082019081528251634c696d6560e01b815260006004820152925192839003602401909220905162000408929062000627565b506040805180820182526003815262a9a9a960e81b602082019081528251674461726b4772657960c01b815260006008820152925192839003602801909220905162000455929062000627565b50604080518082018252600381526001602960f01b03196020820190815282516311dbdb1960e21b8152600060048201529251928390036024019092209051620004a0929062000627565b50604080518082018252600381526001600160f01b03196020820190815282516559656c6c6f7760d01b8152600060068201529251928390036026019092209051620004ed929062000627565b506040805180820182526003815260ff60e81b60208201908152825163426c756560e01b815260006004820152925192839003602401909220905162000534929062000627565b506040805180820182526003815262f8f8ff60e81b6020820190815282516947686f7374576869746560b01b81526000600a820152925192839003602a01909220905162000583929062000627565b506040805180820182526003815262d3d3d360e81b602082019081528251684c696768744772657960b81b8152600060098201529251928390036029019092209051620005d1929062000627565b5060408051808201825260038152629400d360e81b6020820190815282516911185c9ad59a5bdb195d60b21b81526000600a820152925192839003602a01909220905162000620929062000627565b5062000709565b8280546200063590620006cd565b90600052602060002090601f016020900481019282620006595760008555620006a4565b82601f106200067457805160ff1916838001178555620006a4565b82800160010185558215620006a4579182015b82811115620006a457825182559160200191906001019062000687565b50620006b2929150620006b6565b5090565b5b80821115620006b25760008155600101620006b7565b600181811c90821680620006e257607f821691505b6020821081036200070357634e487b7160e01b600052602260045260246000fd5b50919050565b6111c580620007196000396000f3fe608060405234801561001057600080fd5b506004361061007d5760003560e01c8063525f36541161005b578063525f3654146100d15780638b62dfda146100e4578063b0187570146100f7578063d6412c271461010a57600080fd5b80630135df001461008257806340c629fe146100ab5780634b698358146100be575b600080fd5b61009561009036600461094f565b61011d565b6040516100a29190610a33565b60405180910390f35b6100956100b9366004610a4d565b610264565b6100956100cc36600461094f565b610309565b6100956100df366004610a98565b610380565b6100956100f2366004610ae6565b610439565b610095610105366004610a4d565b6104bf565b610095610118366004610b22565b61056f565b604051630e49f2cd60e41b815260609073Dc64a140Aa3E981100a9becA4E685f962f0cF6C99063e49f2cd0906101599087908790600401610bcf565b600060405180830381865af4158015610176573d6000803e3d6000fd5b505050506040513d6000823e601f3d908101601f1916820160405261019e9190810190610bfd565b73Dc64a140Aa3E981100a9becA4E685f962f0cF6C963b0c294d8866040516020016101c99190610c6b565b604051602081830303815290604052856040518363ffffffff1660e01b81526004016101f6929190610bcf565b600060405180830381865af4158015610213573d6000803e3d6000fd5b505050506040513d6000823e601f3d908101601f1916820160405261023b9190810190610bfd565b60405160200161024c929190610c91565b60405160208183030381529060405290509392505050565b80516020818301810180516000825292820191909301209152805461028890610cc0565b80601f01602080910402602001604051908101604052809291908181526020018280546102b490610cc0565b80156103015780601f106102d657610100808354040283529160200191610301565b820191906000526020600020905b8154815290600101906020018083116102e457829003601f168201915b505050505081565b60405163d6412c2760e01b8152606090309063d6412c279061033390879087908790600401610cfa565b600060405180830381865afa158015610350573d6000803e3d6000fd5b505050506040513d6000823e601f3d908101601f191682016040526103789190810190610bfd565b949350505050565b60606000836040516103929190610d4b565b908152602001604051809103902080546103ab90610cc0565b90506003146103f15760405162461bcd60e51b815260206004820152600d60248201526c2ab735b737bbb71031b7b637b960991b60448201526064015b60405180910390fd5b6000836040516104019190610d4b565b908152602001604051809103902082604051602001610421929190610e00565b60405160208183030381529060405290505b92915050565b606061045861044984600a610f22565b6104539086610f47565b610789565b6104ae61046684600a610f22565b61047186600a610f22565b61047b9088610f47565b6104859190610f5b565b61048f8587610f7a565b61049a90600a610f22565b6104a49088610f47565b6104539190610f9d565b60405160200161024c929190610fb4565b60606000826040516104d19190610d4b565b908152602001604051809103902080546104ea90610cc0565b905060031461052b5760405162461bcd60e51b815260206004820152600d60248201526c2ab735b737bbb71031b7b637b960991b60448201526064016103e8565b60008260405161053b9190610d4b565b90815260200160405180910390206040516020016105599190610ff0565b6040516020818303038152906040529050919050565b6060806003865111156105a65760808660405160200161059092919061100d565b60405160208183030381529060405290506105bd565b506040805180820190915260018152600060208201525b6000600486516105cd9190610f47565b905060005b818160ff1610156106fd57826105e9600184610f9d565b6105f4906064610f47565b6106019060ff8416610f5b565b8861060d84600461103c565b60ff16815181106106205761062061105d565b016020015160f81c8961063485600461103c565b61063f906001611073565b60ff16815181106106525761065261105d565b016020015160f81c8a61066686600461103c565b610671906002611073565b60ff16815181106106845761068461105d565b016020015160f81c8b61069887600461103c565b6106a3906003611073565b60ff16815181106106b6576106b661105d565b602001015160f81c60f81b60f81c6040516020016106d996959493929190611098565b604051602081830303815290604052925080806106f5906110f2565b9150506105d2565b60405163cf0eca0960e01b815273Dc64a140Aa3E981100a9becA4E685f962f0cF6C99063cf0eca09906107389086908a908a90600401611111565b600060405180830381865af4158015610755573d6000803e3d6000fd5b505050506040513d6000823e601f3d908101601f1916820160405261077d9190810190610bfd565b98975050505050505050565b6060816000036107b05750506040805180820190915260018152600360fc1b602082015290565b8160005b81156107da57806107c48161114a565b91506107d39050600a83610f47565b91506107b4565b60008167ffffffffffffffff8111156107f5576107f561088a565b6040519080825280601f01601f19166020018201604052801561081f576020820181803683370190505b5090505b841561037857610834600183610f9d565b9150610841600a86611163565b61084c906030611177565b60f81b8183815181106108615761086161105d565b60200101906001600160f81b031916908160001a905350610883600a86610f47565b9450610823565b634e487b7160e01b600052604160045260246000fd5b604051601f8201601f1916810167ffffffffffffffff811182821017156108c9576108c961088a565b604052919050565b600067ffffffffffffffff8211156108eb576108eb61088a565b50601f01601f191660200190565b600082601f83011261090a57600080fd5b813561091d610918826108d1565b6108a0565b81815284602083860101111561093257600080fd5b816020850160208301376000918101602001919091529392505050565b60008060006060848603121561096457600080fd5b833567ffffffffffffffff8082111561097c57600080fd5b610988878388016108f9565b9450602086013591508082111561099e57600080fd5b6109aa878388016108f9565b935060408601359150808211156109c057600080fd5b506109cd868287016108f9565b9150509250925092565b60005b838110156109f25781810151838201526020016109da565b83811115610a01576000848401525b50505050565b60008151808452610a1f8160208601602086016109d7565b601f01601f19169290920160200192915050565b602081526000610a466020830184610a07565b9392505050565b600060208284031215610a5f57600080fd5b813567ffffffffffffffff811115610a7657600080fd5b610378848285016108f9565b803560ff81168114610a9357600080fd5b919050565b60008060408385031215610aab57600080fd5b823567ffffffffffffffff811115610ac257600080fd5b610ace858286016108f9565b925050610add60208401610a82565b90509250929050565b600080600060608486031215610afb57600080fd5b83359250610b0b60208501610a82565b9150610b1960408501610a82565b90509250925092565b60008060008060808587031215610b3857600080fd5b843567ffffffffffffffff80821115610b5057600080fd5b610b5c888389016108f9565b95506020870135915080821115610b7257600080fd5b610b7e888389016108f9565b94506040870135915080821115610b9457600080fd5b610ba0888389016108f9565b93506060870135915080821115610bb657600080fd5b50610bc3878288016108f9565b91505092959194509250565b604081526000610be26040830185610a07565b8281036020840152610bf48185610a07565b95945050505050565b600060208284031215610c0f57600080fd5b815167ffffffffffffffff811115610c2657600080fd5b8201601f81018413610c3757600080fd5b8051610c45610918826108d1565b818152856020838501011115610c5a57600080fd5b610bf48260208301602086016109d7565b6000815260008251610c848160018501602087016109d7565b9190910160010192915050565b60008351610ca38184602088016109d7565b835190830190610cb78183602088016109d7565b01949350505050565b600181811c90821680610cd457607f821691505b602082108103610cf457634e487b7160e01b600052602260045260246000fd5b50919050565b608081526000608082015260a060208201526000610d1b60a0830186610a07565b8281036040840152610d2d8186610a07565b90508281036060840152610d418185610a07565b9695505050505050565b60008251610d5d8184602087016109d7565b9190910192915050565b8054600090600181811c9080831680610d8157607f831692505b60208084108203610da257634e487b7160e01b600052602260045260246000fd5b818015610db65760018114610dc757610df4565b60ff19861689528489019650610df4565b60008881526020902060005b86811015610dec5781548b820152908501908301610dd3565b505084890196505b50505050505092915050565b6000610e0c8285610d67565b60f89390931b6001600160f81b03191683525050600101919050565b634e487b7160e01b600052601160045260246000fd5b600181815b80851115610e79578160001904821115610e5f57610e5f610e28565b80851615610e6c57918102915b93841c9390800290610e43565b509250929050565b600082610e9057506001610433565b81610e9d57506000610433565b8160018114610eb35760028114610ebd57610ed9565b6001915050610433565b60ff841115610ece57610ece610e28565b50506001821b610433565b5060208310610133831016604e8410600b8410161715610efc575081810a610433565b610f068383610e3e565b8060001904821115610f1a57610f1a610e28565b029392505050565b6000610a4660ff841683610e81565b634e487b7160e01b600052601260045260246000fd5b600082610f5657610f56610f31565b500490565b6000816000190483118215151615610f7557610f75610e28565b500290565b600060ff821660ff841680821015610f9457610f94610e28565b90039392505050565b600082821015610faf57610faf610e28565b500390565b60008351610fc68184602088016109d7565b601760f91b9083019081528351610fe48160018401602088016109d7565b01600101949350505050565b6000610ffc8284610d67565b601960fa1b81526001019392505050565b60ff60f81b8360f81b1681526000825161102e8160018501602087016109d7565b919091016001019392505050565b600060ff821660ff84168160ff0481118215151615610f1a57610f1a610e28565b634e487b7160e01b600052603260045260246000fd5b600060ff821660ff84168060ff0382111561109057611090610e28565b019392505050565b600087516110aa818460208c016109d7565b60f897881b6001600160f81b03199081169390910192835295871b861660018301525092851b8416600284015290841b8316600383015290921b166004820152600501919050565b600060ff821660ff810361110857611108610e28565b60010192915050565b6060815260006111246060830186610a07565b82810360208401526111368186610a07565b90508281036040840152610d418185610a07565b60006001820161115c5761115c610e28565b5060010190565b60008261117257611172610f31565b500690565b6000821982111561118a5761118a610e28565b50019056fea264697066735822122049743a4b25a8642d02959b78cc450feb2bf80838561ab2ca3332d57bee1a195264736f6c634300080d0033",
  "deployedBytecode": "0x608060405234801561001057600080fd5b506004361061007d5760003560e01c8063525f36541161005b578063525f3654146100d15780638b62dfda146100e4578063b0187570146100f7578063d6412c271461010a57600080fd5b80630135df001461008257806340c629fe146100ab5780634b698358146100be575b600080fd5b61009561009036600461094f565b61011d565b6040516100a29190610a33565b60405180910390f35b6100956100b9366004610a4d565b610264565b6100956100cc36600461094f565b610309565b6100956100df366004610a98565b610380565b6100956100f2366004610ae6565b610439565b610095610105366004610a4d565b6104bf565b610095610118366004610b22565b61056f565b604051630e49f2cd60e41b815260609073__$72447f1b2f145aca09ac0141c77e8da5f9$__9063e49f2cd0906101599087908790600401610bcf565b600060405180830381865af4158015610176573d6000803e3d6000fd5b505050506040513d6000823e601f3d908101601f1916820160405261019e9190810190610bfd565b73__$72447f1b2f145aca09ac0141c77e8da5f9$__63b0c294d8866040516020016101c99190610c6b565b604051602081830303815290604052856040518363ffffffff1660e01b81526004016101f6929190610bcf565b600060405180830381865af4158015610213573d6000803e3d6000fd5b505050506040513d6000823e601f3d908101601f1916820160405261023b9190810190610bfd565b60405160200161024c929190610c91565b60405160208183030381529060405290509392505050565b80516020818301810180516000825292820191909301209152805461028890610cc0565b80601f01602080910402602001604051908101604052809291908181526020018280546102b490610cc0565b80156103015780601f106102d657610100808354040283529160200191610301565b820191906000526020600020905b8154815290600101906020018083116102e457829003601f168201915b505050505081565b60405163d6412c2760e01b8152606090309063d6412c279061033390879087908790600401610cfa565b600060405180830381865afa158015610350573d6000803e3d6000fd5b505050506040513d6000823e601f3d908101601f191682016040526103789190810190610bfd565b949350505050565b60606000836040516103929190610d4b565b908152602001604051809103902080546103ab90610cc0565b90506003146103f15760405162461bcd60e51b815260206004820152600d60248201526c2ab735b737bbb71031b7b637b960991b60448201526064015b60405180910390fd5b6000836040516104019190610d4b565b908152602001604051809103902082604051602001610421929190610e00565b60405160208183030381529060405290505b92915050565b606061045861044984600a610f22565b6104539086610f47565b610789565b6104ae61046684600a610f22565b61047186600a610f22565b61047b9088610f47565b6104859190610f5b565b61048f8587610f7a565b61049a90600a610f22565b6104a49088610f47565b6104539190610f9d565b60405160200161024c929190610fb4565b60606000826040516104d19190610d4b565b908152602001604051809103902080546104ea90610cc0565b905060031461052b5760405162461bcd60e51b815260206004820152600d60248201526c2ab735b737bbb71031b7b637b960991b60448201526064016103e8565b60008260405161053b9190610d4b565b90815260200160405180910390206040516020016105599190610ff0565b6040516020818303038152906040529050919050565b6060806003865111156105a65760808660405160200161059092919061100d565b60405160208183030381529060405290506105bd565b506040805180820190915260018152600060208201525b6000600486516105cd9190610f47565b905060005b818160ff1610156106fd57826105e9600184610f9d565b6105f4906064610f47565b6106019060ff8416610f5b565b8861060d84600461103c565b60ff16815181106106205761062061105d565b016020015160f81c8961063485600461103c565b61063f906001611073565b60ff16815181106106525761065261105d565b016020015160f81c8a61066686600461103c565b610671906002611073565b60ff16815181106106845761068461105d565b016020015160f81c8b61069887600461103c565b6106a3906003611073565b60ff16815181106106b6576106b661105d565b602001015160f81c60f81b60f81c6040516020016106d996959493929190611098565b604051602081830303815290604052925080806106f5906110f2565b9150506105d2565b60405163cf0eca0960e01b815273__$72447f1b2f145aca09ac0141c77e8da5f9$__9063cf0eca09906107389086908a908a90600401611111565b600060405180830381865af4158015610755573d6000803e3d6000fd5b505050506040513d6000823e601f3d908101601f1916820160405261077d9190810190610bfd565b98975050505050505050565b6060816000036107b05750506040805180820190915260018152600360fc1b602082015290565b8160005b81156107da57806107c48161114a565b91506107d39050600a83610f47565b91506107b4565b60008167ffffffffffffffff8111156107f5576107f561088a565b6040519080825280601f01601f19166020018201604052801561081f576020820181803683370190505b5090505b841561037857610834600183610f9d565b9150610841600a86611163565b61084c906030611177565b60f81b8183815181106108615761086161105d565b60200101906001600160f81b031916908160001a905350610883600a86610f47565b9450610823565b634e487b7160e01b600052604160045260246000fd5b604051601f8201601f1916810167ffffffffffffffff811182821017156108c9576108c961088a565b604052919050565b600067ffffffffffffffff8211156108eb576108eb61088a565b50601f01601f191660200190565b600082601f83011261090a57600080fd5b813561091d610918826108d1565b6108a0565b81815284602083860101111561093257600080fd5b816020850160208301376000918101602001919091529392505050565b60008060006060848603121561096457600080fd5b833567ffffffffffffffff8082111561097c57600080fd5b610988878388016108f9565b9450602086013591508082111561099e57600080fd5b6109aa878388016108f9565b935060408601359150808211156109c057600080fd5b506109cd868287016108f9565b9150509250925092565b60005b838110156109f25781810151838201526020016109da565b83811115610a01576000848401525b50505050565b60008151808452610a1f8160208601602086016109d7565b601f01601f19169290920160200192915050565b602081526000610a466020830184610a07565b9392505050565b600060208284031215610a5f57600080fd5b813567ffffffffffffffff811115610a7657600080fd5b610378848285016108f9565b803560ff81168114610a9357600080fd5b919050565b60008060408385031215610aab57600080fd5b823567ffffffffffffffff811115610ac257600080fd5b610ace858286016108f9565b925050610add60208401610a82565b90509250929050565b600080600060608486031215610afb57600080fd5b83359250610b0b60208501610a82565b9150610b1960408501610a82565b90509250925092565b60008060008060808587031215610b3857600080fd5b843567ffffffffffffffff80821115610b5057600080fd5b610b5c888389016108f9565b95506020870135915080821115610b7257600080fd5b610b7e888389016108f9565b94506040870135915080821115610b9457600080fd5b610ba0888389016108f9565b93506060870135915080821115610bb657600080fd5b50610bc3878288016108f9565b91505092959194509250565b604081526000610be26040830185610a07565b8281036020840152610bf48185610a07565b95945050505050565b600060208284031215610c0f57600080fd5b815167ffffffffffffffff811115610c2657600080fd5b8201601f81018413610c3757600080fd5b8051610c45610918826108d1565b818152856020838501011115610c5a57600080fd5b610bf48260208301602086016109d7565b6000815260008251610c848160018501602087016109d7565b9190910160010192915050565b60008351610ca38184602088016109d7565b835190830190610cb78183602088016109d7565b01949350505050565b600181811c90821680610cd457607f821691505b602082108103610cf457634e487b7160e01b600052602260045260246000fd5b50919050565b608081526000608082015260a060208201526000610d1b60a0830186610a07565b8281036040840152610d2d8186610a07565b90508281036060840152610d418185610a07565b9695505050505050565b60008251610d5d8184602087016109d7565b9190910192915050565b8054600090600181811c9080831680610d8157607f831692505b60208084108203610da257634e487b7160e01b600052602260045260246000fd5b818015610db65760018114610dc757610df4565b60ff19861689528489019650610df4565b60008881526020902060005b86811015610dec5781548b820152908501908301610dd3565b505084890196505b50505050505092915050565b6000610e0c8285610d67565b60f89390931b6001600160f81b03191683525050600101919050565b634e487b7160e01b600052601160045260246000fd5b600181815b80851115610e79578160001904821115610e5f57610e5f610e28565b80851615610e6c57918102915b93841c9390800290610e43565b509250929050565b600082610e9057506001610433565b81610e9d57506000610433565b8160018114610eb35760028114610ebd57610ed9565b6001915050610433565b60ff841115610ece57610ece610e28565b50506001821b610433565b5060208310610133831016604e8410600b8410161715610efc575081810a610433565b610f068383610e3e565b8060001904821115610f1a57610f1a610e28565b029392505050565b6000610a4660ff841683610e81565b634e487b7160e01b600052601260045260246000fd5b600082610f5657610f56610f31565b500490565b6000816000190483118215151615610f7557610f75610e28565b500290565b600060ff821660ff841680821015610f9457610f94610e28565b90039392505050565b600082821015610faf57610faf610e28565b500390565b60008351610fc68184602088016109d7565b601760f91b9083019081528351610fe48160018401602088016109d7565b01600101949350505050565b6000610ffc8284610d67565b601960fa1b81526001019392505050565b60ff60f81b8360f81b1681526000825161102e8160018501602087016109d7565b919091016001019392505050565b600060ff821660ff84168160ff0481118215151615610f1a57610f1a610e28565b634e487b7160e01b600052603260045260246000fd5b600060ff821660ff84168060ff0382111561109057611090610e28565b019392505050565b600087516110aa818460208c016109d7565b60f897881b6001600160f81b03199081169390910192835295871b861660018301525092851b8416600284015290841b8316600383015290921b166004820152600501919050565b600060ff821660ff810361110857611108610e28565b60010192915050565b6060815260006111246060830186610a07565b82810360208401526111368186610a07565b90508281036040840152610d418185610a07565b60006001820161115c5761115c610e28565b5060010190565b60008261117257611172610f31565b500690565b6000821982111561118a5761118a610e28565b50019056fea264697066735822122049743a4b25a8642d02959b78cc450feb2bf80838561ab2ca3332d57bee1a195264736f6c634300080d0033",
  "libraries": {
    "SvgCore": "0xDc64a140Aa3E981100a9becA4E685f962f0cF6C9"
  },
  "devdoc": {
    "kind": "dev",
    "methods": {},
    "version": 1
  },
  "userdoc": {
    "kind": "user",
    "methods": {},
    "version": 1
  },
  "storageLayout": {
    "storage": [
      {
        "astId": 6465,
        "contract": "@pooly-cards/svg-lib-sol/contracts/libraries/SvgTools.sol:SvgTools",
        "label": "colors",
        "offset": 0,
        "slot": "0",
        "type": "t_mapping(t_string_memory_ptr,t_bytes_storage)"
      }
    ],
    "types": {
      "t_bytes_storage": {
        "encoding": "bytes",
        "label": "bytes",
        "numberOfBytes": "32"
      },
      "t_mapping(t_string_memory_ptr,t_bytes_storage)": {
        "encoding": "mapping",
        "key": "t_string_memory_ptr",
        "label": "mapping(string => bytes)",
        "numberOfBytes": "32",
        "value": "t_bytes_storage"
      },
      "t_string_memory_ptr": {
        "encoding": "bytes",
        "label": "string",
        "numberOfBytes": "32"
      }
    }
  }
}