{
  "address": "0x0165878A594ca255338adfa4d48449f69242Eb8F",
  "abi": [
    {
      "inputs": [
        {
          "internalType": "address",
          "name": "_sTools",
          "type": "address"
        }
      ],
      "stateMutability": "nonpayable",
      "type": "constructor"
    },
    {
      "inputs": [
        {
          "internalType": "bytes",
          "name": "_id",
          "type": "bytes"
        }
      ],
      "name": "includeSymbolEye",
      "outputs": [
        {
          "internalType": "bytes",
          "name": "",
          "type": "bytes"
        }
      ],
      "stateMutability": "view",
      "type": "function"
    },
    {
      "inputs": [
        {
          "internalType": "bytes",
          "name": "_id",
          "type": "bytes"
        }
      ],
      "name": "includeSymbolGaugeArc",
      "outputs": [
        {
          "internalType": "bytes",
          "name": "",
          "type": "bytes"
        }
      ],
      "stateMutability": "view",
      "type": "function"
    },
    {
      "inputs": [
        {
          "internalType": "bytes",
          "name": "_id",
          "type": "bytes"
        }
      ],
      "name": "includeSymbolGaugeV",
      "outputs": [
        {
          "internalType": "bytes",
          "name": "",
          "type": "bytes"
        }
      ],
      "stateMutability": "view",
      "type": "function"
    },
    {
      "inputs": [
        {
          "internalType": "bytes",
          "name": "_id",
          "type": "bytes"
        }
      ],
      "name": "includeSymbolSFLogo",
      "outputs": [
        {
          "internalType": "bytes",
          "name": "",
          "type": "bytes"
        }
      ],
      "stateMutability": "view",
      "type": "function"
    }
  ],
  "transactionHash": "0x05d6b04dab3b9059fb84ae6cd54dd263b432c040071a8d5df1f45f5b96a28b3c",
  "args": [
    "0x5FC8d32690cc91D4c39d9d3abcBD16989F875707"
  ],
  "numDeployments": 1,
  "solcInputHash": "1d5a56a1078f935190c56fe6e8e932bb",
  "bytecode": "0x608060405234801561001057600080fd5b50604051610dcd380380610dcd83398101604081905261002f91610054565b600080546001600160a01b0319166001600160a01b0392909216919091179055610084565b60006020828403121561006657600080fd5b81516001600160a01b038116811461007d57600080fd5b9392505050565b610d3a806100936000396000f3fe608060405234801561001057600080fd5b506004361061004c5760003560e01c806316eaaaf7146100515780631c76f9bd1461007a578063b2d8285e1461008d578063bf0b03df146100a0575b600080fd5b61006461005f3660046108ce565b6100b3565b60405161007191906109aa565b60405180910390f35b6100646100883660046108ce565b6102e6565b61006461009b3660046108ce565b6103b4565b6100646100ae3660046108ce565b6105b9565b606073Dc64a140Aa3E981100a9becA4E685f962f0cF6C963676d279d8373Dc64a140Aa3E981100a9becA4E685f962f0cF6C963f42de34d6040518163ffffffff1660e01b81526004016101529060408082526005908201526310100b0f60d81b606082015260806020808301829052908201527f7374796c653d227374726f6b653a236131383330623b66696c6c3a236666662260a082015260c00190565b600060405180830381865af415801561016f573d6000803e3d6000fd5b505050506040513d6000823e601f3d908101601f1916820160405261019791908101906109c4565b60405163ae7e728160e01b815273Dc64a140Aa3E981100a9becA4E685f962f0cF6C99063ae7e7281906102199060040160408082526004908201526208080360e11b6060820152608060208201819052601e908201527f69643d227377707570696c22207374796c653d2266696c6c3a2330303022000060a082015260c00190565b600060405180830381865af4158015610236573d6000803e3d6000fd5b505050506040513d6000823e601f3d908101601f1916820160405261025e91908101906109c4565b60405160200161026f929190610a3b565b6040516020818303038152906040526040518363ffffffff1660e01b815260040161029b929190610a6a565b600060405180830381865af41580156102b8573d6000803e3d6000fd5b505050506040513d6000823e601f3d908101601f191682016040526102e091908101906109c4565b92915050565b606073Dc64a140Aa3E981100a9becA4E685f962f0cF6C963676d279d8373Dc64a140Aa3E981100a9becA4E685f962f0cF6C963aa278942604051806080016040528060568152602001610caf605691396040518263ffffffff1660e01b81526004016103529190610a8f565b600060405180830381865af415801561036f573d6000803e3d6000fd5b505050506040513d6000823e601f3d908101601f1916820160405261039791908101906109c4565b6040518363ffffffff1660e01b815260040161029b929190610a6a565b606073Dc64a140Aa3E981100a9becA4E685f962f0cF6C963676d279d8373Dc64a140Aa3E981100a9becA4E685f962f0cF6C963aa2789426040518060400160405280600c81526020016a268519209414000000b21960a11b815250610418886106b8565b6040518363ffffffff1660e01b8152600401610435929190610a6a565b600060405180830381865af4158015610452573d6000803e3d6000fd5b505050506040513d6000823e601f3d908101601f1916820160405261047a91908101906109c4565b73Dc64a140Aa3E981100a9becA4E685f962f0cF6C963aa2789426040518060400160405280600c81526020016a268519209414000000b21960a11b8152506104c18961070c565b6040518363ffffffff1660e01b81526004016104de929190610a6a565b600060405180830381865af41580156104fb573d6000803e3d6000fd5b505050506040513d6000823e601f3d908101601f1916820160405261052391908101906109c4565b73Dc64a140Aa3E981100a9becA4E685f962f0cF6C963b108b88e6105468961074a565b6040518263ffffffff1660e01b81526004016105629190610aeb565b600060405180830381865af415801561057f573d6000803e3d6000fd5b505050506040513d6000823e601f3d908101601f191682016040526105a791908101906109c4565b60405160200161026f93929190610b76565b606073Dc64a140Aa3E981100a9becA4E685f962f0cF6C963676d279d8373Dc64a140Aa3E981100a9becA4E685f962f0cF6C9634793897b604051806040016040528060058152602001630964090960d81b815250610616886106b8565b6040518363ffffffff1660e01b8152600401610633929190610a6a565b600060405180830381865af4158015610650573d6000803e3d6000fd5b505050506040513d6000823e601f3d908101601f1916820160405261067891908101906109c4565b73Dc64a140Aa3E981100a9becA4E685f962f0cF6C9634793897b604051806040016040528060058152602001630964090960d81b8152506104c18961070c565b60606040518060400160405280601181526020017003830ba342632b733ba341e91189818111607d1b815250826040516020016106f6929190610bb9565b6040516020818303038152906040529050919050565b60606040518060400160405280601181526020017003830ba342632b733ba341e91189818111607d1b815250826040516020016106f6929190610c2b565b6040805160a08101825260008082526020820152606091810182905281810182905260808101919091526040518060a00160405280600060ff168152602001600a60ff168152602001836040516020016107a49190610c7a565b60408051808303601f1901815291815290825280516020808201835260008083528185019290925290548251630b01875760e41b8152600481019290925260086024830152674461726b4772657960c01b604483015292909101916001600160a01b03169063b018757090606401600060405180830381865afa15801561082f573d6000803e3d6000fd5b505050506040513d6000823e601f3d908101601f1916820160405261085791908101906109c4565b905292915050565b634e487b7160e01b600052604160045260246000fd5b604051601f8201601f1916810167ffffffffffffffff8111828210171561089e5761089e61085f565b604052919050565b600067ffffffffffffffff8211156108c0576108c061085f565b50601f01601f191660200190565b6000602082840312156108e057600080fd5b813567ffffffffffffffff8111156108f757600080fd5b8201601f8101841361090857600080fd5b803561091b610916826108a6565b610875565b81815285602083850101111561093057600080fd5b81602084016020830137600091810160200191909152949350505050565b60005b83811015610969578181015183820152602001610951565b83811115610978576000848401525b50505050565b6000815180845261099681602086016020860161094e565b601f01601f19169290920160200192915050565b6020815260006109bd602083018461097e565b9392505050565b6000602082840312156109d657600080fd5b815167ffffffffffffffff8111156109ed57600080fd5b8201601f810184136109fe57600080fd5b8051610a0c610916826108a6565b818152856020838501011115610a2157600080fd5b610a3282602083016020860161094e565b95945050505050565b60008351610a4d81846020880161094e565b835190830190610a6181836020880161094e565b01949350505050565b604081526000610a7d604083018561097e565b8281036020840152610a32818561097e565b604081526000610aa2604083018461097e565b828103602093840152602281527f66696c6c2d72756c653d226576656e6f6464222066696c6c3d22233132313431928101929092525061229160f11b6040820152606001919050565b6040815260ff825116604082015260ff60208301511660608201526000604083015160a06080840152610b2160e084018261097e565b90506060840151603f19808584030160a0860152610b3f838361097e565b925060808601519150808584030160c086015250610b5d828261097e565b8481036020958601526000815293909301949350505050565b60008451610b8881846020890161094e565b845190830190610b9c81836020890161094e565b8451910190610baf81836020880161094e565b0195945050505050565b60008351610bcb81846020880161094e565b80830190507f7374726f6b652d6461736861727261793d223130302c20313030222069643d22815261626760f01b60208201528351610c1181602284016020880161094e565b601160f91b60229290910191820152602301949350505050565b60008351610c3d81846020880161094e565b6569643d22666760d01b9083019081528351610c6081600684016020880161094e565b601160f91b60069290910191820152600701949350505050565b602360f81b815261626760f01b600182015260008251610ca181600385016020870161094e565b919091016003019291505056fe004d1f184c18184c18104c10104c10094c1f094c1f185a4d091f4c101f4c10184c09184c091f5a4d00044c0024430026022804284c2428432628282628244c2804432802260024004c0400430200000200044c00045aa2646970667358221220d918535eef88f8b0ecaae11491f7c5f9b153d590f94c9c9f261cb01bfaf5b5a864736f6c634300080d0033",
  "deployedBytecode": "0x608060405234801561001057600080fd5b506004361061004c5760003560e01c806316eaaaf7146100515780631c76f9bd1461007a578063b2d8285e1461008d578063bf0b03df146100a0575b600080fd5b61006461005f3660046108ce565b6100b3565b60405161007191906109aa565b60405180910390f35b6100646100883660046108ce565b6102e6565b61006461009b3660046108ce565b6103b4565b6100646100ae3660046108ce565b6105b9565b606073__$72447f1b2f145aca09ac0141c77e8da5f9$__63676d279d8373__$72447f1b2f145aca09ac0141c77e8da5f9$__63f42de34d6040518163ffffffff1660e01b81526004016101529060408082526005908201526310100b0f60d81b606082015260806020808301829052908201527f7374796c653d227374726f6b653a236131383330623b66696c6c3a236666662260a082015260c00190565b600060405180830381865af415801561016f573d6000803e3d6000fd5b505050506040513d6000823e601f3d908101601f1916820160405261019791908101906109c4565b60405163ae7e728160e01b815273__$72447f1b2f145aca09ac0141c77e8da5f9$__9063ae7e7281906102199060040160408082526004908201526208080360e11b6060820152608060208201819052601e908201527f69643d227377707570696c22207374796c653d2266696c6c3a2330303022000060a082015260c00190565b600060405180830381865af4158015610236573d6000803e3d6000fd5b505050506040513d6000823e601f3d908101601f1916820160405261025e91908101906109c4565b60405160200161026f929190610a3b565b6040516020818303038152906040526040518363ffffffff1660e01b815260040161029b929190610a6a565b600060405180830381865af41580156102b8573d6000803e3d6000fd5b505050506040513d6000823e601f3d908101601f191682016040526102e091908101906109c4565b92915050565b606073__$72447f1b2f145aca09ac0141c77e8da5f9$__63676d279d8373__$72447f1b2f145aca09ac0141c77e8da5f9$__63aa278942604051806080016040528060568152602001610caf605691396040518263ffffffff1660e01b81526004016103529190610a8f565b600060405180830381865af415801561036f573d6000803e3d6000fd5b505050506040513d6000823e601f3d908101601f1916820160405261039791908101906109c4565b6040518363ffffffff1660e01b815260040161029b929190610a6a565b606073__$72447f1b2f145aca09ac0141c77e8da5f9$__63676d279d8373__$72447f1b2f145aca09ac0141c77e8da5f9$__63aa2789426040518060400160405280600c81526020016a268519209414000000b21960a11b815250610418886106b8565b6040518363ffffffff1660e01b8152600401610435929190610a6a565b600060405180830381865af4158015610452573d6000803e3d6000fd5b505050506040513d6000823e601f3d908101601f1916820160405261047a91908101906109c4565b73__$72447f1b2f145aca09ac0141c77e8da5f9$__63aa2789426040518060400160405280600c81526020016a268519209414000000b21960a11b8152506104c18961070c565b6040518363ffffffff1660e01b81526004016104de929190610a6a565b600060405180830381865af41580156104fb573d6000803e3d6000fd5b505050506040513d6000823e601f3d908101601f1916820160405261052391908101906109c4565b73__$72447f1b2f145aca09ac0141c77e8da5f9$__63b108b88e6105468961074a565b6040518263ffffffff1660e01b81526004016105629190610aeb565b600060405180830381865af415801561057f573d6000803e3d6000fd5b505050506040513d6000823e601f3d908101601f191682016040526105a791908101906109c4565b60405160200161026f93929190610b76565b606073__$72447f1b2f145aca09ac0141c77e8da5f9$__63676d279d8373__$72447f1b2f145aca09ac0141c77e8da5f9$__634793897b604051806040016040528060058152602001630964090960d81b815250610616886106b8565b6040518363ffffffff1660e01b8152600401610633929190610a6a565b600060405180830381865af4158015610650573d6000803e3d6000fd5b505050506040513d6000823e601f3d908101601f1916820160405261067891908101906109c4565b73__$72447f1b2f145aca09ac0141c77e8da5f9$__634793897b604051806040016040528060058152602001630964090960d81b8152506104c18961070c565b60606040518060400160405280601181526020017003830ba342632b733ba341e91189818111607d1b815250826040516020016106f6929190610bb9565b6040516020818303038152906040529050919050565b60606040518060400160405280601181526020017003830ba342632b733ba341e91189818111607d1b815250826040516020016106f6929190610c2b565b6040805160a08101825260008082526020820152606091810182905281810182905260808101919091526040518060a00160405280600060ff168152602001600a60ff168152602001836040516020016107a49190610c7a565b60408051808303601f1901815291815290825280516020808201835260008083528185019290925290548251630b01875760e41b8152600481019290925260086024830152674461726b4772657960c01b604483015292909101916001600160a01b03169063b018757090606401600060405180830381865afa15801561082f573d6000803e3d6000fd5b505050506040513d6000823e601f3d908101601f1916820160405261085791908101906109c4565b905292915050565b634e487b7160e01b600052604160045260246000fd5b604051601f8201601f1916810167ffffffffffffffff8111828210171561089e5761089e61085f565b604052919050565b600067ffffffffffffffff8211156108c0576108c061085f565b50601f01601f191660200190565b6000602082840312156108e057600080fd5b813567ffffffffffffffff8111156108f757600080fd5b8201601f8101841361090857600080fd5b803561091b610916826108a6565b610875565b81815285602083850101111561093057600080fd5b81602084016020830137600091810160200191909152949350505050565b60005b83811015610969578181015183820152602001610951565b83811115610978576000848401525b50505050565b6000815180845261099681602086016020860161094e565b601f01601f19169290920160200192915050565b6020815260006109bd602083018461097e565b9392505050565b6000602082840312156109d657600080fd5b815167ffffffffffffffff8111156109ed57600080fd5b8201601f810184136109fe57600080fd5b8051610a0c610916826108a6565b818152856020838501011115610a2157600080fd5b610a3282602083016020860161094e565b95945050505050565b60008351610a4d81846020880161094e565b835190830190610a6181836020880161094e565b01949350505050565b604081526000610a7d604083018561097e565b8281036020840152610a32818561097e565b604081526000610aa2604083018461097e565b828103602093840152602281527f66696c6c2d72756c653d226576656e6f6464222066696c6c3d22233132313431928101929092525061229160f11b6040820152606001919050565b6040815260ff825116604082015260ff60208301511660608201526000604083015160a06080840152610b2160e084018261097e565b90506060840151603f19808584030160a0860152610b3f838361097e565b925060808601519150808584030160c086015250610b5d828261097e565b8481036020958601526000815293909301949350505050565b60008451610b8881846020890161094e565b845190830190610b9c81836020890161094e565b8451910190610baf81836020880161094e565b0195945050505050565b60008351610bcb81846020880161094e565b80830190507f7374726f6b652d6461736861727261793d223130302c20313030222069643d22815261626760f01b60208201528351610c1181602284016020880161094e565b601160f91b60229290910191820152602301949350505050565b60008351610c3d81846020880161094e565b6569643d22666760d01b9083019081528351610c6081600684016020880161094e565b601160f91b60069290910191820152600701949350505050565b602360f81b815261626760f01b600182015260008251610ca181600385016020870161094e565b919091016003019291505056fe004d1f184c18184c18104c10104c10094c1f094c1f185a4d091f4c101f4c10184c09184c091f5a4d00044c0024430026022804284c2428432628282628244c2804432802260024004c0400430200000200044c00045aa2646970667358221220d918535eef88f8b0ecaae11491f7c5f9b153d590f94c9c9f261cb01bfaf5b5a864736f6c634300080d0033",
  "libraries": {
    "SvgCore": "0xDc64a140Aa3E981100a9becA4E685f962f0cF6C9"
  },
  "devdoc": {
    "kind": "dev",
    "methods": {},
    "version": 1
  },
  "userdoc": {
    "kind": "user",
    "methods": {},
    "version": 1
  },
  "storageLayout": {
    "storage": [
      {
        "astId": 6874,
        "contract": "@pooly-cards/svg-lib-sol/contracts/libraries/SvgWidgets.sol:SvgWidgets",
        "label": "sTools",
        "offset": 0,
        "slot": "0",
        "type": "t_contract(ISvgTools)4716"
      }
    ],
    "types": {
      "t_contract(ISvgTools)4716": {
        "encoding": "inplace",
        "label": "contract ISvgTools",
        "numberOfBytes": "20"
      }
    }
  }
}